{
  "src/AgroasysEscrow.sol": {
    "AgroasysEscrow": {
      "abi": [
        {
          "inputs": [
            {
              "internalType": "address",
              "name": "_usdcToken",
              "type": "address"
            },
            {
              "internalType": "address",
              "name": "_oracleAddress",
              "type": "address"
            },
            {
              "internalType": "address",
              "name": "_treasuryAddress",
              "type": "address"
            },
            {
              "internalType": "address[]",
              "name": "_admins",
              "type": "address[]"
            },
            {
              "internalType": "uint256",
              "name": "_requiredApprovals",
              "type": "uint256"
            }
          ],
          "stateMutability": "nonpayable",
          "type": "constructor"
        },
        {
          "inputs": [],
          "name": "ECDSAInvalidSignature",
          "type": "error"
        },
        {
          "inputs": [
            {
              "internalType": "uint256",
              "name": "length",
              "type": "uint256"
            }
          ],
          "name": "ECDSAInvalidSignatureLength",
          "type": "error"
        },
        {
          "inputs": [
            {
              "internalType": "bytes32",
              "name": "s",
              "type": "bytes32"
            }
          ],
          "name": "ECDSAInvalidSignatureS",
          "type": "error"
        },
        {
          "inputs": [],
          "name": "ReentrancyGuardReentrantCall",
          "type": "error"
        },
        {
          "inputs": [
            {
              "internalType": "address",
              "name": "token",
              "type": "address"
            }
          ],
          "name": "SafeERC20FailedOperation",
          "type": "error"
        },
        {
          "anonymous": false,
          "inputs": [
            {
              "indexed": true,
              "internalType": "uint256",
              "name": "proposalId",
              "type": "uint256"
            },
            {
              "indexed": true,
              "internalType": "address",
              "name": "approver",
              "type": "address"
            },
            {
              "indexed": false,
              "internalType": "uint256",
              "name": "approvalCount",
              "type": "uint256"
            },
            {
              "indexed": false,
              "internalType": "uint256",
              "name": "requiredApprovals",
              "type": "uint256"
            }
          ],
          "name": "AdminAddApproved",
          "type": "event"
        },
        {
          "anonymous": false,
          "inputs": [
            {
              "indexed": true,
              "internalType": "uint256",
              "name": "proposalId",
              "type": "uint256"
            },
            {
              "indexed": true,
              "internalType": "address",
              "name": "proposer",
              "type": "address"
            },
            {
              "indexed": true,
              "internalType": "address",
              "name": "newAdmin",
              "type": "address"
            },
            {
              "indexed": false,
              "internalType": "uint256",
              "name": "eta",
              "type": "uint256"
            }
          ],
          "name": "AdminAddProposed",
          "type": "event"
        },
        {
          "anonymous": false,
          "inputs": [
            {
              "indexed": true,
              "internalType": "address",
              "name": "newAdmin",
              "type": "address"
            }
          ],
          "name": "AdminAdded",
          "type": "event"
        },
        {
          "anonymous": false,
          "inputs": [
            {
              "indexed": true,
              "internalType": "uint256",
              "name": "tradeId",
              "type": "uint256"
            },
            {
              "indexed": false,
              "internalType": "uint256",
              "name": "arrivalTimestamp",
              "type": "uint256"
            }
          ],
          "name": "ArrivalConfirmed",
          "type": "event"
        },
        {
          "anonymous": false,
          "inputs": [
            {
              "indexed": true,
              "internalType": "uint256",
              "name": "proposalId",
              "type": "uint256"
            },
            {
              "indexed": true,
              "internalType": "address",
              "name": "approver",
              "type": "address"
            },
            {
              "indexed": false,
              "internalType": "uint256",
              "name": "approvalCount",
              "type": "uint256"
            },
            {
              "indexed": false,
              "internalType": "uint256",
              "name": "requiredApprovals",
              "type": "uint256"
            }
          ],
          "name": "DisputeApproved",
          "type": "event"
        },
        {
          "anonymous": false,
          "inputs": [
            {
              "indexed": true,
              "internalType": "uint256",
              "name": "proposalId",
              "type": "uint256"
            },
            {
              "indexed": true,
              "internalType": "uint256",
              "name": "tradeId",
              "type": "uint256"
            },
            {
              "indexed": false,
              "internalType": "enum AgroasysEscrow.DisputeStatus",
              "name": "disputeStatus",
              "type": "uint8"
            }
          ],
          "name": "DisputeFinalized",
          "type": "event"
        },
        {
          "anonymous": false,
          "inputs": [
            {
              "indexed": true,
              "internalType": "uint256",
              "name": "tradeId",
              "type": "uint256"
            }
          ],
          "name": "DisputeOpenedByBuyer",
          "type": "event"
        },
        {
          "anonymous": false,
          "inputs": [
            {
              "indexed": true,
              "internalType": "uint256",
              "name": "proposalId",
              "type": "uint256"
            },
            {
              "indexed": true,
              "internalType": "uint256",
              "name": "tradeId",
              "type": "uint256"
            },
            {
              "indexed": false,
              "internalType": "enum AgroasysEscrow.DisputeStatus",
              "name": "disputeStatus",
              "type": "uint8"
            },
            {
              "indexed": true,
              "internalType": "address",
              "name": "proposer",
              "type": "address"
            }
          ],
          "name": "DisputeSolutionProposed",
          "type": "event"
        },
        {
          "anonymous": false,
          "inputs": [
            {
              "indexed": true,
              "internalType": "uint256",
              "name": "tradeId",
              "type": "uint256"
            },
            {
              "indexed": true,
              "internalType": "address",
              "name": "supplier",
              "type": "address"
            },
            {
              "indexed": false,
              "internalType": "uint256",
              "name": "supplierSecondTranche",
              "type": "uint256"
            }
          ],
          "name": "FinalTrancheReleased",
          "type": "event"
        },
        {
          "anonymous": false,
          "inputs": [
            {
              "indexed": true,
              "internalType": "uint256",
              "name": "tradeId",
              "type": "uint256"
            },
            {
              "indexed": true,
              "internalType": "address",
              "name": "supplier",
              "type": "address"
            },
            {
              "indexed": false,
              "internalType": "uint256",
              "name": "supplierFirstTranche",
              "type": "uint256"
            },
            {
              "indexed": true,
              "internalType": "address",
              "name": "treasury",
              "type": "address"
            },
            {
              "indexed": false,
              "internalType": "uint256",
              "name": "logisticsAmount",
              "type": "uint256"
            }
          ],
          "name": "FundsReleasedStage1",
          "type": "event"
        },
        {
          "anonymous": false,
          "inputs": [
            {
              "indexed": true,
              "internalType": "uint256",
              "name": "tradeId",
              "type": "uint256"
            },
            {
              "indexed": true,
              "internalType": "address",
              "name": "supplier",
              "type": "address"
            },
            {
              "indexed": false,
              "internalType": "uint256",
              "name": "supplierSecondTranche",
              "type": "uint256"
            },
            {
              "indexed": true,
              "internalType": "address",
              "name": "treasury",
              "type": "address"
            },
            {
              "indexed": false,
              "internalType": "uint256",
              "name": "platformFeesAmount",
              "type": "uint256"
            }
          ],
          "name": "FundsReleasedStage2",
          "type": "event"
        },
        {
          "anonymous": false,
          "inputs": [
            {
              "indexed": true,
              "internalType": "uint256",
              "name": "proposalId",
              "type": "uint256"
            },
            {
              "indexed": true,
              "internalType": "address",
              "name": "approver",
              "type": "address"
            },
            {
              "indexed": false,
              "internalType": "uint256",
              "name": "approvalCount",
              "type": "uint256"
            },
            {
              "indexed": false,
              "internalType": "uint256",
              "name": "requiredApprovals",
              "type": "uint256"
            }
          ],
          "name": "OracleUpdateApproved",
          "type": "event"
        },
        {
          "anonymous": false,
          "inputs": [
            {
              "indexed": true,
              "internalType": "uint256",
              "name": "proposalId",
              "type": "uint256"
            },
            {
              "indexed": true,
              "internalType": "address",
              "name": "proposer",
              "type": "address"
            },
            {
              "indexed": true,
              "internalType": "address",
              "name": "newOracle",
              "type": "address"
            },
            {
              "indexed": false,
              "internalType": "uint256",
              "name": "eta",
              "type": "uint256"
            }
          ],
          "name": "OracleUpdateProposed",
          "type": "event"
        },
        {
          "anonymous": false,
          "inputs": [
            {
              "indexed": true,
              "internalType": "address",
              "name": "oldOracle",
              "type": "address"
            },
            {
              "indexed": true,
              "internalType": "address",
              "name": "newOracle",
              "type": "address"
            }
          ],
          "name": "OracleUpdated",
          "type": "event"
        },
        {
          "anonymous": false,
          "inputs": [
            {
              "indexed": true,
              "internalType": "uint256",
              "name": "tradeId",
              "type": "uint256"
            },
            {
              "indexed": true,
              "internalType": "address",
              "name": "treasury",
              "type": "address"
            },
            {
              "indexed": false,
              "internalType": "uint256",
              "name": "platformFeesAmount",
              "type": "uint256"
            }
          ],
          "name": "PlatformFeesPaidStage1",
          "type": "event"
        },
        {
          "anonymous": false,
          "inputs": [
            {
              "indexed": true,
              "internalType": "uint256",
              "name": "tradeId",
              "type": "uint256"
            },
            {
              "indexed": true,
              "internalType": "address",
              "name": "buyer",
              "type": "address"
            },
            {
              "indexed": true,
              "internalType": "address",
              "name": "supplier",
              "type": "address"
            },
            {
              "indexed": false,
              "internalType": "uint256",
              "name": "totalAmount",
              "type": "uint256"
            },
            {
              "indexed": false,
              "internalType": "uint256",
              "name": "logisticsAmount",
              "type": "uint256"
            },
            {
              "indexed": false,
              "internalType": "uint256",
              "name": "platformFeesAmount",
              "type": "uint256"
            },
            {
              "indexed": false,
              "internalType": "uint256",
              "name": "supplierFirstTranche",
              "type": "uint256"
            },
            {
              "indexed": false,
              "internalType": "uint256",
              "name": "supplierSecondTranche",
              "type": "uint256"
            },
            {
              "indexed": false,
              "internalType": "bytes32",
              "name": "ricardianHash",
              "type": "bytes32"
            }
          ],
          "name": "TradeLocked",
          "type": "event"
        },
        {
          "inputs": [],
          "name": "DISPUTE_WINDOW",
          "outputs": [
            {
              "internalType": "uint256",
              "name": "",
              "type": "uint256"
            }
          ],
          "stateMutability": "view",
          "type": "function"
        },
        {
          "inputs": [],
          "name": "adminAddCounter",
          "outputs": [
            {
              "internalType": "uint256",
              "name": "",
              "type": "uint256"
            }
          ],
          "stateMutability": "view",
          "type": "function"
        },
        {
          "inputs": [
            {
              "internalType": "uint256",
              "name": "",
              "type": "uint256"
            },
            {
              "internalType": "address",
              "name": "",
              "type": "address"
            }
          ],
          "name": "adminAddHasApproved",
          "outputs": [
            {
              "internalType": "bool",
              "name": "",
              "type": "bool"
            }
          ],
          "stateMutability": "view",
          "type": "function"
        },
        {
          "inputs": [
            {
              "internalType": "uint256",
              "name": "",
              "type": "uint256"
            }
          ],
          "name": "adminAddProposals",
          "outputs": [
            {
              "internalType": "address",
              "name": "newAdmin",
              "type": "address"
            },
            {
              "internalType": "uint256",
              "name": "approvalCount",
              "type": "uint256"
            },
            {
              "internalType": "bool",
              "name": "executed",
              "type": "bool"
            },
            {
              "internalType": "uint256",
              "name": "createdAt",
              "type": "uint256"
            },
            {
              "internalType": "uint256",
              "name": "eta",
              "type": "uint256"
            },
            {
              "internalType": "address",
              "name": "proposer",
              "type": "address"
            }
          ],
          "stateMutability": "view",
          "type": "function"
        },
        {
          "inputs": [
            {
              "internalType": "uint256",
              "name": "",
              "type": "uint256"
            }
          ],
          "name": "admins",
          "outputs": [
            {
              "internalType": "address",
              "name": "",
              "type": "address"
            }
          ],
          "stateMutability": "view",
          "type": "function"
        },
        {
          "inputs": [
            {
              "internalType": "uint256",
              "name": "_proposalId",
              "type": "uint256"
            }
          ],
          "name": "approveAddAdmin",
          "outputs": [],
          "stateMutability": "nonpayable",
          "type": "function"
        },
        {
          "inputs": [
            {
              "internalType": "uint256",
              "name": "_proposalId",
              "type": "uint256"
            }
          ],
          "name": "approveDisputeSolution",
          "outputs": [],
          "stateMutability": "nonpayable",
          "type": "function"
        },
        {
          "inputs": [
            {
              "internalType": "uint256",
              "name": "_proposalId",
              "type": "uint256"
            }
          ],
          "name": "approveOracleUpdate",
          "outputs": [],
          "stateMutability": "nonpayable",
          "type": "function"
        },
        {
          "inputs": [
            {
              "internalType": "uint256",
              "name": "_tradeId",
              "type": "uint256"
            }
          ],
          "name": "confirmArrival",
          "outputs": [],
          "stateMutability": "nonpayable",
          "type": "function"
        },
        {
          "inputs": [
            {
              "internalType": "address",
              "name": "_supplier",
              "type": "address"
            },
            {
              "internalType": "uint256",
              "name": "_totalAmount",
              "type": "uint256"
            },
            {
              "internalType": "uint256",
              "name": "_logisticsAmount",
              "type": "uint256"
            },
            {
              "internalType": "uint256",
              "name": "_platformFeesAmount",
              "type": "uint256"
            },
            {
              "internalType": "uint256",
              "name": "_supplierFirstTranche",
              "type": "uint256"
            },
            {
              "internalType": "uint256",
              "name": "_supplierSecondTranche",
              "type": "uint256"
            },
            {
              "internalType": "bytes32",
              "name": "_ricardianHash",
              "type": "bytes32"
            },
            {
              "internalType": "uint256",
              "name": "_buyerNonce",
              "type": "uint256"
            },
            {
              "internalType": "uint256",
              "name": "_deadline",
              "type": "uint256"
            },
            {
              "internalType": "bytes",
              "name": "_signature",
              "type": "bytes"
            }
          ],
          "name": "createTrade",
          "outputs": [
            {
              "internalType": "uint256",
              "name": "",
              "type": "uint256"
            }
          ],
          "stateMutability": "nonpayable",
          "type": "function"
        },
        {
          "inputs": [],
          "name": "disputeCounter",
          "outputs": [
            {
              "internalType": "uint256",
              "name": "",
              "type": "uint256"
            }
          ],
          "stateMutability": "view",
          "type": "function"
        },
        {
          "inputs": [
            {
              "internalType": "uint256",
              "name": "",
              "type": "uint256"
            },
            {
              "internalType": "address",
              "name": "",
              "type": "address"
            }
          ],
          "name": "disputeHasApproved",
          "outputs": [
            {
              "internalType": "bool",
              "name": "",
              "type": "bool"
            }
          ],
          "stateMutability": "view",
          "type": "function"
        },
        {
          "inputs": [
            {
              "internalType": "uint256",
              "name": "",
              "type": "uint256"
            }
          ],
          "name": "disputeProposals",
          "outputs": [
            {
              "internalType": "uint256",
              "name": "tradeId",
              "type": "uint256"
            },
            {
              "internalType": "enum AgroasysEscrow.DisputeStatus",
              "name": "disputeStatus",
              "type": "uint8"
            },
            {
              "internalType": "uint256",
              "name": "approvalCount",
              "type": "uint256"
            },
            {
              "internalType": "bool",
              "name": "executed",
              "type": "bool"
            },
            {
              "internalType": "uint256",
              "name": "createdAt",
              "type": "uint256"
            },
            {
              "internalType": "address",
              "name": "proposer",
              "type": "address"
            }
          ],
          "stateMutability": "view",
          "type": "function"
        },
        {
          "inputs": [
            {
              "internalType": "uint256",
              "name": "_proposalId",
              "type": "uint256"
            }
          ],
          "name": "executeAddAdmin",
          "outputs": [],
          "stateMutability": "nonpayable",
          "type": "function"
        },
        {
          "inputs": [
            {
              "internalType": "uint256",
              "name": "_proposalId",
              "type": "uint256"
            }
          ],
          "name": "executeOracleUpdate",
          "outputs": [],
          "stateMutability": "nonpayable",
          "type": "function"
        },
        {
          "inputs": [
            {
              "internalType": "uint256",
              "name": "_tradeId",
              "type": "uint256"
            }
          ],
          "name": "finalizeAfterDisputeWindow",
          "outputs": [],
          "stateMutability": "nonpayable",
          "type": "function"
        },
        {
          "inputs": [
            {
              "internalType": "address",
              "name": "buyer",
              "type": "address"
            }
          ],
          "name": "getBuyerNonce",
          "outputs": [
            {
              "internalType": "uint256",
              "name": "",
              "type": "uint256"
            }
          ],
          "stateMutability": "view",
          "type": "function"
        },
        {
          "inputs": [],
          "name": "getNextTradeId",
          "outputs": [
            {
              "internalType": "uint256",
              "name": "",
              "type": "uint256"
            }
          ],
          "stateMutability": "view",
          "type": "function"
        },
        {
          "inputs": [],
          "name": "governanceApprovals",
          "outputs": [
            {
              "internalType": "uint256",
              "name": "",
              "type": "uint256"
            }
          ],
          "stateMutability": "view",
          "type": "function"
        },
        {
          "inputs": [],
          "name": "governanceTimelock",
          "outputs": [
            {
              "internalType": "uint256",
              "name": "",
              "type": "uint256"
            }
          ],
          "stateMutability": "view",
          "type": "function"
        },
        {
          "inputs": [
            {
              "internalType": "address",
              "name": "",
              "type": "address"
            }
          ],
          "name": "isAdmin",
          "outputs": [
            {
              "internalType": "bool",
              "name": "",
              "type": "bool"
            }
          ],
          "stateMutability": "view",
          "type": "function"
        },
        {
          "inputs": [
            {
              "internalType": "address",
              "name": "",
              "type": "address"
            }
          ],
          "name": "nonces",
          "outputs": [
            {
              "internalType": "uint256",
              "name": "",
              "type": "uint256"
            }
          ],
          "stateMutability": "view",
          "type": "function"
        },
        {
          "inputs": [
            {
              "internalType": "uint256",
              "name": "_tradeId",
              "type": "uint256"
            }
          ],
          "name": "openDispute",
          "outputs": [],
          "stateMutability": "nonpayable",
          "type": "function"
        },
        {
          "inputs": [],
          "name": "oracleAddress",
          "outputs": [
            {
              "internalType": "address",
              "name": "",
              "type": "address"
            }
          ],
          "stateMutability": "view",
          "type": "function"
        },
        {
          "inputs": [],
          "name": "oracleUpdateCounter",
          "outputs": [
            {
              "internalType": "uint256",
              "name": "",
              "type": "uint256"
            }
          ],
          "stateMutability": "view",
          "type": "function"
        },
        {
          "inputs": [
            {
              "internalType": "uint256",
              "name": "",
              "type": "uint256"
            },
            {
              "internalType": "address",
              "name": "",
              "type": "address"
            }
          ],
          "name": "oracleUpdateHasApproved",
          "outputs": [
            {
              "internalType": "bool",
              "name": "",
              "type": "bool"
            }
          ],
          "stateMutability": "view",
          "type": "function"
        },
        {
          "inputs": [
            {
              "internalType": "uint256",
              "name": "",
              "type": "uint256"
            }
          ],
          "name": "oracleUpdateProposals",
          "outputs": [
            {
              "internalType": "address",
              "name": "newOracle",
              "type": "address"
            },
            {
              "internalType": "uint256",
              "name": "approvalCount",
              "type": "uint256"
            },
            {
              "internalType": "bool",
              "name": "executed",
              "type": "bool"
            },
            {
              "internalType": "uint256",
              "name": "createdAt",
              "type": "uint256"
            },
            {
              "internalType": "uint256",
              "name": "eta",
              "type": "uint256"
            },
            {
              "internalType": "address",
              "name": "proposer",
              "type": "address"
            }
          ],
          "stateMutability": "view",
          "type": "function"
        },
        {
          "inputs": [
            {
              "internalType": "address",
              "name": "_newAdmin",
              "type": "address"
            }
          ],
          "name": "proposeAddAdmin",
          "outputs": [
            {
              "internalType": "uint256",
              "name": "",
              "type": "uint256"
            }
          ],
          "stateMutability": "nonpayable",
          "type": "function"
        },
        {
          "inputs": [
            {
              "internalType": "uint256",
              "name": "_tradeId",
              "type": "uint256"
            },
            {
              "internalType": "enum AgroasysEscrow.DisputeStatus",
              "name": "_disputeStatus",
              "type": "uint8"
            }
          ],
          "name": "proposeDisputeSolution",
          "outputs": [
            {
              "internalType": "uint256",
              "name": "",
              "type": "uint256"
            }
          ],
          "stateMutability": "nonpayable",
          "type": "function"
        },
        {
          "inputs": [
            {
              "internalType": "address",
              "name": "_newOracle",
              "type": "address"
            }
          ],
          "name": "proposeOracleUpdate",
          "outputs": [
            {
              "internalType": "uint256",
              "name": "",
              "type": "uint256"
            }
          ],
          "stateMutability": "nonpayable",
          "type": "function"
        },
        {
          "inputs": [
            {
              "internalType": "uint256",
              "name": "_tradeId",
              "type": "uint256"
            }
          ],
          "name": "releaseFundsStage1",
          "outputs": [],
          "stateMutability": "nonpayable",
          "type": "function"
        },
        {
          "inputs": [],
          "name": "requiredApprovals",
          "outputs": [
            {
              "internalType": "uint256",
              "name": "",
              "type": "uint256"
            }
          ],
          "stateMutability": "view",
          "type": "function"
        },
        {
          "inputs": [],
          "name": "tradeCounter",
          "outputs": [
            {
              "internalType": "uint256",
              "name": "",
              "type": "uint256"
            }
          ],
          "stateMutability": "view",
          "type": "function"
        },
        {
          "inputs": [
            {
              "internalType": "uint256",
              "name": "",
              "type": "uint256"
            }
          ],
          "name": "tradeHasActiveDisputeProposal",
          "outputs": [
            {
              "internalType": "bool",
              "name": "",
              "type": "bool"
            }
          ],
          "stateMutability": "view",
          "type": "function"
        },
        {
          "inputs": [
            {
              "internalType": "uint256",
              "name": "",
              "type": "uint256"
            }
          ],
          "name": "trades",
          "outputs": [
            {
              "internalType": "uint256",
              "name": "tradeId",
              "type": "uint256"
            },
            {
              "internalType": "bytes32",
              "name": "ricardianHash",
              "type": "bytes32"
            },
            {
              "internalType": "enum AgroasysEscrow.TradeStatus",
              "name": "status",
              "type": "uint8"
            },
            {
              "internalType": "address",
              "name": "buyerAddress",
              "type": "address"
            },
            {
              "internalType": "address",
              "name": "supplierAddress",
              "type": "address"
            },
            {
              "internalType": "uint256",
              "name": "totalAmountLocked",
              "type": "uint256"
            },
            {
              "internalType": "uint256",
              "name": "logisticsAmount",
              "type": "uint256"
            },
            {
              "internalType": "uint256",
              "name": "platformFeesAmount",
              "type": "uint256"
            },
            {
              "internalType": "uint256",
              "name": "supplierFirstTranche",
              "type": "uint256"
            },
            {
              "internalType": "uint256",
              "name": "supplierSecondTranche",
              "type": "uint256"
            },
            {
              "internalType": "uint256",
              "name": "createdAt",
              "type": "uint256"
            },
            {
              "internalType": "uint256",
              "name": "arrivalTimestamp",
              "type": "uint256"
            }
          ],
          "stateMutability": "view",
          "type": "function"
        },
        {
          "inputs": [],
          "name": "treasuryAddress",
          "outputs": [
            {
              "internalType": "address",
              "name": "",
              "type": "address"
            }
          ],
          "stateMutability": "view",
          "type": "function"
        },
        {
          "inputs": [],
          "name": "usdcToken",
          "outputs": [
            {
              "internalType": "contract IERC20",
              "name": "",
              "type": "address"
            }
          ],
          "stateMutability": "view",
          "type": "function"
        }
      ],
      "evm": {
        "bytecode": {
          "linkReferences": {},
          "object": "6080604052346103c557612a5f80380380610019816103e0565b92833981019060a0818303126103c55761003281610405565b9061003f60208201610405565b9061004c60408201610405565b60608201519091906001600160401b0381116103c55781019480601f870112156103c5578551956001600160401b0387116103ca578660051b906020806100948185016103e0565b809a815201928201019283116103c557602001905b8282106103ad57505050608001516001600055926001600160a01b0316918215610378576001600160a01b0316908115610342576001600160a01b031691821561030a5783156102c5578385511061028c5760018060a01b0319600a541617600a5560018060a01b0319600854161760085560018060a01b03196009541617600955600d556000905b805182101561027657600582901b810160200151600092906001600160a01b0316801561024557808452600c60205260ff60408520541661020e57600b54680100000000000000008110156101fa576001810180600b558110156101e6577f0175b7a638427703f0dbe7bb9bbf987a2551717b34e79f33b5b1008d1fa01db90180546001600160a01b031916821790558352600c6020526040909220805460ff191660019081179091559190910190610132565b634e487b7160e01b85526032600452602485fd5b634e487b7160e01b85526041600452602485fd5b60405162461bcd60e51b815260206004820152600f60248201526e323ab83634b1b0ba329030b236b4b760891b6044820152606490fd5b60405162461bcd60e51b81526020600482015260096024820152683130b21030b236b4b760b91b6044820152606490fd5b62015180600e55604051612645908161041a8239f35b60405162461bcd60e51b81526020600482015260116024820152706e6f7420656e6f7567682061646d696e7360781b6044820152606490fd5b60405162461bcd60e51b815260206004820152601e60248201527f726571756972656420617070726f76616c73206d757374206265203e203000006044820152606490fd5b60405162461bcd60e51b815260206004820152601060248201526f696e76616c696420747265617375727960801b6044820152606490fd5b60405162461bcd60e51b815260206004820152600e60248201526d696e76616c6964206f7261636c6560901b6044820152606490fd5b60405162461bcd60e51b815260206004820152600d60248201526c34b73b30b634b2103a37b5b2b760991b6044820152606490fd5b602080916103ba84610405565b8152019101906100a9565b600080fd5b634e487b7160e01b600052604160045260246000fd5b6040519190601f01601f191682016001600160401b038111838210176103ca57604052565b51906001600160a01b03821682036103c55756fe6080604052600436101561001257600080fd5b60003560e01c80630d6043c614611bc857806311eac85514611b9f57806314bfd6d014611b5d57806318c2740414611ae05780631e6c598e14611a1d57806324d7806c146119de5780632507cde11461142b57806327d00fb0146113025780632a3ecca1146112b55780635c04d8ca14611297578063660d15b51461069a5780636726b9db146110f95780636de2a4f014610fb7578063749511b114610e475780637d36f4d314610e295780637ecebe00146109b957806399c1aadc14610e0b5780639a1fdd7914610ded578063a097760414610da0578063a48448fe14610d23578063a89ae4ba14610cfa578063a94c8f3d14610c7e578063ae7784d714610b92578063b9bcaf2114610a84578063c194bb4e14610a69578063c5f956af14610a40578063c5fa4a98146109f3578063d371cf72146109b9578063d6d81fa3146107e4578063daa07856146106d6578063e57a7e35146106b8578063ea4aa0161461069a578063ec9d151714610534578063ede25b9d1461044e578063f565776d14610207578063f585dc57146101e95763ff0c4ee5146101b357600080fd5b346101e45760203660031901126101e4576004356000526006602052602060ff604060002054166040519015158152f35b600080fd5b346101e45760003660031901126101e4576020604051620151808152f35b346101e45760403660031901126101e45760043560243560028110156101e45733600052600c60205261024160ff60406000205416611dbd565b61024e6002548310611f5c565b81600052600160205260ff6002604060002001541660058110156104385760036102789114611ec2565b81600052600660205260ff604060002054166103fa576007549061029b82611f40565b600755604051926102ab84611d72565b8084526020840193600094838152604082016001815260608301878152608084019142835260a0850193338552888a52600460205260408a209551865560018601905160028110156103e6576005938b969360409896936103349360209e5060ff80198354169116179055516002870155511515600386019060ff801983541691151516179055565b51600484015551910180546001600160a01b0319166001600160a01b0392909216919091179055848152600586528181203382528652818120805460ff199081166001908117909255848352600688529290912080549092161790556040519161039f908390611db0565b827f169133ad218243916e40f5d940b11e6662965ad0b9436428ec3ec92af6593fbb853394a46001600d54146103d8575b604051908152f35b6103e181612256565b6103d0565b634e487b7160e01b8b52602160045260248bfd5b60405162461bcd60e51b81526020600482015260166024820152756163746976652070726f706f73616c2065786973747360501b6044820152606490fd5b634e487b7160e01b600052602160045260246000fd5b346101e45760203660031901126101e45760043533600052600c60205261047c60ff60406000205416611dbd565b6104896011548210611df6565b600052600f60205260406000206104a560038201541515611e37565b60028101600181546104ba60ff821615611e83565b6104d0828501546104c9612199565b11156121ae565b6104e060048501544210156121f1565b60ff19161790556008805482546001600160a01b031982166001600160a01b03918216179092559154811691167f078c3b417dadf69374a59793b829c52001247130433427049317bde56607b1b7600080a3005b346101e45760203660031901126101e45760043533600052600c60205261056260ff60406000205416611dbd565b61056f6014548210611df6565b6000526012602052604060002061058b60038201541515611e37565b6002810180549061059f60ff831615611e83565b6105af60018401546104c9612199565b6105bf60048401544210156121f1565b82546001600160a01b0316916001906105d984151561205e565b83600052600c6020526105f460ff604060002054161561209a565b60ff1916179055600b54680100000000000000008110156106845780600161061f9201600b55611d15565b815460039190911b92831b6001600160a01b039384901b19909116179055815481166000908152600c60205260408120805460ff19166001179055915416907f44d6d25963f097ad14f29f06854a01f575648a1ef82f30e562ccd3889717e3399080a2005b634e487b7160e01b600052604160045260246000fd5b346101e45760003660031901126101e4576020600254604051908152f35b346101e45760003660031901126101e4576020601154604051908152f35b346101e45760203660031901126101e45760043533600052600c60205261070460ff60406000205416611dbd565b6107116014548210611df6565b8060005260126020526001604060002061073060038201541515611e37565b61074160ff60028301541615611e83565b8260005260136020526040600020828060a01b03331660005260205261076f60ff6040600020541615611f01565b8260005260136020526040600020828060a01b03331660005260205260406000208260ff1982541617905501906107a68254611f40565b8092556107b1612199565b60405192835260208301527fb8cacf822d821b4e79cb750d1368c77e7e7ec2aee16f886327cd7c756f47c22360403393a3005b346101e45760203660031901126101e4576107fd611d46565b33600052600c60205261081760ff60406000205416611dbd565b6001600160a01b03168015610983576008546001600160a01b0316811461095057602090610850600b54610849612199565b11156120d6565b6011549061085d82611f40565b6011556108af61086f600e5442611f4f565b6040519061087c82611d72565b8382526001868301526000604083015242606083015260808201523360a082015283600052600f85526040600020612118565b600082815260108452604080822033808452908652818320805460ff19166001179055848352600f86529181902060040154905190815283907ff1bdcf91e0f6365fc28fe4cfffca64d447f8f307ab297f61c65f9b008e6b6e65908690a4610915612199565b604051906001825283820152817ff39407f640014cb0220c4f7b0a6cc6acee38a440a8add233fa88e8c98b95b25c60403393a3604051908152f35b60405162461bcd60e51b815260206004820152600b60248201526a73616d65206f7261636c6560a81b6044820152606490fd5b60405162461bcd60e51b815260206004820152600e60248201526d696e76616c6964206f7261636c6560901b6044820152606490fd5b346101e45760203660031901126101e4576001600160a01b036109da611d46565b1660005260036020526020604060002054604051908152f35b346101e45760403660031901126101e457610a0c611d5c565b600435600052601360205260406000209060018060a01b0316600052602052602060ff604060002054166040519015158152f35b346101e45760003660031901126101e4576009546040516001600160a01b039091168152602090f35b346101e45760003660031901126101e45760206103d0612199565b346101e45760203660031901126101e45760043533600052600c602052610ab260ff60406000205416611dbd565b610abf6011548210611df6565b80600052600f60205260016040600020610ade60038201541515611e37565b610aef60ff60028301541615611e83565b8260005260106020526040600020828060a01b033316600052602052610b1d60ff6040600020541615611f01565b8260005260106020526040600020828060a01b03331660005260205260406000208260ff198254161790550190610b548254611f40565b809255610b5f612199565b60405192835260208301527ff39407f640014cb0220c4f7b0a6cc6acee38a440a8add233fa88e8c98b95b25c60403393a3005b346101e45760203660031901126101e457600435610bbb60018060a01b03600854163314612024565b610bc3612234565b610bd06002548210611f5c565b80600052600160205260406000206002810160ff815416600581101561043857600103610c3957600260ff19825416179055600a429101557f86b04a9027748794b50d55160e5a9fe6b0375cd3221e0d4776f9e053f7ef6d046020604051428152a26001600055005b60405162461bcd60e51b815260206004820152601960248201527f737461747573206d75737420626520494e5f5452414e534954000000000000006044820152606490fd5b346101e45760203660031901126101e457600435600052600460205260c0604060002080549060ff60018201541690600281015460ff60038301541690610ce2600484015493600560018060a01b0391015416946040519687526020870190611db0565b604085015215156060840152608083015260a0820152f35b346101e45760003660031901126101e4576008546040516001600160a01b039091168152602090f35b346101e45760203660031901126101e4576004803560009081526012602090815260409182902080546001820154600283015460038401549684015460059094015486516001600160a01b0394851681529586019290925260ff1615159484019490945260608301949094526080820152911660a082015260c090f35b346101e45760403660031901126101e457610db9611d5c565b600435600052600560205260406000209060018060a01b0316600052602052602060ff604060002054166040519015158152f35b346101e45760003660031901126101e4576020600e54604051908152f35b346101e45760003660031901126101e4576020600d54604051908152f35b346101e45760003660031901126101e4576020600754604051908152f35b346101e45760203660031901126101e4576020610e62611d46565b33600052600c8252610e7b60ff60406000205416611dbd565b6001600160a01b0316610e8f81151561205e565b80600052600c8252610ea960ff604060002054161561209a565b610eb7600b54610849612199565b60145490610ec482611f40565b601455610f16610ed6600e5442611f4f565b60405190610ee382611d72565b8382526001868301526000604083015242606083015260808201523360a082015283600052601285526040600020612118565b600082815260138452604080822033808452908652818320805460ff19166001179055848352601286529181902060040154905190815283907f959284814070c6c3a0c8b0ce10f8406a2a5cfe5cc3a7d157ad2ba850026aee64908690a4610f7c612199565b604051906001825283820152817fb8cacf822d821b4e79cb750d1368c77e7e7ec2aee16f886327cd7c756f47c22360403393a3604051908152f35b346101e45760203660031901126101e457600435610fd3612234565b610fe06002548210611f5c565b8060005260016020526040600020906002820160ff815416600581101561043857600261100d9114611f9a565b600a83015461101d811515611fe6565b6201518081018091116110e3574211156110a957805460ff19166004179055600a546003830180546008909401805490947f525d8c9a3bdfd74e1b0f3f79ccf0ef47d77d261e27396b35539f75e5d4086106936020939261108c9290916001600160a01b039182169116612434565b5493546040519081526001600160a01b0390941693a36001600055005b60405162461bcd60e51b81526020600482015260126024820152711dda5b991bddc81b9bdd08195b185c1cd95960721b6044820152606490fd5b634e487b7160e01b600052601160045260246000fd5b346101e45760203660031901126101e45760043561112260018060a01b03600854163314612024565b61112a612234565b6111376002548210611f5c565b8060005260016020526040600020906002820160ff81541660058110156104385761125a57600160ff198254161790557f7fe4efc5647c551e3daa927b506b95903589ed6b18a37dbff54db80e7395239b602060018060a01b03600a541693600381016111b560018060a01b03825416966007840197885491612434565b600a546009546005840180549093926111da926001600160a01b039081169116612434565b600a5460095460069490940180549094611200926001600160a01b039182169116612434565b549554600954915460408051928352858301919091526001600160a01b03928316978893169187917faf26bf705c48ad6f6bf63104d1d8b9f94dac03ba9c3ae49b34cd094cc8c3f6f691a454604051908152a36001600055005b60405162461bcd60e51b81526020600482015260156024820152741cdd185d1d5cc81b5d5cdd081899481313d0d2d151605a1b6044820152606490fd5b346101e45760003660031901126101e4576020601454604051908152f35b346101e45760403660031901126101e4576112ce611d5c565b600435600052601060205260406000209060018060a01b0316600052602052602060ff604060002054166040519015158152f35b346101e45760203660031901126101e45760043561131e612234565b61132b6002548210611f5c565b8060005260016020526040600020600281019081543360018060a01b038260081c16036113f95760ff169060058210156104385761136d6002600a9314611f9a565b015461137a811515611fe6565b6201518081018091116110e35742116113c457805460ff191660031790557fb145240944e8bfe8998e31f11365578b766764ed1255b8e2efcb56e741b7be18600080a26001600055005b60405162461bcd60e51b815260206004820152600d60248201526c1dda5b991bddc818db1bdcd959609a1b6044820152606490fd5b60405162461bcd60e51b815260206004820152600a60248201526937b7363c90313abcb2b960b11b6044820152606490fd5b346101e4576101403660031901126101e457611445611d46565b60e435610124356101043567ffffffffffffffff82116101e457366023830112156101e457816004013567ffffffffffffffff81116106845760405192611496601f8301601f191660200185611d8e565b81845236602483830101116101e4578160009260246020930183870137840101526114bf612234565b60c43515611999576001600160a01b03841615611960576114f560a4356114f06084356114f0606435604435611f4f565b611f4f565b602435036119265760843515158061191b575b156118df5733600052600360205260406000205483036118ae578042116118755761160d916116049160018060a01b03600954169060405190602082019246845230604084015233606084015260018060a01b038916608084015260a083015260243560c083015260443560e083015260643561010083015260843561012083015260a43561014083015260c435610160830152866101808301526101a08201526101a081526115ba6101c082611d8e565b51902060405160208101917f19457468657265756d205369676e6564204d6573736167653a0a3332000000008352603c820152603c81526115fc605c82611d8e565b5190206124d8565b90929192612514565b336001600160a01b039091160361184057600181018091116110e35733600052600360205260406000205560025461164481611f40565b60025560405191610180830183811067ffffffffffffffff821117610684576040528183526020830160c43581526040840160008152336060860152608085019060018060a01b038416825260243560a087015260443560c087015260643560e087015260843561010087015260a435610120870152426101408701526000610160870152846000526001602052604060002092865184555160018401555160058110156104385760028301805460608801516001600160a81b031990911660ff90931692909217600892831b610100600160a81b031617905590516003830180546001600160a01b0319166001600160a01b0392831617905560a0860151600484015560c0860151600584015560e08601516006840155610100860151600784015561012086015191830191909155610140850151600983015561016090940151600a91820155546040516323b872dd60e01b60208281019190915233602480840191909152306044840152356064808401919091528252946117d392166117ce608483611d8e565b612471565b604051906024358252604435848301526064356040830152608435606083015260a435608083015260c43560a083015260018060a01b031690827f9896188f7299b6607b47eaa190d500bf89abbfa1bb2ce6d410f88b043e371b6760c03393a46001600055604051908152f35b60405162461bcd60e51b815260206004820152600d60248201526c626164207369676e617475726560981b6044820152606490fd5b60405162461bcd60e51b81526020600482015260116024820152701cda59db985d1d5c9948195e1c1a5c9959607a1b6044820152606490fd5b60405162461bcd60e51b8152602060048201526009602482015268626164206e6f6e636560b81b6044820152606490fd5b60405162461bcd60e51b815260206004820152601460248201527307472616e63686573206d757374206265203e20360641b6044820152606490fd5b5060a4351515611508565b60405162461bcd60e51b81526020600482015260126024820152710c4e4cac2d6c8deeedc40dad2e6dac2e8c6d60731b6044820152606490fd5b60405162461bcd60e51b81526020600482015260116024820152701cdd5c1c1b1a595c881c995c5d5a5c9959607a1b6044820152606490fd5b60405162461bcd60e51b815260206004820152601760248201527f72696361726469616e20686173682072657175697265640000000000000000006044820152606490fd5b346101e45760203660031901126101e4576001600160a01b036119ff611d46565b16600052600c602052602060ff604060002054166040519015158152f35b346101e45760203660031901126101e457600435600052600160205260406000208054600182015460028301549260ff84169360018060a01b0360038301541660048301546005840154600685015491600786015493600887015495600a6009890154980154986040519a8b5260208b015260058b1015610438576101809a60408b015260018060a01b039060081c1660608a0152608089015260a088015260c087015260e0860152610100850152610120840152610140830152610160820152f35b346101e45760203660031901126101e457600480356000908152600f602090815260409182902080546001820154600283015460038401549684015460059094015486516001600160a01b0394851681529586019290925260ff1615159484019490945260608301949094526080820152911660a082015260c090f35b346101e45760203660031901126101e457600435600b548110156101e457611b86602091611d15565b905460405160039290921b1c6001600160a01b03168152f35b346101e45760003660031901126101e457600a546040516001600160a01b039091168152602090f35b346101e45760203660031901126101e45760043533600052600c602052611bf660ff60406000205416611dbd565b611bfe612234565b611c0b6007548210611df6565b8060005260046020526040600020611c2860048201541515611e37565b611c3960ff60038301541615611e83565b8054600052600160205260ff6002604060002001541690600582101561043857611c67600360029314611ec2565b6000838152600560209081526040808320338452909152902054611c8e9060ff1615611f01565b60008381526005602090815260408083203384529091529020805460ff19166001179055018054611cbe90611f40565b809155600d5490604051818152826020820152837f14e1b3091f09f49236e90d7a9826aa647e37c8b8600adc8a5935ee0c179e2de160403393a31015611d06575b6001600055005b611d0f90612256565b80611cff565b600b54811015611d3057600b60005260206000200190600090565b634e487b7160e01b600052603260045260246000fd5b600435906001600160a01b03821682036101e457565b602435906001600160a01b03821682036101e457565b60c0810190811067ffffffffffffffff82111761068457604052565b90601f8019910116810190811067ffffffffffffffff82111761068457604052565b9060028210156104385752565b15611dc457565b60405162461bcd60e51b815260206004820152600a60248201526937b7363c9030b236b4b760b11b6044820152606490fd5b15611dfd57565b60405162461bcd60e51b81526020600482015260126024820152711c1c9bdc1bdcd85b081b9bdd08199bdd5b9960721b6044820152606490fd5b15611e3e57565b60405162461bcd60e51b815260206004820152601860248201527f70726f706f73616c206e6f7420696e697469616c697a656400000000000000006044820152606490fd5b15611e8a57565b60405162461bcd60e51b815260206004820152601060248201526f185b1c9958591e48195e1958dd5d195960821b6044820152606490fd5b15611ec957565b60405162461bcd60e51b815260206004820152601060248201526f3a3930b232903737ba10333937bd32b760811b6044820152606490fd5b15611f0857565b60405162461bcd60e51b815260206004820152601060248201526f185b1c9958591e48185c1c1c9bdd995960821b6044820152606490fd5b60001981146110e35760010190565b919082018092116110e357565b15611f6357565b60405162461bcd60e51b815260206004820152600f60248201526e1d1c985919481b9bdd08199bdd5b99608a1b6044820152606490fd5b15611fa157565b60405162461bcd60e51b815260206004820152601960248201527f6d757374206265204152524956414c5f434f4e4649524d4544000000000000006044820152606490fd5b15611fed57565b60405162461bcd60e51b815260206004820152600f60248201526e185c9c9a5d985b081b9bdd081cd95d608a1b6044820152606490fd5b1561202b57565b60405162461bcd60e51b815260206004820152600b60248201526a6f6e6c79206f7261636c6560a81b6044820152606490fd5b1561206557565b60405162461bcd60e51b815260206004820152600d60248201526c34b73b30b634b21030b236b4b760991b6044820152606490fd5b156120a157565b60405162461bcd60e51b815260206004820152600d60248201526c30b63932b0b23c9030b236b4b760991b6044820152606490fd5b156120dd57565b60405162461bcd60e51b8152602060048201526013602482015272696e73756666696369656e742061646d696e7360681b6044820152606490fd5b815181546001600160a01b039091166001600160a01b031990911617815560208201516001820155604082015160028201805460ff191691151560ff1691909117905590600590606081015160038401556080810151600484015560a00151910180546001600160a01b0319166001600160a01b0392909216919091179055565b600d5460028110156121ab5750600290565b90565b156121b557565b60405162461bcd60e51b81526020600482015260146024820152736e6f7420656e6f75676820617070726f76616c7360601b6044820152606490fd5b156121f857565b60405162461bcd60e51b81526020600482015260146024820152731d1a5b595b1bd8dac81b9bdd08195b185c1cd95960621b6044820152606490fd5b600260005414612245576002600055565b633ee5aeb560e01b60005260046000fd5b8060005260046020526040600020906003820180549261227960ff851615611e83565b61228b6002820154600d5411156121ae565b80546000526001602052604060002091600283019460ff8654166005811015610438576003036123f85760019060ff1916179055600460ff1985541617845580546000526006602052604060002060ff198154169055600181019360ff8554166002811015610438578061235b5750600a5490546008938401547f367ef6da4bd64313a89876ecb2e42b4be35f68f378625be0d78dcd15eba27dd09460209460ff94909361234793921c6001600160a01b039081169116612434565b549454166123586040518092611db0565ba3565b6001141590506123ba57600a5460038301546008909301547f367ef6da4bd64313a89876ecb2e42b4be35f68f378625be0d78dcd15eba27dd09360209360ff9390926123b59290916001600160a01b039182169116612434565b612347565b60405162461bcd60e51b8152602060048201526016602482015275696e76616c696420646973707574652073746174757360501b6044820152606490fd5b60405162461bcd60e51b81526020600482015260146024820152733a3930b2329036bab9ba10313290232927ad22a760611b6044820152606490fd5b60405163a9059cbb60e01b60208201526001600160a01b03909216602483015260448083019390935291815261246f916117ce606483611d8e565b565b906000602091828151910182855af1156124cc576000513d6124c357506001600160a01b0381163b155b6124a25750565b635274afe760e01b60009081526001600160a01b0391909116600452602490fd5b6001141561249b565b6040513d6000823e3d90fd5b81519190604183036125095761250292506020820151906060604084015193015160001a90612586565b9192909190565b505060009160029190565b9190916004811015610438578061252a57509050565b6000600182036125455763f645eedf60e01b60005260046000fd5b5060028103612563578263fce698f760e01b60005260045260246000fd5b9091600360009214612573575050565b6335e2f38360e21b825260045260249150fd5b91907f7fffffffffffffffffffffffffffffff5d576e7357a4501ddfe92f46681b20a08411612603579160209360809260ff60009560405194855216868401526040830152606082015282805260015afa156124cc576000516001600160a01b038116156125f75790600090600090565b50600090600190600090565b5050506000916003919056fea2646970667358221220244bd6ceaf3d36042d95e8ceb56a1a731feff5c52bff53f8e7075aef43c186eb64736f6c634300081c0033",
          "opcodes": "PUSH1 0x80 PUSH1 0x40 MSTORE CALLVALUE PUSH2 0x3C5 JUMPI PUSH2 0x2A5F DUP1 CODESIZE SUB DUP1 PUSH2 0x19 DUP2 PUSH2 0x3E0 JUMP JUMPDEST SWAP3 DUP4 CODECOPY DUP2 ADD SWAP1 PUSH1 0xA0 DUP2 DUP4 SUB SLT PUSH2 0x3C5 JUMPI PUSH2 0x32 DUP2 PUSH2 0x405 JUMP JUMPDEST SWAP1 PUSH2 0x3F PUSH1 0x20 DUP3 ADD PUSH2 0x405 JUMP JUMPDEST SWAP1 PUSH2 0x4C PUSH1 0x40 DUP3 ADD PUSH2 0x405 JUMP JUMPDEST PUSH1 0x60 DUP3 ADD MLOAD SWAP1 SWAP2 SWAP1 PUSH1 0x1 PUSH1 0x1 PUSH1 0x40 SHL SUB DUP2 GT PUSH2 0x3C5 JUMPI DUP2 ADD SWAP5 DUP1 PUSH1 0x1F DUP8 ADD SLT ISZERO PUSH2 0x3C5 JUMPI DUP6 MLOAD SWAP6 PUSH1 0x1 PUSH1 0x1 PUSH1 0x40 SHL SUB DUP8 GT PUSH2 0x3CA JUMPI DUP7 PUSH1 0x5 SHL SWAP1 PUSH1 0x20 DUP1 PUSH2 0x94 DUP2 DUP6 ADD PUSH2 0x3E0 JUMP JUMPDEST DUP1 SWAP11 DUP2 MSTORE ADD SWAP3 DUP3 ADD ADD SWAP3 DUP4 GT PUSH2 0x3C5 JUMPI PUSH1 0x20 ADD SWAP1 JUMPDEST DUP3 DUP3 LT PUSH2 0x3AD JUMPI POP POP POP PUSH1 0x80 ADD MLOAD PUSH1 0x1 PUSH1 0x0 SSTORE SWAP3 PUSH1 0x1 PUSH1 0x1 PUSH1 0xA0 SHL SUB AND SWAP2 DUP3 ISZERO PUSH2 0x378 JUMPI PUSH1 0x1 PUSH1 0x1 PUSH1 0xA0 SHL SUB AND SWAP1 DUP2 ISZERO PUSH2 0x342 JUMPI PUSH1 0x1 PUSH1 0x1 PUSH1 0xA0 SHL SUB AND SWAP2 DUP3 ISZERO PUSH2 0x30A JUMPI DUP4 ISZERO PUSH2 0x2C5 JUMPI DUP4 DUP6 MLOAD LT PUSH2 0x28C JUMPI PUSH1 0x1 DUP1 PUSH1 0xA0 SHL SUB NOT PUSH1 0xA SLOAD AND OR PUSH1 0xA SSTORE PUSH1 0x1 DUP1 PUSH1 0xA0 SHL SUB NOT PUSH1 0x8 SLOAD AND OR PUSH1 0x8 SSTORE PUSH1 0x1 DUP1 PUSH1 0xA0 SHL SUB NOT PUSH1 0x9 SLOAD AND OR PUSH1 0x9 SSTORE PUSH1 0xD SSTORE PUSH1 0x0 SWAP1 JUMPDEST DUP1 MLOAD DUP3 LT ISZERO PUSH2 0x276 JUMPI PUSH1 0x5 DUP3 SWAP1 SHL DUP2 ADD PUSH1 0x20 ADD MLOAD PUSH1 0x0 SWAP3 SWAP1 PUSH1 0x1 PUSH1 0x1 PUSH1 0xA0 SHL SUB AND DUP1 ISZERO PUSH2 0x245 JUMPI DUP1 DUP5 MSTORE PUSH1 0xC PUSH1 0x20 MSTORE PUSH1 0xFF PUSH1 0x40 DUP6 KECCAK256 SLOAD AND PUSH2 0x20E JUMPI PUSH1 0xB SLOAD PUSH9 0x10000000000000000 DUP2 LT ISZERO PUSH2 0x1FA JUMPI PUSH1 0x1 DUP2 ADD DUP1 PUSH1 0xB SSTORE DUP2 LT ISZERO PUSH2 0x1E6 JUMPI PUSH32 0x175B7A638427703F0DBE7BB9BBF987A2551717B34E79F33B5B1008D1FA01DB9 ADD DUP1 SLOAD PUSH1 0x1 PUSH1 0x1 PUSH1 0xA0 SHL SUB NOT AND DUP3 OR SWAP1 SSTORE DUP4 MSTORE PUSH1 0xC PUSH1 0x20 MSTORE PUSH1 0x40 SWAP1 SWAP3 KECCAK256 DUP1 SLOAD PUSH1 0xFF NOT AND PUSH1 0x1 SWAP1 DUP2 OR SWAP1 SWAP2 SSTORE SWAP2 SWAP1 SWAP2 ADD SWAP1 PUSH2 0x132 JUMP JUMPDEST PUSH4 0x4E487B71 PUSH1 0xE0 SHL DUP6 MSTORE PUSH1 0x32 PUSH1 0x4 MSTORE PUSH1 0x24 DUP6 REVERT JUMPDEST PUSH4 0x4E487B71 PUSH1 0xE0 SHL DUP6 MSTORE PUSH1 0x41 PUSH1 0x4 MSTORE PUSH1 0x24 DUP6 REVERT JUMPDEST PUSH1 0x40 MLOAD PUSH3 0x461BCD PUSH1 0xE5 SHL DUP2 MSTORE PUSH1 0x20 PUSH1 0x4 DUP3 ADD MSTORE PUSH1 0xF PUSH1 0x24 DUP3 ADD MSTORE PUSH15 0x323AB83634B1B0BA329030B236B4B7 PUSH1 0x89 SHL PUSH1 0x44 DUP3 ADD MSTORE PUSH1 0x64 SWAP1 REVERT JUMPDEST PUSH1 0x40 MLOAD PUSH3 0x461BCD PUSH1 0xE5 SHL DUP2 MSTORE PUSH1 0x20 PUSH1 0x4 DUP3 ADD MSTORE PUSH1 0x9 PUSH1 0x24 DUP3 ADD MSTORE PUSH9 0x3130B21030B236B4B7 PUSH1 0xB9 SHL PUSH1 0x44 DUP3 ADD MSTORE PUSH1 0x64 SWAP1 REVERT JUMPDEST PUSH3 0x15180 PUSH1 0xE SSTORE PUSH1 0x40 MLOAD PUSH2 0x2645 SWAP1 DUP2 PUSH2 0x41A DUP3 CODECOPY RETURN JUMPDEST PUSH1 0x40 MLOAD PUSH3 0x461BCD PUSH1 0xE5 SHL DUP2 MSTORE PUSH1 0x20 PUSH1 0x4 DUP3 ADD MSTORE PUSH1 0x11 PUSH1 0x24 DUP3 ADD MSTORE PUSH17 0x6E6F7420656E6F7567682061646D696E73 PUSH1 0x78 SHL PUSH1 0x44 DUP3 ADD MSTORE PUSH1 0x64 SWAP1 REVERT JUMPDEST PUSH1 0x40 MLOAD PUSH3 0x461BCD PUSH1 0xE5 SHL DUP2 MSTORE PUSH1 0x20 PUSH1 0x4 DUP3 ADD MSTORE PUSH1 0x1E PUSH1 0x24 DUP3 ADD MSTORE PUSH32 0x726571756972656420617070726F76616C73206D757374206265203E20300000 PUSH1 0x44 DUP3 ADD MSTORE PUSH1 0x64 SWAP1 REVERT JUMPDEST PUSH1 0x40 MLOAD PUSH3 0x461BCD PUSH1 0xE5 SHL DUP2 MSTORE PUSH1 0x20 PUSH1 0x4 DUP3 ADD MSTORE PUSH1 0x10 PUSH1 0x24 DUP3 ADD MSTORE PUSH16 0x696E76616C6964207472656173757279 PUSH1 0x80 SHL PUSH1 0x44 DUP3 ADD MSTORE PUSH1 0x64 SWAP1 REVERT JUMPDEST PUSH1 0x40 MLOAD PUSH3 0x461BCD PUSH1 0xE5 SHL DUP2 MSTORE PUSH1 0x20 PUSH1 0x4 DUP3 ADD MSTORE PUSH1 0xE PUSH1 0x24 DUP3 ADD MSTORE PUSH14 0x696E76616C6964206F7261636C65 PUSH1 0x90 SHL PUSH1 0x44 DUP3 ADD MSTORE PUSH1 0x64 SWAP1 REVERT JUMPDEST PUSH1 0x40 MLOAD PUSH3 0x461BCD PUSH1 0xE5 SHL DUP2 MSTORE PUSH1 0x20 PUSH1 0x4 DUP3 ADD MSTORE PUSH1 0xD PUSH1 0x24 DUP3 ADD MSTORE PUSH13 0x34B73B30B634B2103A37B5B2B7 PUSH1 0x99 SHL PUSH1 0x44 DUP3 ADD MSTORE PUSH1 0x64 SWAP1 REVERT JUMPDEST PUSH1 0x20 DUP1 SWAP2 PUSH2 0x3BA DUP5 PUSH2 0x405 JUMP JUMPDEST DUP2 MSTORE ADD SWAP2 ADD SWAP1 PUSH2 0xA9 JUMP JUMPDEST PUSH1 0x0 DUP1 REVERT JUMPDEST PUSH4 0x4E487B71 PUSH1 0xE0 SHL PUSH1 0x0 MSTORE PUSH1 0x41 PUSH1 0x4 MSTORE PUSH1 0x24 PUSH1 0x0 REVERT JUMPDEST PUSH1 0x40 MLOAD SWAP2 SWAP1 PUSH1 0x1F ADD PUSH1 0x1F NOT AND DUP3 ADD PUSH1 0x1 PUSH1 0x1 PUSH1 0x40 SHL SUB DUP2 GT DUP4 DUP3 LT OR PUSH2 0x3CA JUMPI PUSH1 0x40 MSTORE JUMP JUMPDEST MLOAD SWAP1 PUSH1 0x1 PUSH1 0x1 PUSH1 0xA0 SHL SUB DUP3 AND DUP3 SUB PUSH2 0x3C5 JUMPI JUMP INVALID PUSH1 0x80 PUSH1 0x40 MSTORE PUSH1 0x4 CALLDATASIZE LT ISZERO PUSH2 0x12 JUMPI PUSH1 0x0 DUP1 REVERT JUMPDEST PUSH1 0x0 CALLDATALOAD PUSH1 0xE0 SHR DUP1 PUSH4 0xD6043C6 EQ PUSH2 0x1BC8 JUMPI DUP1 PUSH4 0x11EAC855 EQ PUSH2 0x1B9F JUMPI DUP1 PUSH4 0x14BFD6D0 EQ PUSH2 0x1B5D JUMPI DUP1 PUSH4 0x18C27404 EQ PUSH2 0x1AE0 JUMPI DUP1 PUSH4 0x1E6C598E EQ PUSH2 0x1A1D JUMPI DUP1 PUSH4 0x24D7806C EQ PUSH2 0x19DE JUMPI DUP1 PUSH4 0x2507CDE1 EQ PUSH2 0x142B JUMPI DUP1 PUSH4 0x27D00FB0 EQ PUSH2 0x1302 JUMPI DUP1 PUSH4 0x2A3ECCA1 EQ PUSH2 0x12B5 JUMPI DUP1 PUSH4 0x5C04D8CA EQ PUSH2 0x1297 JUMPI DUP1 PUSH4 0x660D15B5 EQ PUSH2 0x69A JUMPI DUP1 PUSH4 0x6726B9DB EQ PUSH2 0x10F9 JUMPI DUP1 PUSH4 0x6DE2A4F0 EQ PUSH2 0xFB7 JUMPI DUP1 PUSH4 0x749511B1 EQ PUSH2 0xE47 JUMPI DUP1 PUSH4 0x7D36F4D3 EQ PUSH2 0xE29 JUMPI DUP1 PUSH4 0x7ECEBE00 EQ PUSH2 0x9B9 JUMPI DUP1 PUSH4 0x99C1AADC EQ PUSH2 0xE0B JUMPI DUP1 PUSH4 0x9A1FDD79 EQ PUSH2 0xDED JUMPI DUP1 PUSH4 0xA0977604 EQ PUSH2 0xDA0 JUMPI DUP1 PUSH4 0xA48448FE EQ PUSH2 0xD23 JUMPI DUP1 PUSH4 0xA89AE4BA EQ PUSH2 0xCFA JUMPI DUP1 PUSH4 0xA94C8F3D EQ PUSH2 0xC7E JUMPI DUP1 PUSH4 0xAE7784D7 EQ PUSH2 0xB92 JUMPI DUP1 PUSH4 0xB9BCAF21 EQ PUSH2 0xA84 JUMPI DUP1 PUSH4 0xC194BB4E EQ PUSH2 0xA69 JUMPI DUP1 PUSH4 0xC5F956AF EQ PUSH2 0xA40 JUMPI DUP1 PUSH4 0xC5FA4A98 EQ PUSH2 0x9F3 JUMPI DUP1 PUSH4 0xD371CF72 EQ PUSH2 0x9B9 JUMPI DUP1 PUSH4 0xD6D81FA3 EQ PUSH2 0x7E4 JUMPI DUP1 PUSH4 0xDAA07856 EQ PUSH2 0x6D6 JUMPI DUP1 PUSH4 0xE57A7E35 EQ PUSH2 0x6B8 JUMPI DUP1 PUSH4 0xEA4AA016 EQ PUSH2 0x69A JUMPI DUP1 PUSH4 0xEC9D1517 EQ PUSH2 0x534 JUMPI DUP1 PUSH4 0xEDE25B9D EQ PUSH2 0x44E JUMPI DUP1 PUSH4 0xF565776D EQ PUSH2 0x207 JUMPI DUP1 PUSH4 0xF585DC57 EQ PUSH2 0x1E9 JUMPI PUSH4 0xFF0C4EE5 EQ PUSH2 0x1B3 JUMPI PUSH1 0x0 DUP1 REVERT JUMPDEST CALLVALUE PUSH2 0x1E4 JUMPI PUSH1 0x20 CALLDATASIZE PUSH1 0x3 NOT ADD SLT PUSH2 0x1E4 JUMPI PUSH1 0x4 CALLDATALOAD PUSH1 0x0 MSTORE PUSH1 0x6 PUSH1 0x20 MSTORE PUSH1 0x20 PUSH1 0xFF PUSH1 0x40 PUSH1 0x0 KECCAK256 SLOAD AND PUSH1 0x40 MLOAD SWAP1 ISZERO ISZERO DUP2 MSTORE RETURN JUMPDEST PUSH1 0x0 DUP1 REVERT JUMPDEST CALLVALUE PUSH2 0x1E4 JUMPI PUSH1 0x0 CALLDATASIZE PUSH1 0x3 NOT ADD SLT PUSH2 0x1E4 JUMPI PUSH1 0x20 PUSH1 0x40 MLOAD PUSH3 0x15180 DUP2 MSTORE RETURN JUMPDEST CALLVALUE PUSH2 0x1E4 JUMPI PUSH1 0x40 CALLDATASIZE PUSH1 0x3 NOT ADD SLT PUSH2 0x1E4 JUMPI PUSH1 0x4 CALLDATALOAD PUSH1 0x24 CALLDATALOAD PUSH1 0x2 DUP2 LT ISZERO PUSH2 0x1E4 JUMPI CALLER PUSH1 0x0 MSTORE PUSH1 0xC PUSH1 0x20 MSTORE PUSH2 0x241 PUSH1 0xFF PUSH1 0x40 PUSH1 0x0 KECCAK256 SLOAD AND PUSH2 0x1DBD JUMP JUMPDEST PUSH2 0x24E PUSH1 0x2 SLOAD DUP4 LT PUSH2 0x1F5C JUMP JUMPDEST DUP2 PUSH1 0x0 MSTORE PUSH1 0x1 PUSH1 0x20 MSTORE PUSH1 0xFF PUSH1 0x2 PUSH1 0x40 PUSH1 0x0 KECCAK256 ADD SLOAD AND PUSH1 0x5 DUP2 LT ISZERO PUSH2 0x438 JUMPI PUSH1 0x3 PUSH2 0x278 SWAP2 EQ PUSH2 0x1EC2 JUMP JUMPDEST DUP2 PUSH1 0x0 MSTORE PUSH1 0x6 PUSH1 0x20 MSTORE PUSH1 0xFF PUSH1 0x40 PUSH1 0x0 KECCAK256 SLOAD AND PUSH2 0x3FA JUMPI PUSH1 0x7 SLOAD SWAP1 PUSH2 0x29B DUP3 PUSH2 0x1F40 JUMP JUMPDEST PUSH1 0x7 SSTORE PUSH1 0x40 MLOAD SWAP3 PUSH2 0x2AB DUP5 PUSH2 0x1D72 JUMP JUMPDEST DUP1 DUP5 MSTORE PUSH1 0x20 DUP5 ADD SWAP4 PUSH1 0x0 SWAP5 DUP4 DUP2 MSTORE PUSH1 0x40 DUP3 ADD PUSH1 0x1 DUP2 MSTORE PUSH1 0x60 DUP4 ADD DUP8 DUP2 MSTORE PUSH1 0x80 DUP5 ADD SWAP2 TIMESTAMP DUP4 MSTORE PUSH1 0xA0 DUP6 ADD SWAP4 CALLER DUP6 MSTORE DUP9 DUP11 MSTORE PUSH1 0x4 PUSH1 0x20 MSTORE PUSH1 0x40 DUP11 KECCAK256 SWAP6 MLOAD DUP7 SSTORE PUSH1 0x1 DUP7 ADD SWAP1 MLOAD PUSH1 0x2 DUP2 LT ISZERO PUSH2 0x3E6 JUMPI PUSH1 0x5 SWAP4 DUP12 SWAP7 SWAP4 PUSH1 0x40 SWAP9 SWAP7 SWAP4 PUSH2 0x334 SWAP4 PUSH1 0x20 SWAP15 POP PUSH1 0xFF DUP1 NOT DUP4 SLOAD AND SWAP2 AND OR SWAP1 SSTORE MLOAD PUSH1 0x2 DUP8 ADD SSTORE MLOAD ISZERO ISZERO PUSH1 0x3 DUP7 ADD SWAP1 PUSH1 0xFF DUP1 NOT DUP4 SLOAD AND SWAP2 ISZERO ISZERO AND OR SWAP1 SSTORE JUMP JUMPDEST MLOAD PUSH1 0x4 DUP5 ADD SSTORE MLOAD SWAP2 ADD DUP1 SLOAD PUSH1 0x1 PUSH1 0x1 PUSH1 0xA0 SHL SUB NOT AND PUSH1 0x1 PUSH1 0x1 PUSH1 0xA0 SHL SUB SWAP3 SWAP1 SWAP3 AND SWAP2 SWAP1 SWAP2 OR SWAP1 SSTORE DUP5 DUP2 MSTORE PUSH1 0x5 DUP7 MSTORE DUP2 DUP2 KECCAK256 CALLER DUP3 MSTORE DUP7 MSTORE DUP2 DUP2 KECCAK256 DUP1 SLOAD PUSH1 0xFF NOT SWAP1 DUP2 AND PUSH1 0x1 SWAP1 DUP2 OR SWAP1 SWAP3 SSTORE DUP5 DUP4 MSTORE PUSH1 0x6 DUP9 MSTORE SWAP3 SWAP1 SWAP2 KECCAK256 DUP1 SLOAD SWAP1 SWAP3 AND OR SWAP1 SSTORE PUSH1 0x40 MLOAD SWAP2 PUSH2 0x39F SWAP1 DUP4 SWAP1 PUSH2 0x1DB0 JUMP JUMPDEST DUP3 PUSH32 0x169133AD218243916E40F5D940B11E6662965AD0B9436428EC3EC92AF6593FBB DUP6 CALLER SWAP5 LOG4 PUSH1 0x1 PUSH1 0xD SLOAD EQ PUSH2 0x3D8 JUMPI JUMPDEST PUSH1 0x40 MLOAD SWAP1 DUP2 MSTORE RETURN JUMPDEST PUSH2 0x3E1 DUP2 PUSH2 0x2256 JUMP JUMPDEST PUSH2 0x3D0 JUMP JUMPDEST PUSH4 0x4E487B71 PUSH1 0xE0 SHL DUP12 MSTORE PUSH1 0x21 PUSH1 0x4 MSTORE PUSH1 0x24 DUP12 REVERT JUMPDEST PUSH1 0x40 MLOAD PUSH3 0x461BCD PUSH1 0xE5 SHL DUP2 MSTORE PUSH1 0x20 PUSH1 0x4 DUP3 ADD MSTORE PUSH1 0x16 PUSH1 0x24 DUP3 ADD MSTORE PUSH22 0x6163746976652070726F706F73616C20657869737473 PUSH1 0x50 SHL PUSH1 0x44 DUP3 ADD MSTORE PUSH1 0x64 SWAP1 REVERT JUMPDEST PUSH4 0x4E487B71 PUSH1 0xE0 SHL PUSH1 0x0 MSTORE PUSH1 0x21 PUSH1 0x4 MSTORE PUSH1 0x24 PUSH1 0x0 REVERT JUMPDEST CALLVALUE PUSH2 0x1E4 JUMPI PUSH1 0x20 CALLDATASIZE PUSH1 0x3 NOT ADD SLT PUSH2 0x1E4 JUMPI PUSH1 0x4 CALLDATALOAD CALLER PUSH1 0x0 MSTORE PUSH1 0xC PUSH1 0x20 MSTORE PUSH2 0x47C PUSH1 0xFF PUSH1 0x40 PUSH1 0x0 KECCAK256 SLOAD AND PUSH2 0x1DBD JUMP JUMPDEST PUSH2 0x489 PUSH1 0x11 SLOAD DUP3 LT PUSH2 0x1DF6 JUMP JUMPDEST PUSH1 0x0 MSTORE PUSH1 0xF PUSH1 0x20 MSTORE PUSH1 0x40 PUSH1 0x0 KECCAK256 PUSH2 0x4A5 PUSH1 0x3 DUP3 ADD SLOAD ISZERO ISZERO PUSH2 0x1E37 JUMP JUMPDEST PUSH1 0x2 DUP2 ADD PUSH1 0x1 DUP2 SLOAD PUSH2 0x4BA PUSH1 0xFF DUP3 AND ISZERO PUSH2 0x1E83 JUMP JUMPDEST PUSH2 0x4D0 DUP3 DUP6 ADD SLOAD PUSH2 0x4C9 PUSH2 0x2199 JUMP JUMPDEST GT ISZERO PUSH2 0x21AE JUMP JUMPDEST PUSH2 0x4E0 PUSH1 0x4 DUP6 ADD SLOAD TIMESTAMP LT ISZERO PUSH2 0x21F1 JUMP JUMPDEST PUSH1 0xFF NOT AND OR SWAP1 SSTORE PUSH1 0x8 DUP1 SLOAD DUP3 SLOAD PUSH1 0x1 PUSH1 0x1 PUSH1 0xA0 SHL SUB NOT DUP3 AND PUSH1 0x1 PUSH1 0x1 PUSH1 0xA0 SHL SUB SWAP2 DUP3 AND OR SWAP1 SWAP3 SSTORE SWAP2 SLOAD DUP2 AND SWAP2 AND PUSH32 0x78C3B417DADF69374A59793B829C52001247130433427049317BDE56607B1B7 PUSH1 0x0 DUP1 LOG3 STOP JUMPDEST CALLVALUE PUSH2 0x1E4 JUMPI PUSH1 0x20 CALLDATASIZE PUSH1 0x3 NOT ADD SLT PUSH2 0x1E4 JUMPI PUSH1 0x4 CALLDATALOAD CALLER PUSH1 0x0 MSTORE PUSH1 0xC PUSH1 0x20 MSTORE PUSH2 0x562 PUSH1 0xFF PUSH1 0x40 PUSH1 0x0 KECCAK256 SLOAD AND PUSH2 0x1DBD JUMP JUMPDEST PUSH2 0x56F PUSH1 0x14 SLOAD DUP3 LT PUSH2 0x1DF6 JUMP JUMPDEST PUSH1 0x0 MSTORE PUSH1 0x12 PUSH1 0x20 MSTORE PUSH1 0x40 PUSH1 0x0 KECCAK256 PUSH2 0x58B PUSH1 0x3 DUP3 ADD SLOAD ISZERO ISZERO PUSH2 0x1E37 JUMP JUMPDEST PUSH1 0x2 DUP2 ADD DUP1 SLOAD SWAP1 PUSH2 0x59F PUSH1 0xFF DUP4 AND ISZERO PUSH2 0x1E83 JUMP JUMPDEST PUSH2 0x5AF PUSH1 0x1 DUP5 ADD SLOAD PUSH2 0x4C9 PUSH2 0x2199 JUMP JUMPDEST PUSH2 0x5BF PUSH1 0x4 DUP5 ADD SLOAD TIMESTAMP LT ISZERO PUSH2 0x21F1 JUMP JUMPDEST DUP3 SLOAD PUSH1 0x1 PUSH1 0x1 PUSH1 0xA0 SHL SUB AND SWAP2 PUSH1 0x1 SWAP1 PUSH2 0x5D9 DUP5 ISZERO ISZERO PUSH2 0x205E JUMP JUMPDEST DUP4 PUSH1 0x0 MSTORE PUSH1 0xC PUSH1 0x20 MSTORE PUSH2 0x5F4 PUSH1 0xFF PUSH1 0x40 PUSH1 0x0 KECCAK256 SLOAD AND ISZERO PUSH2 0x209A JUMP JUMPDEST PUSH1 0xFF NOT AND OR SWAP1 SSTORE PUSH1 0xB SLOAD PUSH9 0x10000000000000000 DUP2 LT ISZERO PUSH2 0x684 JUMPI DUP1 PUSH1 0x1 PUSH2 0x61F SWAP3 ADD PUSH1 0xB SSTORE PUSH2 0x1D15 JUMP JUMPDEST DUP2 SLOAD PUSH1 0x3 SWAP2 SWAP1 SWAP2 SHL SWAP3 DUP4 SHL PUSH1 0x1 PUSH1 0x1 PUSH1 0xA0 SHL SUB SWAP4 DUP5 SWAP1 SHL NOT SWAP1 SWAP2 AND OR SWAP1 SSTORE DUP2 SLOAD DUP2 AND PUSH1 0x0 SWAP1 DUP2 MSTORE PUSH1 0xC PUSH1 0x20 MSTORE PUSH1 0x40 DUP2 KECCAK256 DUP1 SLOAD PUSH1 0xFF NOT AND PUSH1 0x1 OR SWAP1 SSTORE SWAP2 SLOAD AND SWAP1 PUSH32 0x44D6D25963F097AD14F29F06854A01F575648A1EF82F30E562CCD3889717E339 SWAP1 DUP1 LOG2 STOP JUMPDEST PUSH4 0x4E487B71 PUSH1 0xE0 SHL PUSH1 0x0 MSTORE PUSH1 0x41 PUSH1 0x4 MSTORE PUSH1 0x24 PUSH1 0x0 REVERT JUMPDEST CALLVALUE PUSH2 0x1E4 JUMPI PUSH1 0x0 CALLDATASIZE PUSH1 0x3 NOT ADD SLT PUSH2 0x1E4 JUMPI PUSH1 0x20 PUSH1 0x2 SLOAD PUSH1 0x40 MLOAD SWAP1 DUP2 MSTORE RETURN JUMPDEST CALLVALUE PUSH2 0x1E4 JUMPI PUSH1 0x0 CALLDATASIZE PUSH1 0x3 NOT ADD SLT PUSH2 0x1E4 JUMPI PUSH1 0x20 PUSH1 0x11 SLOAD PUSH1 0x40 MLOAD SWAP1 DUP2 MSTORE RETURN JUMPDEST CALLVALUE PUSH2 0x1E4 JUMPI PUSH1 0x20 CALLDATASIZE PUSH1 0x3 NOT ADD SLT PUSH2 0x1E4 JUMPI PUSH1 0x4 CALLDATALOAD CALLER PUSH1 0x0 MSTORE PUSH1 0xC PUSH1 0x20 MSTORE PUSH2 0x704 PUSH1 0xFF PUSH1 0x40 PUSH1 0x0 KECCAK256 SLOAD AND PUSH2 0x1DBD JUMP JUMPDEST PUSH2 0x711 PUSH1 0x14 SLOAD DUP3 LT PUSH2 0x1DF6 JUMP JUMPDEST DUP1 PUSH1 0x0 MSTORE PUSH1 0x12 PUSH1 0x20 MSTORE PUSH1 0x1 PUSH1 0x40 PUSH1 0x0 KECCAK256 PUSH2 0x730 PUSH1 0x3 DUP3 ADD SLOAD ISZERO ISZERO PUSH2 0x1E37 JUMP JUMPDEST PUSH2 0x741 PUSH1 0xFF PUSH1 0x2 DUP4 ADD SLOAD AND ISZERO PUSH2 0x1E83 JUMP JUMPDEST DUP3 PUSH1 0x0 MSTORE PUSH1 0x13 PUSH1 0x20 MSTORE PUSH1 0x40 PUSH1 0x0 KECCAK256 DUP3 DUP1 PUSH1 0xA0 SHL SUB CALLER AND PUSH1 0x0 MSTORE PUSH1 0x20 MSTORE PUSH2 0x76F PUSH1 0xFF PUSH1 0x40 PUSH1 0x0 KECCAK256 SLOAD AND ISZERO PUSH2 0x1F01 JUMP JUMPDEST DUP3 PUSH1 0x0 MSTORE PUSH1 0x13 PUSH1 0x20 MSTORE PUSH1 0x40 PUSH1 0x0 KECCAK256 DUP3 DUP1 PUSH1 0xA0 SHL SUB CALLER AND PUSH1 0x0 MSTORE PUSH1 0x20 MSTORE PUSH1 0x40 PUSH1 0x0 KECCAK256 DUP3 PUSH1 0xFF NOT DUP3 SLOAD AND OR SWAP1 SSTORE ADD SWAP1 PUSH2 0x7A6 DUP3 SLOAD PUSH2 0x1F40 JUMP JUMPDEST DUP1 SWAP3 SSTORE PUSH2 0x7B1 PUSH2 0x2199 JUMP JUMPDEST PUSH1 0x40 MLOAD SWAP3 DUP4 MSTORE PUSH1 0x20 DUP4 ADD MSTORE PUSH32 0xB8CACF822D821B4E79CB750D1368C77E7E7EC2AEE16F886327CD7C756F47C223 PUSH1 0x40 CALLER SWAP4 LOG3 STOP JUMPDEST CALLVALUE PUSH2 0x1E4 JUMPI PUSH1 0x20 CALLDATASIZE PUSH1 0x3 NOT ADD SLT PUSH2 0x1E4 JUMPI PUSH2 0x7FD PUSH2 0x1D46 JUMP JUMPDEST CALLER PUSH1 0x0 MSTORE PUSH1 0xC PUSH1 0x20 MSTORE PUSH2 0x817 PUSH1 0xFF PUSH1 0x40 PUSH1 0x0 KECCAK256 SLOAD AND PUSH2 0x1DBD JUMP JUMPDEST PUSH1 0x1 PUSH1 0x1 PUSH1 0xA0 SHL SUB AND DUP1 ISZERO PUSH2 0x983 JUMPI PUSH1 0x8 SLOAD PUSH1 0x1 PUSH1 0x1 PUSH1 0xA0 SHL SUB AND DUP2 EQ PUSH2 0x950 JUMPI PUSH1 0x20 SWAP1 PUSH2 0x850 PUSH1 0xB SLOAD PUSH2 0x849 PUSH2 0x2199 JUMP JUMPDEST GT ISZERO PUSH2 0x20D6 JUMP JUMPDEST PUSH1 0x11 SLOAD SWAP1 PUSH2 0x85D DUP3 PUSH2 0x1F40 JUMP JUMPDEST PUSH1 0x11 SSTORE PUSH2 0x8AF PUSH2 0x86F PUSH1 0xE SLOAD TIMESTAMP PUSH2 0x1F4F JUMP JUMPDEST PUSH1 0x40 MLOAD SWAP1 PUSH2 0x87C DUP3 PUSH2 0x1D72 JUMP JUMPDEST DUP4 DUP3 MSTORE PUSH1 0x1 DUP7 DUP4 ADD MSTORE PUSH1 0x0 PUSH1 0x40 DUP4 ADD MSTORE TIMESTAMP PUSH1 0x60 DUP4 ADD MSTORE PUSH1 0x80 DUP3 ADD MSTORE CALLER PUSH1 0xA0 DUP3 ADD MSTORE DUP4 PUSH1 0x0 MSTORE PUSH1 0xF DUP6 MSTORE PUSH1 0x40 PUSH1 0x0 KECCAK256 PUSH2 0x2118 JUMP JUMPDEST PUSH1 0x0 DUP3 DUP2 MSTORE PUSH1 0x10 DUP5 MSTORE PUSH1 0x40 DUP1 DUP3 KECCAK256 CALLER DUP1 DUP5 MSTORE SWAP1 DUP7 MSTORE DUP2 DUP4 KECCAK256 DUP1 SLOAD PUSH1 0xFF NOT AND PUSH1 0x1 OR SWAP1 SSTORE DUP5 DUP4 MSTORE PUSH1 0xF DUP7 MSTORE SWAP2 DUP2 SWAP1 KECCAK256 PUSH1 0x4 ADD SLOAD SWAP1 MLOAD SWAP1 DUP2 MSTORE DUP4 SWAP1 PUSH32 0xF1BDCF91E0F6365FC28FE4CFFFCA64D447F8F307AB297F61C65F9B008E6B6E65 SWAP1 DUP7 SWAP1 LOG4 PUSH2 0x915 PUSH2 0x2199 JUMP JUMPDEST PUSH1 0x40 MLOAD SWAP1 PUSH1 0x1 DUP3 MSTORE DUP4 DUP3 ADD MSTORE DUP2 PUSH32 0xF39407F640014CB0220C4F7B0A6CC6ACEE38A440A8ADD233FA88E8C98B95B25C PUSH1 0x40 CALLER SWAP4 LOG3 PUSH1 0x40 MLOAD SWAP1 DUP2 MSTORE RETURN JUMPDEST PUSH1 0x40 MLOAD PUSH3 0x461BCD PUSH1 0xE5 SHL DUP2 MSTORE PUSH1 0x20 PUSH1 0x4 DUP3 ADD MSTORE PUSH1 0xB PUSH1 0x24 DUP3 ADD MSTORE PUSH11 0x73616D65206F7261636C65 PUSH1 0xA8 SHL PUSH1 0x44 DUP3 ADD MSTORE PUSH1 0x64 SWAP1 REVERT JUMPDEST PUSH1 0x40 MLOAD PUSH3 0x461BCD PUSH1 0xE5 SHL DUP2 MSTORE PUSH1 0x20 PUSH1 0x4 DUP3 ADD MSTORE PUSH1 0xE PUSH1 0x24 DUP3 ADD MSTORE PUSH14 0x696E76616C6964206F7261636C65 PUSH1 0x90 SHL PUSH1 0x44 DUP3 ADD MSTORE PUSH1 0x64 SWAP1 REVERT JUMPDEST CALLVALUE PUSH2 0x1E4 JUMPI PUSH1 0x20 CALLDATASIZE PUSH1 0x3 NOT ADD SLT PUSH2 0x1E4 JUMPI PUSH1 0x1 PUSH1 0x1 PUSH1 0xA0 SHL SUB PUSH2 0x9DA PUSH2 0x1D46 JUMP JUMPDEST AND PUSH1 0x0 MSTORE PUSH1 0x3 PUSH1 0x20 MSTORE PUSH1 0x20 PUSH1 0x40 PUSH1 0x0 KECCAK256 SLOAD PUSH1 0x40 MLOAD SWAP1 DUP2 MSTORE RETURN JUMPDEST CALLVALUE PUSH2 0x1E4 JUMPI PUSH1 0x40 CALLDATASIZE PUSH1 0x3 NOT ADD SLT PUSH2 0x1E4 JUMPI PUSH2 0xA0C PUSH2 0x1D5C JUMP JUMPDEST PUSH1 0x4 CALLDATALOAD PUSH1 0x0 MSTORE PUSH1 0x13 PUSH1 0x20 MSTORE PUSH1 0x40 PUSH1 0x0 KECCAK256 SWAP1 PUSH1 0x1 DUP1 PUSH1 0xA0 SHL SUB AND PUSH1 0x0 MSTORE PUSH1 0x20 MSTORE PUSH1 0x20 PUSH1 0xFF PUSH1 0x40 PUSH1 0x0 KECCAK256 SLOAD AND PUSH1 0x40 MLOAD SWAP1 ISZERO ISZERO DUP2 MSTORE RETURN JUMPDEST CALLVALUE PUSH2 0x1E4 JUMPI PUSH1 0x0 CALLDATASIZE PUSH1 0x3 NOT ADD SLT PUSH2 0x1E4 JUMPI PUSH1 0x9 SLOAD PUSH1 0x40 MLOAD PUSH1 0x1 PUSH1 0x1 PUSH1 0xA0 SHL SUB SWAP1 SWAP2 AND DUP2 MSTORE PUSH1 0x20 SWAP1 RETURN JUMPDEST CALLVALUE PUSH2 0x1E4 JUMPI PUSH1 0x0 CALLDATASIZE PUSH1 0x3 NOT ADD SLT PUSH2 0x1E4 JUMPI PUSH1 0x20 PUSH2 0x3D0 PUSH2 0x2199 JUMP JUMPDEST CALLVALUE PUSH2 0x1E4 JUMPI PUSH1 0x20 CALLDATASIZE PUSH1 0x3 NOT ADD SLT PUSH2 0x1E4 JUMPI PUSH1 0x4 CALLDATALOAD CALLER PUSH1 0x0 MSTORE PUSH1 0xC PUSH1 0x20 MSTORE PUSH2 0xAB2 PUSH1 0xFF PUSH1 0x40 PUSH1 0x0 KECCAK256 SLOAD AND PUSH2 0x1DBD JUMP JUMPDEST PUSH2 0xABF PUSH1 0x11 SLOAD DUP3 LT PUSH2 0x1DF6 JUMP JUMPDEST DUP1 PUSH1 0x0 MSTORE PUSH1 0xF PUSH1 0x20 MSTORE PUSH1 0x1 PUSH1 0x40 PUSH1 0x0 KECCAK256 PUSH2 0xADE PUSH1 0x3 DUP3 ADD SLOAD ISZERO ISZERO PUSH2 0x1E37 JUMP JUMPDEST PUSH2 0xAEF PUSH1 0xFF PUSH1 0x2 DUP4 ADD SLOAD AND ISZERO PUSH2 0x1E83 JUMP JUMPDEST DUP3 PUSH1 0x0 MSTORE PUSH1 0x10 PUSH1 0x20 MSTORE PUSH1 0x40 PUSH1 0x0 KECCAK256 DUP3 DUP1 PUSH1 0xA0 SHL SUB CALLER AND PUSH1 0x0 MSTORE PUSH1 0x20 MSTORE PUSH2 0xB1D PUSH1 0xFF PUSH1 0x40 PUSH1 0x0 KECCAK256 SLOAD AND ISZERO PUSH2 0x1F01 JUMP JUMPDEST DUP3 PUSH1 0x0 MSTORE PUSH1 0x10 PUSH1 0x20 MSTORE PUSH1 0x40 PUSH1 0x0 KECCAK256 DUP3 DUP1 PUSH1 0xA0 SHL SUB CALLER AND PUSH1 0x0 MSTORE PUSH1 0x20 MSTORE PUSH1 0x40 PUSH1 0x0 KECCAK256 DUP3 PUSH1 0xFF NOT DUP3 SLOAD AND OR SWAP1 SSTORE ADD SWAP1 PUSH2 0xB54 DUP3 SLOAD PUSH2 0x1F40 JUMP JUMPDEST DUP1 SWAP3 SSTORE PUSH2 0xB5F PUSH2 0x2199 JUMP JUMPDEST PUSH1 0x40 MLOAD SWAP3 DUP4 MSTORE PUSH1 0x20 DUP4 ADD MSTORE PUSH32 0xF39407F640014CB0220C4F7B0A6CC6ACEE38A440A8ADD233FA88E8C98B95B25C PUSH1 0x40 CALLER SWAP4 LOG3 STOP JUMPDEST CALLVALUE PUSH2 0x1E4 JUMPI PUSH1 0x20 CALLDATASIZE PUSH1 0x3 NOT ADD SLT PUSH2 0x1E4 JUMPI PUSH1 0x4 CALLDATALOAD PUSH2 0xBBB PUSH1 0x1 DUP1 PUSH1 0xA0 SHL SUB PUSH1 0x8 SLOAD AND CALLER EQ PUSH2 0x2024 JUMP JUMPDEST PUSH2 0xBC3 PUSH2 0x2234 JUMP JUMPDEST PUSH2 0xBD0 PUSH1 0x2 SLOAD DUP3 LT PUSH2 0x1F5C JUMP JUMPDEST DUP1 PUSH1 0x0 MSTORE PUSH1 0x1 PUSH1 0x20 MSTORE PUSH1 0x40 PUSH1 0x0 KECCAK256 PUSH1 0x2 DUP2 ADD PUSH1 0xFF DUP2 SLOAD AND PUSH1 0x5 DUP2 LT ISZERO PUSH2 0x438 JUMPI PUSH1 0x1 SUB PUSH2 0xC39 JUMPI PUSH1 0x2 PUSH1 0xFF NOT DUP3 SLOAD AND OR SWAP1 SSTORE PUSH1 0xA TIMESTAMP SWAP2 ADD SSTORE PUSH32 0x86B04A9027748794B50D55160E5A9FE6B0375CD3221E0D4776F9E053F7EF6D04 PUSH1 0x20 PUSH1 0x40 MLOAD TIMESTAMP DUP2 MSTORE LOG2 PUSH1 0x1 PUSH1 0x0 SSTORE STOP JUMPDEST PUSH1 0x40 MLOAD PUSH3 0x461BCD PUSH1 0xE5 SHL DUP2 MSTORE PUSH1 0x20 PUSH1 0x4 DUP3 ADD MSTORE PUSH1 0x19 PUSH1 0x24 DUP3 ADD MSTORE PUSH32 0x737461747573206D75737420626520494E5F5452414E53495400000000000000 PUSH1 0x44 DUP3 ADD MSTORE PUSH1 0x64 SWAP1 REVERT JUMPDEST CALLVALUE PUSH2 0x1E4 JUMPI PUSH1 0x20 CALLDATASIZE PUSH1 0x3 NOT ADD SLT PUSH2 0x1E4 JUMPI PUSH1 0x4 CALLDATALOAD PUSH1 0x0 MSTORE PUSH1 0x4 PUSH1 0x20 MSTORE PUSH1 0xC0 PUSH1 0x40 PUSH1 0x0 KECCAK256 DUP1 SLOAD SWAP1 PUSH1 0xFF PUSH1 0x1 DUP3 ADD SLOAD AND SWAP1 PUSH1 0x2 DUP2 ADD SLOAD PUSH1 0xFF PUSH1 0x3 DUP4 ADD SLOAD AND SWAP1 PUSH2 0xCE2 PUSH1 0x4 DUP5 ADD SLOAD SWAP4 PUSH1 0x5 PUSH1 0x1 DUP1 PUSH1 0xA0 SHL SUB SWAP2 ADD SLOAD AND SWAP5 PUSH1 0x40 MLOAD SWAP7 DUP8 MSTORE PUSH1 0x20 DUP8 ADD SWAP1 PUSH2 0x1DB0 JUMP JUMPDEST PUSH1 0x40 DUP6 ADD MSTORE ISZERO ISZERO PUSH1 0x60 DUP5 ADD MSTORE PUSH1 0x80 DUP4 ADD MSTORE PUSH1 0xA0 DUP3 ADD MSTORE RETURN JUMPDEST CALLVALUE PUSH2 0x1E4 JUMPI PUSH1 0x0 CALLDATASIZE PUSH1 0x3 NOT ADD SLT PUSH2 0x1E4 JUMPI PUSH1 0x8 SLOAD PUSH1 0x40 MLOAD PUSH1 0x1 PUSH1 0x1 PUSH1 0xA0 SHL SUB SWAP1 SWAP2 AND DUP2 MSTORE PUSH1 0x20 SWAP1 RETURN JUMPDEST CALLVALUE PUSH2 0x1E4 JUMPI PUSH1 0x20 CALLDATASIZE PUSH1 0x3 NOT ADD SLT PUSH2 0x1E4 JUMPI PUSH1 0x4 DUP1 CALLDATALOAD PUSH1 0x0 SWAP1 DUP2 MSTORE PUSH1 0x12 PUSH1 0x20 SWAP1 DUP2 MSTORE PUSH1 0x40 SWAP2 DUP3 SWAP1 KECCAK256 DUP1 SLOAD PUSH1 0x1 DUP3 ADD SLOAD PUSH1 0x2 DUP4 ADD SLOAD PUSH1 0x3 DUP5 ADD SLOAD SWAP7 DUP5 ADD SLOAD PUSH1 0x5 SWAP1 SWAP5 ADD SLOAD DUP7 MLOAD PUSH1 0x1 PUSH1 0x1 PUSH1 0xA0 SHL SUB SWAP5 DUP6 AND DUP2 MSTORE SWAP6 DUP7 ADD SWAP3 SWAP1 SWAP3 MSTORE PUSH1 0xFF AND ISZERO ISZERO SWAP5 DUP5 ADD SWAP5 SWAP1 SWAP5 MSTORE PUSH1 0x60 DUP4 ADD SWAP5 SWAP1 SWAP5 MSTORE PUSH1 0x80 DUP3 ADD MSTORE SWAP2 AND PUSH1 0xA0 DUP3 ADD MSTORE PUSH1 0xC0 SWAP1 RETURN JUMPDEST CALLVALUE PUSH2 0x1E4 JUMPI PUSH1 0x40 CALLDATASIZE PUSH1 0x3 NOT ADD SLT PUSH2 0x1E4 JUMPI PUSH2 0xDB9 PUSH2 0x1D5C JUMP JUMPDEST PUSH1 0x4 CALLDATALOAD PUSH1 0x0 MSTORE PUSH1 0x5 PUSH1 0x20 MSTORE PUSH1 0x40 PUSH1 0x0 KECCAK256 SWAP1 PUSH1 0x1 DUP1 PUSH1 0xA0 SHL SUB AND PUSH1 0x0 MSTORE PUSH1 0x20 MSTORE PUSH1 0x20 PUSH1 0xFF PUSH1 0x40 PUSH1 0x0 KECCAK256 SLOAD AND PUSH1 0x40 MLOAD SWAP1 ISZERO ISZERO DUP2 MSTORE RETURN JUMPDEST CALLVALUE PUSH2 0x1E4 JUMPI PUSH1 0x0 CALLDATASIZE PUSH1 0x3 NOT ADD SLT PUSH2 0x1E4 JUMPI PUSH1 0x20 PUSH1 0xE SLOAD PUSH1 0x40 MLOAD SWAP1 DUP2 MSTORE RETURN JUMPDEST CALLVALUE PUSH2 0x1E4 JUMPI PUSH1 0x0 CALLDATASIZE PUSH1 0x3 NOT ADD SLT PUSH2 0x1E4 JUMPI PUSH1 0x20 PUSH1 0xD SLOAD PUSH1 0x40 MLOAD SWAP1 DUP2 MSTORE RETURN JUMPDEST CALLVALUE PUSH2 0x1E4 JUMPI PUSH1 0x0 CALLDATASIZE PUSH1 0x3 NOT ADD SLT PUSH2 0x1E4 JUMPI PUSH1 0x20 PUSH1 0x7 SLOAD PUSH1 0x40 MLOAD SWAP1 DUP2 MSTORE RETURN JUMPDEST CALLVALUE PUSH2 0x1E4 JUMPI PUSH1 0x20 CALLDATASIZE PUSH1 0x3 NOT ADD SLT PUSH2 0x1E4 JUMPI PUSH1 0x20 PUSH2 0xE62 PUSH2 0x1D46 JUMP JUMPDEST CALLER PUSH1 0x0 MSTORE PUSH1 0xC DUP3 MSTORE PUSH2 0xE7B PUSH1 0xFF PUSH1 0x40 PUSH1 0x0 KECCAK256 SLOAD AND PUSH2 0x1DBD JUMP JUMPDEST PUSH1 0x1 PUSH1 0x1 PUSH1 0xA0 SHL SUB AND PUSH2 0xE8F DUP2 ISZERO ISZERO PUSH2 0x205E JUMP JUMPDEST DUP1 PUSH1 0x0 MSTORE PUSH1 0xC DUP3 MSTORE PUSH2 0xEA9 PUSH1 0xFF PUSH1 0x40 PUSH1 0x0 KECCAK256 SLOAD AND ISZERO PUSH2 0x209A JUMP JUMPDEST PUSH2 0xEB7 PUSH1 0xB SLOAD PUSH2 0x849 PUSH2 0x2199 JUMP JUMPDEST PUSH1 0x14 SLOAD SWAP1 PUSH2 0xEC4 DUP3 PUSH2 0x1F40 JUMP JUMPDEST PUSH1 0x14 SSTORE PUSH2 0xF16 PUSH2 0xED6 PUSH1 0xE SLOAD TIMESTAMP PUSH2 0x1F4F JUMP JUMPDEST PUSH1 0x40 MLOAD SWAP1 PUSH2 0xEE3 DUP3 PUSH2 0x1D72 JUMP JUMPDEST DUP4 DUP3 MSTORE PUSH1 0x1 DUP7 DUP4 ADD MSTORE PUSH1 0x0 PUSH1 0x40 DUP4 ADD MSTORE TIMESTAMP PUSH1 0x60 DUP4 ADD MSTORE PUSH1 0x80 DUP3 ADD MSTORE CALLER PUSH1 0xA0 DUP3 ADD MSTORE DUP4 PUSH1 0x0 MSTORE PUSH1 0x12 DUP6 MSTORE PUSH1 0x40 PUSH1 0x0 KECCAK256 PUSH2 0x2118 JUMP JUMPDEST PUSH1 0x0 DUP3 DUP2 MSTORE PUSH1 0x13 DUP5 MSTORE PUSH1 0x40 DUP1 DUP3 KECCAK256 CALLER DUP1 DUP5 MSTORE SWAP1 DUP7 MSTORE DUP2 DUP4 KECCAK256 DUP1 SLOAD PUSH1 0xFF NOT AND PUSH1 0x1 OR SWAP1 SSTORE DUP5 DUP4 MSTORE PUSH1 0x12 DUP7 MSTORE SWAP2 DUP2 SWAP1 KECCAK256 PUSH1 0x4 ADD SLOAD SWAP1 MLOAD SWAP1 DUP2 MSTORE DUP4 SWAP1 PUSH32 0x959284814070C6C3A0C8B0CE10F8406A2A5CFE5CC3A7D157AD2BA850026AEE64 SWAP1 DUP7 SWAP1 LOG4 PUSH2 0xF7C PUSH2 0x2199 JUMP JUMPDEST PUSH1 0x40 MLOAD SWAP1 PUSH1 0x1 DUP3 MSTORE DUP4 DUP3 ADD MSTORE DUP2 PUSH32 0xB8CACF822D821B4E79CB750D1368C77E7E7EC2AEE16F886327CD7C756F47C223 PUSH1 0x40 CALLER SWAP4 LOG3 PUSH1 0x40 MLOAD SWAP1 DUP2 MSTORE RETURN JUMPDEST CALLVALUE PUSH2 0x1E4 JUMPI PUSH1 0x20 CALLDATASIZE PUSH1 0x3 NOT ADD SLT PUSH2 0x1E4 JUMPI PUSH1 0x4 CALLDATALOAD PUSH2 0xFD3 PUSH2 0x2234 JUMP JUMPDEST PUSH2 0xFE0 PUSH1 0x2 SLOAD DUP3 LT PUSH2 0x1F5C JUMP JUMPDEST DUP1 PUSH1 0x0 MSTORE PUSH1 0x1 PUSH1 0x20 MSTORE PUSH1 0x40 PUSH1 0x0 KECCAK256 SWAP1 PUSH1 0x2 DUP3 ADD PUSH1 0xFF DUP2 SLOAD AND PUSH1 0x5 DUP2 LT ISZERO PUSH2 0x438 JUMPI PUSH1 0x2 PUSH2 0x100D SWAP2 EQ PUSH2 0x1F9A JUMP JUMPDEST PUSH1 0xA DUP4 ADD SLOAD PUSH2 0x101D DUP2 ISZERO ISZERO PUSH2 0x1FE6 JUMP JUMPDEST PUSH3 0x15180 DUP2 ADD DUP1 SWAP2 GT PUSH2 0x10E3 JUMPI TIMESTAMP GT ISZERO PUSH2 0x10A9 JUMPI DUP1 SLOAD PUSH1 0xFF NOT AND PUSH1 0x4 OR SWAP1 SSTORE PUSH1 0xA SLOAD PUSH1 0x3 DUP4 ADD DUP1 SLOAD PUSH1 0x8 SWAP1 SWAP5 ADD DUP1 SLOAD SWAP1 SWAP5 PUSH32 0x525D8C9A3BDFD74E1B0F3F79CCF0EF47D77D261E27396B35539F75E5D4086106 SWAP4 PUSH1 0x20 SWAP4 SWAP3 PUSH2 0x108C SWAP3 SWAP1 SWAP2 PUSH1 0x1 PUSH1 0x1 PUSH1 0xA0 SHL SUB SWAP2 DUP3 AND SWAP2 AND PUSH2 0x2434 JUMP JUMPDEST SLOAD SWAP4 SLOAD PUSH1 0x40 MLOAD SWAP1 DUP2 MSTORE PUSH1 0x1 PUSH1 0x1 PUSH1 0xA0 SHL SUB SWAP1 SWAP5 AND SWAP4 LOG3 PUSH1 0x1 PUSH1 0x0 SSTORE STOP JUMPDEST PUSH1 0x40 MLOAD PUSH3 0x461BCD PUSH1 0xE5 SHL DUP2 MSTORE PUSH1 0x20 PUSH1 0x4 DUP3 ADD MSTORE PUSH1 0x12 PUSH1 0x24 DUP3 ADD MSTORE PUSH18 0x1DDA5B991BDDC81B9BDD08195B185C1CD959 PUSH1 0x72 SHL PUSH1 0x44 DUP3 ADD MSTORE PUSH1 0x64 SWAP1 REVERT JUMPDEST PUSH4 0x4E487B71 PUSH1 0xE0 SHL PUSH1 0x0 MSTORE PUSH1 0x11 PUSH1 0x4 MSTORE PUSH1 0x24 PUSH1 0x0 REVERT JUMPDEST CALLVALUE PUSH2 0x1E4 JUMPI PUSH1 0x20 CALLDATASIZE PUSH1 0x3 NOT ADD SLT PUSH2 0x1E4 JUMPI PUSH1 0x4 CALLDATALOAD PUSH2 0x1122 PUSH1 0x1 DUP1 PUSH1 0xA0 SHL SUB PUSH1 0x8 SLOAD AND CALLER EQ PUSH2 0x2024 JUMP JUMPDEST PUSH2 0x112A PUSH2 0x2234 JUMP JUMPDEST PUSH2 0x1137 PUSH1 0x2 SLOAD DUP3 LT PUSH2 0x1F5C JUMP JUMPDEST DUP1 PUSH1 0x0 MSTORE PUSH1 0x1 PUSH1 0x20 MSTORE PUSH1 0x40 PUSH1 0x0 KECCAK256 SWAP1 PUSH1 0x2 DUP3 ADD PUSH1 0xFF DUP2 SLOAD AND PUSH1 0x5 DUP2 LT ISZERO PUSH2 0x438 JUMPI PUSH2 0x125A JUMPI PUSH1 0x1 PUSH1 0xFF NOT DUP3 SLOAD AND OR SWAP1 SSTORE PUSH32 0x7FE4EFC5647C551E3DAA927B506B95903589ED6B18A37DBFF54DB80E7395239B PUSH1 0x20 PUSH1 0x1 DUP1 PUSH1 0xA0 SHL SUB PUSH1 0xA SLOAD AND SWAP4 PUSH1 0x3 DUP2 ADD PUSH2 0x11B5 PUSH1 0x1 DUP1 PUSH1 0xA0 SHL SUB DUP3 SLOAD AND SWAP7 PUSH1 0x7 DUP5 ADD SWAP8 DUP9 SLOAD SWAP2 PUSH2 0x2434 JUMP JUMPDEST PUSH1 0xA SLOAD PUSH1 0x9 SLOAD PUSH1 0x5 DUP5 ADD DUP1 SLOAD SWAP1 SWAP4 SWAP3 PUSH2 0x11DA SWAP3 PUSH1 0x1 PUSH1 0x1 PUSH1 0xA0 SHL SUB SWAP1 DUP2 AND SWAP2 AND PUSH2 0x2434 JUMP JUMPDEST PUSH1 0xA SLOAD PUSH1 0x9 SLOAD PUSH1 0x6 SWAP5 SWAP1 SWAP5 ADD DUP1 SLOAD SWAP1 SWAP5 PUSH2 0x1200 SWAP3 PUSH1 0x1 PUSH1 0x1 PUSH1 0xA0 SHL SUB SWAP2 DUP3 AND SWAP2 AND PUSH2 0x2434 JUMP JUMPDEST SLOAD SWAP6 SLOAD PUSH1 0x9 SLOAD SWAP2 SLOAD PUSH1 0x40 DUP1 MLOAD SWAP3 DUP4 MSTORE DUP6 DUP4 ADD SWAP2 SWAP1 SWAP2 MSTORE PUSH1 0x1 PUSH1 0x1 PUSH1 0xA0 SHL SUB SWAP3 DUP4 AND SWAP8 DUP9 SWAP4 AND SWAP2 DUP8 SWAP2 PUSH32 0xAF26BF705C48AD6F6BF63104D1D8B9F94DAC03BA9C3AE49B34CD094CC8C3F6F6 SWAP2 LOG4 SLOAD PUSH1 0x40 MLOAD SWAP1 DUP2 MSTORE LOG3 PUSH1 0x1 PUSH1 0x0 SSTORE STOP JUMPDEST PUSH1 0x40 MLOAD PUSH3 0x461BCD PUSH1 0xE5 SHL DUP2 MSTORE PUSH1 0x20 PUSH1 0x4 DUP3 ADD MSTORE PUSH1 0x15 PUSH1 0x24 DUP3 ADD MSTORE PUSH21 0x1CDD185D1D5CC81B5D5CDD081899481313D0D2D151 PUSH1 0x5A SHL PUSH1 0x44 DUP3 ADD MSTORE PUSH1 0x64 SWAP1 REVERT JUMPDEST CALLVALUE PUSH2 0x1E4 JUMPI PUSH1 0x0 CALLDATASIZE PUSH1 0x3 NOT ADD SLT PUSH2 0x1E4 JUMPI PUSH1 0x20 PUSH1 0x14 SLOAD PUSH1 0x40 MLOAD SWAP1 DUP2 MSTORE RETURN JUMPDEST CALLVALUE PUSH2 0x1E4 JUMPI PUSH1 0x40 CALLDATASIZE PUSH1 0x3 NOT ADD SLT PUSH2 0x1E4 JUMPI PUSH2 0x12CE PUSH2 0x1D5C JUMP JUMPDEST PUSH1 0x4 CALLDATALOAD PUSH1 0x0 MSTORE PUSH1 0x10 PUSH1 0x20 MSTORE PUSH1 0x40 PUSH1 0x0 KECCAK256 SWAP1 PUSH1 0x1 DUP1 PUSH1 0xA0 SHL SUB AND PUSH1 0x0 MSTORE PUSH1 0x20 MSTORE PUSH1 0x20 PUSH1 0xFF PUSH1 0x40 PUSH1 0x0 KECCAK256 SLOAD AND PUSH1 0x40 MLOAD SWAP1 ISZERO ISZERO DUP2 MSTORE RETURN JUMPDEST CALLVALUE PUSH2 0x1E4 JUMPI PUSH1 0x20 CALLDATASIZE PUSH1 0x3 NOT ADD SLT PUSH2 0x1E4 JUMPI PUSH1 0x4 CALLDATALOAD PUSH2 0x131E PUSH2 0x2234 JUMP JUMPDEST PUSH2 0x132B PUSH1 0x2 SLOAD DUP3 LT PUSH2 0x1F5C JUMP JUMPDEST DUP1 PUSH1 0x0 MSTORE PUSH1 0x1 PUSH1 0x20 MSTORE PUSH1 0x40 PUSH1 0x0 KECCAK256 PUSH1 0x2 DUP2 ADD SWAP1 DUP2 SLOAD CALLER PUSH1 0x1 DUP1 PUSH1 0xA0 SHL SUB DUP3 PUSH1 0x8 SHR AND SUB PUSH2 0x13F9 JUMPI PUSH1 0xFF AND SWAP1 PUSH1 0x5 DUP3 LT ISZERO PUSH2 0x438 JUMPI PUSH2 0x136D PUSH1 0x2 PUSH1 0xA SWAP4 EQ PUSH2 0x1F9A JUMP JUMPDEST ADD SLOAD PUSH2 0x137A DUP2 ISZERO ISZERO PUSH2 0x1FE6 JUMP JUMPDEST PUSH3 0x15180 DUP2 ADD DUP1 SWAP2 GT PUSH2 0x10E3 JUMPI TIMESTAMP GT PUSH2 0x13C4 JUMPI DUP1 SLOAD PUSH1 0xFF NOT AND PUSH1 0x3 OR SWAP1 SSTORE PUSH32 0xB145240944E8BFE8998E31F11365578B766764ED1255B8E2EFCB56E741B7BE18 PUSH1 0x0 DUP1 LOG2 PUSH1 0x1 PUSH1 0x0 SSTORE STOP JUMPDEST PUSH1 0x40 MLOAD PUSH3 0x461BCD PUSH1 0xE5 SHL DUP2 MSTORE PUSH1 0x20 PUSH1 0x4 DUP3 ADD MSTORE PUSH1 0xD PUSH1 0x24 DUP3 ADD MSTORE PUSH13 0x1DDA5B991BDDC818DB1BDCD959 PUSH1 0x9A SHL PUSH1 0x44 DUP3 ADD MSTORE PUSH1 0x64 SWAP1 REVERT JUMPDEST PUSH1 0x40 MLOAD PUSH3 0x461BCD PUSH1 0xE5 SHL DUP2 MSTORE PUSH1 0x20 PUSH1 0x4 DUP3 ADD MSTORE PUSH1 0xA PUSH1 0x24 DUP3 ADD MSTORE PUSH10 0x37B7363C90313ABCB2B9 PUSH1 0xB1 SHL PUSH1 0x44 DUP3 ADD MSTORE PUSH1 0x64 SWAP1 REVERT JUMPDEST CALLVALUE PUSH2 0x1E4 JUMPI PUSH2 0x140 CALLDATASIZE PUSH1 0x3 NOT ADD SLT PUSH2 0x1E4 JUMPI PUSH2 0x1445 PUSH2 0x1D46 JUMP JUMPDEST PUSH1 0xE4 CALLDATALOAD PUSH2 0x124 CALLDATALOAD PUSH2 0x104 CALLDATALOAD PUSH8 0xFFFFFFFFFFFFFFFF DUP3 GT PUSH2 0x1E4 JUMPI CALLDATASIZE PUSH1 0x23 DUP4 ADD SLT ISZERO PUSH2 0x1E4 JUMPI DUP2 PUSH1 0x4 ADD CALLDATALOAD PUSH8 0xFFFFFFFFFFFFFFFF DUP2 GT PUSH2 0x684 JUMPI PUSH1 0x40 MLOAD SWAP3 PUSH2 0x1496 PUSH1 0x1F DUP4 ADD PUSH1 0x1F NOT AND PUSH1 0x20 ADD DUP6 PUSH2 0x1D8E JUMP JUMPDEST DUP2 DUP5 MSTORE CALLDATASIZE PUSH1 0x24 DUP4 DUP4 ADD ADD GT PUSH2 0x1E4 JUMPI DUP2 PUSH1 0x0 SWAP3 PUSH1 0x24 PUSH1 0x20 SWAP4 ADD DUP4 DUP8 ADD CALLDATACOPY DUP5 ADD ADD MSTORE PUSH2 0x14BF PUSH2 0x2234 JUMP JUMPDEST PUSH1 0xC4 CALLDATALOAD ISZERO PUSH2 0x1999 JUMPI PUSH1 0x1 PUSH1 0x1 PUSH1 0xA0 SHL SUB DUP5 AND ISZERO PUSH2 0x1960 JUMPI PUSH2 0x14F5 PUSH1 0xA4 CALLDATALOAD PUSH2 0x14F0 PUSH1 0x84 CALLDATALOAD PUSH2 0x14F0 PUSH1 0x64 CALLDATALOAD PUSH1 0x44 CALLDATALOAD PUSH2 0x1F4F JUMP JUMPDEST PUSH2 0x1F4F JUMP JUMPDEST PUSH1 0x24 CALLDATALOAD SUB PUSH2 0x1926 JUMPI PUSH1 0x84 CALLDATALOAD ISZERO ISZERO DUP1 PUSH2 0x191B JUMPI JUMPDEST ISZERO PUSH2 0x18DF JUMPI CALLER PUSH1 0x0 MSTORE PUSH1 0x3 PUSH1 0x20 MSTORE PUSH1 0x40 PUSH1 0x0 KECCAK256 SLOAD DUP4 SUB PUSH2 0x18AE JUMPI DUP1 TIMESTAMP GT PUSH2 0x1875 JUMPI PUSH2 0x160D SWAP2 PUSH2 0x1604 SWAP2 PUSH1 0x1 DUP1 PUSH1 0xA0 SHL SUB PUSH1 0x9 SLOAD AND SWAP1 PUSH1 0x40 MLOAD SWAP1 PUSH1 0x20 DUP3 ADD SWAP3 CHAINID DUP5 MSTORE ADDRESS PUSH1 0x40 DUP5 ADD MSTORE CALLER PUSH1 0x60 DUP5 ADD MSTORE PUSH1 0x1 DUP1 PUSH1 0xA0 SHL SUB DUP10 AND PUSH1 0x80 DUP5 ADD MSTORE PUSH1 0xA0 DUP4 ADD MSTORE PUSH1 0x24 CALLDATALOAD PUSH1 0xC0 DUP4 ADD MSTORE PUSH1 0x44 CALLDATALOAD PUSH1 0xE0 DUP4 ADD MSTORE PUSH1 0x64 CALLDATALOAD PUSH2 0x100 DUP4 ADD MSTORE PUSH1 0x84 CALLDATALOAD PUSH2 0x120 DUP4 ADD MSTORE PUSH1 0xA4 CALLDATALOAD PUSH2 0x140 DUP4 ADD MSTORE PUSH1 0xC4 CALLDATALOAD PUSH2 0x160 DUP4 ADD MSTORE DUP7 PUSH2 0x180 DUP4 ADD MSTORE PUSH2 0x1A0 DUP3 ADD MSTORE PUSH2 0x1A0 DUP2 MSTORE PUSH2 0x15BA PUSH2 0x1C0 DUP3 PUSH2 0x1D8E JUMP JUMPDEST MLOAD SWAP1 KECCAK256 PUSH1 0x40 MLOAD PUSH1 0x20 DUP2 ADD SWAP2 PUSH32 0x19457468657265756D205369676E6564204D6573736167653A0A333200000000 DUP4 MSTORE PUSH1 0x3C DUP3 ADD MSTORE PUSH1 0x3C DUP2 MSTORE PUSH2 0x15FC PUSH1 0x5C DUP3 PUSH2 0x1D8E JUMP JUMPDEST MLOAD SWAP1 KECCAK256 PUSH2 0x24D8 JUMP JUMPDEST SWAP1 SWAP3 SWAP2 SWAP3 PUSH2 0x2514 JUMP JUMPDEST CALLER PUSH1 0x1 PUSH1 0x1 PUSH1 0xA0 SHL SUB SWAP1 SWAP2 AND SUB PUSH2 0x1840 JUMPI PUSH1 0x1 DUP2 ADD DUP1 SWAP2 GT PUSH2 0x10E3 JUMPI CALLER PUSH1 0x0 MSTORE PUSH1 0x3 PUSH1 0x20 MSTORE PUSH1 0x40 PUSH1 0x0 KECCAK256 SSTORE PUSH1 0x2 SLOAD PUSH2 0x1644 DUP2 PUSH2 0x1F40 JUMP JUMPDEST PUSH1 0x2 SSTORE PUSH1 0x40 MLOAD SWAP2 PUSH2 0x180 DUP4 ADD DUP4 DUP2 LT PUSH8 0xFFFFFFFFFFFFFFFF DUP3 GT OR PUSH2 0x684 JUMPI PUSH1 0x40 MSTORE DUP2 DUP4 MSTORE PUSH1 0x20 DUP4 ADD PUSH1 0xC4 CALLDATALOAD DUP2 MSTORE PUSH1 0x40 DUP5 ADD PUSH1 0x0 DUP2 MSTORE CALLER PUSH1 0x60 DUP7 ADD MSTORE PUSH1 0x80 DUP6 ADD SWAP1 PUSH1 0x1 DUP1 PUSH1 0xA0 SHL SUB DUP5 AND DUP3 MSTORE PUSH1 0x24 CALLDATALOAD PUSH1 0xA0 DUP8 ADD MSTORE PUSH1 0x44 CALLDATALOAD PUSH1 0xC0 DUP8 ADD MSTORE PUSH1 0x64 CALLDATALOAD PUSH1 0xE0 DUP8 ADD MSTORE PUSH1 0x84 CALLDATALOAD PUSH2 0x100 DUP8 ADD MSTORE PUSH1 0xA4 CALLDATALOAD PUSH2 0x120 DUP8 ADD MSTORE TIMESTAMP PUSH2 0x140 DUP8 ADD MSTORE PUSH1 0x0 PUSH2 0x160 DUP8 ADD MSTORE DUP5 PUSH1 0x0 MSTORE PUSH1 0x1 PUSH1 0x20 MSTORE PUSH1 0x40 PUSH1 0x0 KECCAK256 SWAP3 DUP7 MLOAD DUP5 SSTORE MLOAD PUSH1 0x1 DUP5 ADD SSTORE MLOAD PUSH1 0x5 DUP2 LT ISZERO PUSH2 0x438 JUMPI PUSH1 0x2 DUP4 ADD DUP1 SLOAD PUSH1 0x60 DUP9 ADD MLOAD PUSH1 0x1 PUSH1 0x1 PUSH1 0xA8 SHL SUB NOT SWAP1 SWAP2 AND PUSH1 0xFF SWAP1 SWAP4 AND SWAP3 SWAP1 SWAP3 OR PUSH1 0x8 SWAP3 DUP4 SHL PUSH2 0x100 PUSH1 0x1 PUSH1 0xA8 SHL SUB AND OR SWAP1 SSTORE SWAP1 MLOAD PUSH1 0x3 DUP4 ADD DUP1 SLOAD PUSH1 0x1 PUSH1 0x1 PUSH1 0xA0 SHL SUB NOT AND PUSH1 0x1 PUSH1 0x1 PUSH1 0xA0 SHL SUB SWAP3 DUP4 AND OR SWAP1 SSTORE PUSH1 0xA0 DUP7 ADD MLOAD PUSH1 0x4 DUP5 ADD SSTORE PUSH1 0xC0 DUP7 ADD MLOAD PUSH1 0x5 DUP5 ADD SSTORE PUSH1 0xE0 DUP7 ADD MLOAD PUSH1 0x6 DUP5 ADD SSTORE PUSH2 0x100 DUP7 ADD MLOAD PUSH1 0x7 DUP5 ADD SSTORE PUSH2 0x120 DUP7 ADD MLOAD SWAP2 DUP4 ADD SWAP2 SWAP1 SWAP2 SSTORE PUSH2 0x140 DUP6 ADD MLOAD PUSH1 0x9 DUP4 ADD SSTORE PUSH2 0x160 SWAP1 SWAP5 ADD MLOAD PUSH1 0xA SWAP2 DUP3 ADD SSTORE SLOAD PUSH1 0x40 MLOAD PUSH4 0x23B872DD PUSH1 0xE0 SHL PUSH1 0x20 DUP3 DUP2 ADD SWAP2 SWAP1 SWAP2 MSTORE CALLER PUSH1 0x24 DUP1 DUP5 ADD SWAP2 SWAP1 SWAP2 MSTORE ADDRESS PUSH1 0x44 DUP5 ADD MSTORE CALLDATALOAD PUSH1 0x64 DUP1 DUP5 ADD SWAP2 SWAP1 SWAP2 MSTORE DUP3 MSTORE SWAP5 PUSH2 0x17D3 SWAP3 AND PUSH2 0x17CE PUSH1 0x84 DUP4 PUSH2 0x1D8E JUMP JUMPDEST PUSH2 0x2471 JUMP JUMPDEST PUSH1 0x40 MLOAD SWAP1 PUSH1 0x24 CALLDATALOAD DUP3 MSTORE PUSH1 0x44 CALLDATALOAD DUP5 DUP4 ADD MSTORE PUSH1 0x64 CALLDATALOAD PUSH1 0x40 DUP4 ADD MSTORE PUSH1 0x84 CALLDATALOAD PUSH1 0x60 DUP4 ADD MSTORE PUSH1 0xA4 CALLDATALOAD PUSH1 0x80 DUP4 ADD MSTORE PUSH1 0xC4 CALLDATALOAD PUSH1 0xA0 DUP4 ADD MSTORE PUSH1 0x1 DUP1 PUSH1 0xA0 SHL SUB AND SWAP1 DUP3 PUSH32 0x9896188F7299B6607B47EAA190D500BF89ABBFA1BB2CE6D410F88B043E371B67 PUSH1 0xC0 CALLER SWAP4 LOG4 PUSH1 0x1 PUSH1 0x0 SSTORE PUSH1 0x40 MLOAD SWAP1 DUP2 MSTORE RETURN JUMPDEST PUSH1 0x40 MLOAD PUSH3 0x461BCD PUSH1 0xE5 SHL DUP2 MSTORE PUSH1 0x20 PUSH1 0x4 DUP3 ADD MSTORE PUSH1 0xD PUSH1 0x24 DUP3 ADD MSTORE PUSH13 0x626164207369676E6174757265 PUSH1 0x98 SHL PUSH1 0x44 DUP3 ADD MSTORE PUSH1 0x64 SWAP1 REVERT JUMPDEST PUSH1 0x40 MLOAD PUSH3 0x461BCD PUSH1 0xE5 SHL DUP2 MSTORE PUSH1 0x20 PUSH1 0x4 DUP3 ADD MSTORE PUSH1 0x11 PUSH1 0x24 DUP3 ADD MSTORE PUSH17 0x1CDA59DB985D1D5C9948195E1C1A5C9959 PUSH1 0x7A SHL PUSH1 0x44 DUP3 ADD MSTORE PUSH1 0x64 SWAP1 REVERT JUMPDEST PUSH1 0x40 MLOAD PUSH3 0x461BCD PUSH1 0xE5 SHL DUP2 MSTORE PUSH1 0x20 PUSH1 0x4 DUP3 ADD MSTORE PUSH1 0x9 PUSH1 0x24 DUP3 ADD MSTORE PUSH9 0x626164206E6F6E6365 PUSH1 0xB8 SHL PUSH1 0x44 DUP3 ADD MSTORE PUSH1 0x64 SWAP1 REVERT JUMPDEST PUSH1 0x40 MLOAD PUSH3 0x461BCD PUSH1 0xE5 SHL DUP2 MSTORE PUSH1 0x20 PUSH1 0x4 DUP3 ADD MSTORE PUSH1 0x14 PUSH1 0x24 DUP3 ADD MSTORE PUSH20 0x7472616E63686573206D757374206265203E203 PUSH1 0x64 SHL PUSH1 0x44 DUP3 ADD MSTORE PUSH1 0x64 SWAP1 REVERT JUMPDEST POP PUSH1 0xA4 CALLDATALOAD ISZERO ISZERO PUSH2 0x1508 JUMP JUMPDEST PUSH1 0x40 MLOAD PUSH3 0x461BCD PUSH1 0xE5 SHL DUP2 MSTORE PUSH1 0x20 PUSH1 0x4 DUP3 ADD MSTORE PUSH1 0x12 PUSH1 0x24 DUP3 ADD MSTORE PUSH18 0xC4E4CAC2D6C8DEEEDC40DAD2E6DAC2E8C6D PUSH1 0x73 SHL PUSH1 0x44 DUP3 ADD MSTORE PUSH1 0x64 SWAP1 REVERT JUMPDEST PUSH1 0x40 MLOAD PUSH3 0x461BCD PUSH1 0xE5 SHL DUP2 MSTORE PUSH1 0x20 PUSH1 0x4 DUP3 ADD MSTORE PUSH1 0x11 PUSH1 0x24 DUP3 ADD MSTORE PUSH17 0x1CDD5C1C1B1A595C881C995C5D5A5C9959 PUSH1 0x7A SHL PUSH1 0x44 DUP3 ADD MSTORE PUSH1 0x64 SWAP1 REVERT JUMPDEST PUSH1 0x40 MLOAD PUSH3 0x461BCD PUSH1 0xE5 SHL DUP2 MSTORE PUSH1 0x20 PUSH1 0x4 DUP3 ADD MSTORE PUSH1 0x17 PUSH1 0x24 DUP3 ADD MSTORE PUSH32 0x72696361726469616E2068617368207265717569726564000000000000000000 PUSH1 0x44 DUP3 ADD MSTORE PUSH1 0x64 SWAP1 REVERT JUMPDEST CALLVALUE PUSH2 0x1E4 JUMPI PUSH1 0x20 CALLDATASIZE PUSH1 0x3 NOT ADD SLT PUSH2 0x1E4 JUMPI PUSH1 0x1 PUSH1 0x1 PUSH1 0xA0 SHL SUB PUSH2 0x19FF PUSH2 0x1D46 JUMP JUMPDEST AND PUSH1 0x0 MSTORE PUSH1 0xC PUSH1 0x20 MSTORE PUSH1 0x20 PUSH1 0xFF PUSH1 0x40 PUSH1 0x0 KECCAK256 SLOAD AND PUSH1 0x40 MLOAD SWAP1 ISZERO ISZERO DUP2 MSTORE RETURN JUMPDEST CALLVALUE PUSH2 0x1E4 JUMPI PUSH1 0x20 CALLDATASIZE PUSH1 0x3 NOT ADD SLT PUSH2 0x1E4 JUMPI PUSH1 0x4 CALLDATALOAD PUSH1 0x0 MSTORE PUSH1 0x1 PUSH1 0x20 MSTORE PUSH1 0x40 PUSH1 0x0 KECCAK256 DUP1 SLOAD PUSH1 0x1 DUP3 ADD SLOAD PUSH1 0x2 DUP4 ADD SLOAD SWAP3 PUSH1 0xFF DUP5 AND SWAP4 PUSH1 0x1 DUP1 PUSH1 0xA0 SHL SUB PUSH1 0x3 DUP4 ADD SLOAD AND PUSH1 0x4 DUP4 ADD SLOAD PUSH1 0x5 DUP5 ADD SLOAD PUSH1 0x6 DUP6 ADD SLOAD SWAP2 PUSH1 0x7 DUP7 ADD SLOAD SWAP4 PUSH1 0x8 DUP8 ADD SLOAD SWAP6 PUSH1 0xA PUSH1 0x9 DUP10 ADD SLOAD SWAP9 ADD SLOAD SWAP9 PUSH1 0x40 MLOAD SWAP11 DUP12 MSTORE PUSH1 0x20 DUP12 ADD MSTORE PUSH1 0x5 DUP12 LT ISZERO PUSH2 0x438 JUMPI PUSH2 0x180 SWAP11 PUSH1 0x40 DUP12 ADD MSTORE PUSH1 0x1 DUP1 PUSH1 0xA0 SHL SUB SWAP1 PUSH1 0x8 SHR AND PUSH1 0x60 DUP11 ADD MSTORE PUSH1 0x80 DUP10 ADD MSTORE PUSH1 0xA0 DUP9 ADD MSTORE PUSH1 0xC0 DUP8 ADD MSTORE PUSH1 0xE0 DUP7 ADD MSTORE PUSH2 0x100 DUP6 ADD MSTORE PUSH2 0x120 DUP5 ADD MSTORE PUSH2 0x140 DUP4 ADD MSTORE PUSH2 0x160 DUP3 ADD MSTORE RETURN JUMPDEST CALLVALUE PUSH2 0x1E4 JUMPI PUSH1 0x20 CALLDATASIZE PUSH1 0x3 NOT ADD SLT PUSH2 0x1E4 JUMPI PUSH1 0x4 DUP1 CALLDATALOAD PUSH1 0x0 SWAP1 DUP2 MSTORE PUSH1 0xF PUSH1 0x20 SWAP1 DUP2 MSTORE PUSH1 0x40 SWAP2 DUP3 SWAP1 KECCAK256 DUP1 SLOAD PUSH1 0x1 DUP3 ADD SLOAD PUSH1 0x2 DUP4 ADD SLOAD PUSH1 0x3 DUP5 ADD SLOAD SWAP7 DUP5 ADD SLOAD PUSH1 0x5 SWAP1 SWAP5 ADD SLOAD DUP7 MLOAD PUSH1 0x1 PUSH1 0x1 PUSH1 0xA0 SHL SUB SWAP5 DUP6 AND DUP2 MSTORE SWAP6 DUP7 ADD SWAP3 SWAP1 SWAP3 MSTORE PUSH1 0xFF AND ISZERO ISZERO SWAP5 DUP5 ADD SWAP5 SWAP1 SWAP5 MSTORE PUSH1 0x60 DUP4 ADD SWAP5 SWAP1 SWAP5 MSTORE PUSH1 0x80 DUP3 ADD MSTORE SWAP2 AND PUSH1 0xA0 DUP3 ADD MSTORE PUSH1 0xC0 SWAP1 RETURN JUMPDEST CALLVALUE PUSH2 0x1E4 JUMPI PUSH1 0x20 CALLDATASIZE PUSH1 0x3 NOT ADD SLT PUSH2 0x1E4 JUMPI PUSH1 0x4 CALLDATALOAD PUSH1 0xB SLOAD DUP2 LT ISZERO PUSH2 0x1E4 JUMPI PUSH2 0x1B86 PUSH1 0x20 SWAP2 PUSH2 0x1D15 JUMP JUMPDEST SWAP1 SLOAD PUSH1 0x40 MLOAD PUSH1 0x3 SWAP3 SWAP1 SWAP3 SHL SHR PUSH1 0x1 PUSH1 0x1 PUSH1 0xA0 SHL SUB AND DUP2 MSTORE RETURN JUMPDEST CALLVALUE PUSH2 0x1E4 JUMPI PUSH1 0x0 CALLDATASIZE PUSH1 0x3 NOT ADD SLT PUSH2 0x1E4 JUMPI PUSH1 0xA SLOAD PUSH1 0x40 MLOAD PUSH1 0x1 PUSH1 0x1 PUSH1 0xA0 SHL SUB SWAP1 SWAP2 AND DUP2 MSTORE PUSH1 0x20 SWAP1 RETURN JUMPDEST CALLVALUE PUSH2 0x1E4 JUMPI PUSH1 0x20 CALLDATASIZE PUSH1 0x3 NOT ADD SLT PUSH2 0x1E4 JUMPI PUSH1 0x4 CALLDATALOAD CALLER PUSH1 0x0 MSTORE PUSH1 0xC PUSH1 0x20 MSTORE PUSH2 0x1BF6 PUSH1 0xFF PUSH1 0x40 PUSH1 0x0 KECCAK256 SLOAD AND PUSH2 0x1DBD JUMP JUMPDEST PUSH2 0x1BFE PUSH2 0x2234 JUMP JUMPDEST PUSH2 0x1C0B PUSH1 0x7 SLOAD DUP3 LT PUSH2 0x1DF6 JUMP JUMPDEST DUP1 PUSH1 0x0 MSTORE PUSH1 0x4 PUSH1 0x20 MSTORE PUSH1 0x40 PUSH1 0x0 KECCAK256 PUSH2 0x1C28 PUSH1 0x4 DUP3 ADD SLOAD ISZERO ISZERO PUSH2 0x1E37 JUMP JUMPDEST PUSH2 0x1C39 PUSH1 0xFF PUSH1 0x3 DUP4 ADD SLOAD AND ISZERO PUSH2 0x1E83 JUMP JUMPDEST DUP1 SLOAD PUSH1 0x0 MSTORE PUSH1 0x1 PUSH1 0x20 MSTORE PUSH1 0xFF PUSH1 0x2 PUSH1 0x40 PUSH1 0x0 KECCAK256 ADD SLOAD AND SWAP1 PUSH1 0x5 DUP3 LT ISZERO PUSH2 0x438 JUMPI PUSH2 0x1C67 PUSH1 0x3 PUSH1 0x2 SWAP4 EQ PUSH2 0x1EC2 JUMP JUMPDEST PUSH1 0x0 DUP4 DUP2 MSTORE PUSH1 0x5 PUSH1 0x20 SWAP1 DUP2 MSTORE PUSH1 0x40 DUP1 DUP4 KECCAK256 CALLER DUP5 MSTORE SWAP1 SWAP2 MSTORE SWAP1 KECCAK256 SLOAD PUSH2 0x1C8E SWAP1 PUSH1 0xFF AND ISZERO PUSH2 0x1F01 JUMP JUMPDEST PUSH1 0x0 DUP4 DUP2 MSTORE PUSH1 0x5 PUSH1 0x20 SWAP1 DUP2 MSTORE PUSH1 0x40 DUP1 DUP4 KECCAK256 CALLER DUP5 MSTORE SWAP1 SWAP2 MSTORE SWAP1 KECCAK256 DUP1 SLOAD PUSH1 0xFF NOT AND PUSH1 0x1 OR SWAP1 SSTORE ADD DUP1 SLOAD PUSH2 0x1CBE SWAP1 PUSH2 0x1F40 JUMP JUMPDEST DUP1 SWAP2 SSTORE PUSH1 0xD SLOAD SWAP1 PUSH1 0x40 MLOAD DUP2 DUP2 MSTORE DUP3 PUSH1 0x20 DUP3 ADD MSTORE DUP4 PUSH32 0x14E1B3091F09F49236E90D7A9826AA647E37C8B8600ADC8A5935EE0C179E2DE1 PUSH1 0x40 CALLER SWAP4 LOG3 LT ISZERO PUSH2 0x1D06 JUMPI JUMPDEST PUSH1 0x1 PUSH1 0x0 SSTORE STOP JUMPDEST PUSH2 0x1D0F SWAP1 PUSH2 0x2256 JUMP JUMPDEST DUP1 PUSH2 0x1CFF JUMP JUMPDEST PUSH1 0xB SLOAD DUP2 LT ISZERO PUSH2 0x1D30 JUMPI PUSH1 0xB PUSH1 0x0 MSTORE PUSH1 0x20 PUSH1 0x0 KECCAK256 ADD SWAP1 PUSH1 0x0 SWAP1 JUMP JUMPDEST PUSH4 0x4E487B71 PUSH1 0xE0 SHL PUSH1 0x0 MSTORE PUSH1 0x32 PUSH1 0x4 MSTORE PUSH1 0x24 PUSH1 0x0 REVERT JUMPDEST PUSH1 0x4 CALLDATALOAD SWAP1 PUSH1 0x1 PUSH1 0x1 PUSH1 0xA0 SHL SUB DUP3 AND DUP3 SUB PUSH2 0x1E4 JUMPI JUMP JUMPDEST PUSH1 0x24 CALLDATALOAD SWAP1 PUSH1 0x1 PUSH1 0x1 PUSH1 0xA0 SHL SUB DUP3 AND DUP3 SUB PUSH2 0x1E4 JUMPI JUMP JUMPDEST PUSH1 0xC0 DUP2 ADD SWAP1 DUP2 LT PUSH8 0xFFFFFFFFFFFFFFFF DUP3 GT OR PUSH2 0x684 JUMPI PUSH1 0x40 MSTORE JUMP JUMPDEST SWAP1 PUSH1 0x1F DUP1 NOT SWAP2 ADD AND DUP2 ADD SWAP1 DUP2 LT PUSH8 0xFFFFFFFFFFFFFFFF DUP3 GT OR PUSH2 0x684 JUMPI PUSH1 0x40 MSTORE JUMP JUMPDEST SWAP1 PUSH1 0x2 DUP3 LT ISZERO PUSH2 0x438 JUMPI MSTORE JUMP JUMPDEST ISZERO PUSH2 0x1DC4 JUMPI JUMP JUMPDEST PUSH1 0x40 MLOAD PUSH3 0x461BCD PUSH1 0xE5 SHL DUP2 MSTORE PUSH1 0x20 PUSH1 0x4 DUP3 ADD MSTORE PUSH1 0xA PUSH1 0x24 DUP3 ADD MSTORE PUSH10 0x37B7363C9030B236B4B7 PUSH1 0xB1 SHL PUSH1 0x44 DUP3 ADD MSTORE PUSH1 0x64 SWAP1 REVERT JUMPDEST ISZERO PUSH2 0x1DFD JUMPI JUMP JUMPDEST PUSH1 0x40 MLOAD PUSH3 0x461BCD PUSH1 0xE5 SHL DUP2 MSTORE PUSH1 0x20 PUSH1 0x4 DUP3 ADD MSTORE PUSH1 0x12 PUSH1 0x24 DUP3 ADD MSTORE PUSH18 0x1C1C9BDC1BDCD85B081B9BDD08199BDD5B99 PUSH1 0x72 SHL PUSH1 0x44 DUP3 ADD MSTORE PUSH1 0x64 SWAP1 REVERT JUMPDEST ISZERO PUSH2 0x1E3E JUMPI JUMP JUMPDEST PUSH1 0x40 MLOAD PUSH3 0x461BCD PUSH1 0xE5 SHL DUP2 MSTORE PUSH1 0x20 PUSH1 0x4 DUP3 ADD MSTORE PUSH1 0x18 PUSH1 0x24 DUP3 ADD MSTORE PUSH32 0x70726F706F73616C206E6F7420696E697469616C697A65640000000000000000 PUSH1 0x44 DUP3 ADD MSTORE PUSH1 0x64 SWAP1 REVERT JUMPDEST ISZERO PUSH2 0x1E8A JUMPI JUMP JUMPDEST PUSH1 0x40 MLOAD PUSH3 0x461BCD PUSH1 0xE5 SHL DUP2 MSTORE PUSH1 0x20 PUSH1 0x4 DUP3 ADD MSTORE PUSH1 0x10 PUSH1 0x24 DUP3 ADD MSTORE PUSH16 0x185B1C9958591E48195E1958DD5D1959 PUSH1 0x82 SHL PUSH1 0x44 DUP3 ADD MSTORE PUSH1 0x64 SWAP1 REVERT JUMPDEST ISZERO PUSH2 0x1EC9 JUMPI JUMP JUMPDEST PUSH1 0x40 MLOAD PUSH3 0x461BCD PUSH1 0xE5 SHL DUP2 MSTORE PUSH1 0x20 PUSH1 0x4 DUP3 ADD MSTORE PUSH1 0x10 PUSH1 0x24 DUP3 ADD MSTORE PUSH16 0x3A3930B232903737BA10333937BD32B7 PUSH1 0x81 SHL PUSH1 0x44 DUP3 ADD MSTORE PUSH1 0x64 SWAP1 REVERT JUMPDEST ISZERO PUSH2 0x1F08 JUMPI JUMP JUMPDEST PUSH1 0x40 MLOAD PUSH3 0x461BCD PUSH1 0xE5 SHL DUP2 MSTORE PUSH1 0x20 PUSH1 0x4 DUP3 ADD MSTORE PUSH1 0x10 PUSH1 0x24 DUP3 ADD MSTORE PUSH16 0x185B1C9958591E48185C1C1C9BDD9959 PUSH1 0x82 SHL PUSH1 0x44 DUP3 ADD MSTORE PUSH1 0x64 SWAP1 REVERT JUMPDEST PUSH1 0x0 NOT DUP2 EQ PUSH2 0x10E3 JUMPI PUSH1 0x1 ADD SWAP1 JUMP JUMPDEST SWAP2 SWAP1 DUP3 ADD DUP1 SWAP3 GT PUSH2 0x10E3 JUMPI JUMP JUMPDEST ISZERO PUSH2 0x1F63 JUMPI JUMP JUMPDEST PUSH1 0x40 MLOAD PUSH3 0x461BCD PUSH1 0xE5 SHL DUP2 MSTORE PUSH1 0x20 PUSH1 0x4 DUP3 ADD MSTORE PUSH1 0xF PUSH1 0x24 DUP3 ADD MSTORE PUSH15 0x1D1C985919481B9BDD08199BDD5B99 PUSH1 0x8A SHL PUSH1 0x44 DUP3 ADD MSTORE PUSH1 0x64 SWAP1 REVERT JUMPDEST ISZERO PUSH2 0x1FA1 JUMPI JUMP JUMPDEST PUSH1 0x40 MLOAD PUSH3 0x461BCD PUSH1 0xE5 SHL DUP2 MSTORE PUSH1 0x20 PUSH1 0x4 DUP3 ADD MSTORE PUSH1 0x19 PUSH1 0x24 DUP3 ADD MSTORE PUSH32 0x6D757374206265204152524956414C5F434F4E4649524D454400000000000000 PUSH1 0x44 DUP3 ADD MSTORE PUSH1 0x64 SWAP1 REVERT JUMPDEST ISZERO PUSH2 0x1FED JUMPI JUMP JUMPDEST PUSH1 0x40 MLOAD PUSH3 0x461BCD PUSH1 0xE5 SHL DUP2 MSTORE PUSH1 0x20 PUSH1 0x4 DUP3 ADD MSTORE PUSH1 0xF PUSH1 0x24 DUP3 ADD MSTORE PUSH15 0x185C9C9A5D985B081B9BDD081CD95D PUSH1 0x8A SHL PUSH1 0x44 DUP3 ADD MSTORE PUSH1 0x64 SWAP1 REVERT JUMPDEST ISZERO PUSH2 0x202B JUMPI JUMP JUMPDEST PUSH1 0x40 MLOAD PUSH3 0x461BCD PUSH1 0xE5 SHL DUP2 MSTORE PUSH1 0x20 PUSH1 0x4 DUP3 ADD MSTORE PUSH1 0xB PUSH1 0x24 DUP3 ADD MSTORE PUSH11 0x6F6E6C79206F7261636C65 PUSH1 0xA8 SHL PUSH1 0x44 DUP3 ADD MSTORE PUSH1 0x64 SWAP1 REVERT JUMPDEST ISZERO PUSH2 0x2065 JUMPI JUMP JUMPDEST PUSH1 0x40 MLOAD PUSH3 0x461BCD PUSH1 0xE5 SHL DUP2 MSTORE PUSH1 0x20 PUSH1 0x4 DUP3 ADD MSTORE PUSH1 0xD PUSH1 0x24 DUP3 ADD MSTORE PUSH13 0x34B73B30B634B21030B236B4B7 PUSH1 0x99 SHL PUSH1 0x44 DUP3 ADD MSTORE PUSH1 0x64 SWAP1 REVERT JUMPDEST ISZERO PUSH2 0x20A1 JUMPI JUMP JUMPDEST PUSH1 0x40 MLOAD PUSH3 0x461BCD PUSH1 0xE5 SHL DUP2 MSTORE PUSH1 0x20 PUSH1 0x4 DUP3 ADD MSTORE PUSH1 0xD PUSH1 0x24 DUP3 ADD MSTORE PUSH13 0x30B63932B0B23C9030B236B4B7 PUSH1 0x99 SHL PUSH1 0x44 DUP3 ADD MSTORE PUSH1 0x64 SWAP1 REVERT JUMPDEST ISZERO PUSH2 0x20DD JUMPI JUMP JUMPDEST PUSH1 0x40 MLOAD PUSH3 0x461BCD PUSH1 0xE5 SHL DUP2 MSTORE PUSH1 0x20 PUSH1 0x4 DUP3 ADD MSTORE PUSH1 0x13 PUSH1 0x24 DUP3 ADD MSTORE PUSH19 0x696E73756666696369656E742061646D696E73 PUSH1 0x68 SHL PUSH1 0x44 DUP3 ADD MSTORE PUSH1 0x64 SWAP1 REVERT JUMPDEST DUP2 MLOAD DUP2 SLOAD PUSH1 0x1 PUSH1 0x1 PUSH1 0xA0 SHL SUB SWAP1 SWAP2 AND PUSH1 0x1 PUSH1 0x1 PUSH1 0xA0 SHL SUB NOT SWAP1 SWAP2 AND OR DUP2 SSTORE PUSH1 0x20 DUP3 ADD MLOAD PUSH1 0x1 DUP3 ADD SSTORE PUSH1 0x40 DUP3 ADD MLOAD PUSH1 0x2 DUP3 ADD DUP1 SLOAD PUSH1 0xFF NOT AND SWAP2 ISZERO ISZERO PUSH1 0xFF AND SWAP2 SWAP1 SWAP2 OR SWAP1 SSTORE SWAP1 PUSH1 0x5 SWAP1 PUSH1 0x60 DUP2 ADD MLOAD PUSH1 0x3 DUP5 ADD SSTORE PUSH1 0x80 DUP2 ADD MLOAD PUSH1 0x4 DUP5 ADD SSTORE PUSH1 0xA0 ADD MLOAD SWAP2 ADD DUP1 SLOAD PUSH1 0x1 PUSH1 0x1 PUSH1 0xA0 SHL SUB NOT AND PUSH1 0x1 PUSH1 0x1 PUSH1 0xA0 SHL SUB SWAP3 SWAP1 SWAP3 AND SWAP2 SWAP1 SWAP2 OR SWAP1 SSTORE JUMP JUMPDEST PUSH1 0xD SLOAD PUSH1 0x2 DUP2 LT ISZERO PUSH2 0x21AB JUMPI POP PUSH1 0x2 SWAP1 JUMP JUMPDEST SWAP1 JUMP JUMPDEST ISZERO PUSH2 0x21B5 JUMPI JUMP JUMPDEST PUSH1 0x40 MLOAD PUSH3 0x461BCD PUSH1 0xE5 SHL DUP2 MSTORE PUSH1 0x20 PUSH1 0x4 DUP3 ADD MSTORE PUSH1 0x14 PUSH1 0x24 DUP3 ADD MSTORE PUSH20 0x6E6F7420656E6F75676820617070726F76616C73 PUSH1 0x60 SHL PUSH1 0x44 DUP3 ADD MSTORE PUSH1 0x64 SWAP1 REVERT JUMPDEST ISZERO PUSH2 0x21F8 JUMPI JUMP JUMPDEST PUSH1 0x40 MLOAD PUSH3 0x461BCD PUSH1 0xE5 SHL DUP2 MSTORE PUSH1 0x20 PUSH1 0x4 DUP3 ADD MSTORE PUSH1 0x14 PUSH1 0x24 DUP3 ADD MSTORE PUSH20 0x1D1A5B595B1BD8DAC81B9BDD08195B185C1CD959 PUSH1 0x62 SHL PUSH1 0x44 DUP3 ADD MSTORE PUSH1 0x64 SWAP1 REVERT JUMPDEST PUSH1 0x2 PUSH1 0x0 SLOAD EQ PUSH2 0x2245 JUMPI PUSH1 0x2 PUSH1 0x0 SSTORE JUMP JUMPDEST PUSH4 0x3EE5AEB5 PUSH1 0xE0 SHL PUSH1 0x0 MSTORE PUSH1 0x4 PUSH1 0x0 REVERT JUMPDEST DUP1 PUSH1 0x0 MSTORE PUSH1 0x4 PUSH1 0x20 MSTORE PUSH1 0x40 PUSH1 0x0 KECCAK256 SWAP1 PUSH1 0x3 DUP3 ADD DUP1 SLOAD SWAP3 PUSH2 0x2279 PUSH1 0xFF DUP6 AND ISZERO PUSH2 0x1E83 JUMP JUMPDEST PUSH2 0x228B PUSH1 0x2 DUP3 ADD SLOAD PUSH1 0xD SLOAD GT ISZERO PUSH2 0x21AE JUMP JUMPDEST DUP1 SLOAD PUSH1 0x0 MSTORE PUSH1 0x1 PUSH1 0x20 MSTORE PUSH1 0x40 PUSH1 0x0 KECCAK256 SWAP2 PUSH1 0x2 DUP4 ADD SWAP5 PUSH1 0xFF DUP7 SLOAD AND PUSH1 0x5 DUP2 LT ISZERO PUSH2 0x438 JUMPI PUSH1 0x3 SUB PUSH2 0x23F8 JUMPI PUSH1 0x1 SWAP1 PUSH1 0xFF NOT AND OR SWAP1 SSTORE PUSH1 0x4 PUSH1 0xFF NOT DUP6 SLOAD AND OR DUP5 SSTORE DUP1 SLOAD PUSH1 0x0 MSTORE PUSH1 0x6 PUSH1 0x20 MSTORE PUSH1 0x40 PUSH1 0x0 KECCAK256 PUSH1 0xFF NOT DUP2 SLOAD AND SWAP1 SSTORE PUSH1 0x1 DUP2 ADD SWAP4 PUSH1 0xFF DUP6 SLOAD AND PUSH1 0x2 DUP2 LT ISZERO PUSH2 0x438 JUMPI DUP1 PUSH2 0x235B JUMPI POP PUSH1 0xA SLOAD SWAP1 SLOAD PUSH1 0x8 SWAP4 DUP5 ADD SLOAD PUSH32 0x367EF6DA4BD64313A89876ECB2E42B4BE35F68F378625BE0D78DCD15EBA27DD0 SWAP5 PUSH1 0x20 SWAP5 PUSH1 0xFF SWAP5 SWAP1 SWAP4 PUSH2 0x2347 SWAP4 SWAP3 SHR PUSH1 0x1 PUSH1 0x1 PUSH1 0xA0 SHL SUB SWAP1 DUP2 AND SWAP2 AND PUSH2 0x2434 JUMP JUMPDEST SLOAD SWAP5 SLOAD AND PUSH2 0x2358 PUSH1 0x40 MLOAD DUP1 SWAP3 PUSH2 0x1DB0 JUMP JUMPDEST LOG3 JUMP JUMPDEST PUSH1 0x1 EQ ISZERO SWAP1 POP PUSH2 0x23BA JUMPI PUSH1 0xA SLOAD PUSH1 0x3 DUP4 ADD SLOAD PUSH1 0x8 SWAP1 SWAP4 ADD SLOAD PUSH32 0x367EF6DA4BD64313A89876ECB2E42B4BE35F68F378625BE0D78DCD15EBA27DD0 SWAP4 PUSH1 0x20 SWAP4 PUSH1 0xFF SWAP4 SWAP1 SWAP3 PUSH2 0x23B5 SWAP3 SWAP1 SWAP2 PUSH1 0x1 PUSH1 0x1 PUSH1 0xA0 SHL SUB SWAP2 DUP3 AND SWAP2 AND PUSH2 0x2434 JUMP JUMPDEST PUSH2 0x2347 JUMP JUMPDEST PUSH1 0x40 MLOAD PUSH3 0x461BCD PUSH1 0xE5 SHL DUP2 MSTORE PUSH1 0x20 PUSH1 0x4 DUP3 ADD MSTORE PUSH1 0x16 PUSH1 0x24 DUP3 ADD MSTORE PUSH22 0x696E76616C6964206469737075746520737461747573 PUSH1 0x50 SHL PUSH1 0x44 DUP3 ADD MSTORE PUSH1 0x64 SWAP1 REVERT JUMPDEST PUSH1 0x40 MLOAD PUSH3 0x461BCD PUSH1 0xE5 SHL DUP2 MSTORE PUSH1 0x20 PUSH1 0x4 DUP3 ADD MSTORE PUSH1 0x14 PUSH1 0x24 DUP3 ADD MSTORE PUSH20 0x3A3930B2329036BAB9BA10313290232927AD22A7 PUSH1 0x61 SHL PUSH1 0x44 DUP3 ADD MSTORE PUSH1 0x64 SWAP1 REVERT JUMPDEST PUSH1 0x40 MLOAD PUSH4 0xA9059CBB PUSH1 0xE0 SHL PUSH1 0x20 DUP3 ADD MSTORE PUSH1 0x1 PUSH1 0x1 PUSH1 0xA0 SHL SUB SWAP1 SWAP3 AND PUSH1 0x24 DUP4 ADD MSTORE PUSH1 0x44 DUP1 DUP4 ADD SWAP4 SWAP1 SWAP4 MSTORE SWAP2 DUP2 MSTORE PUSH2 0x246F SWAP2 PUSH2 0x17CE PUSH1 0x64 DUP4 PUSH2 0x1D8E JUMP JUMPDEST JUMP JUMPDEST SWAP1 PUSH1 0x0 PUSH1 0x20 SWAP2 DUP3 DUP2 MLOAD SWAP2 ADD DUP3 DUP6 GAS CALL ISZERO PUSH2 0x24CC JUMPI PUSH1 0x0 MLOAD RETURNDATASIZE PUSH2 0x24C3 JUMPI POP PUSH1 0x1 PUSH1 0x1 PUSH1 0xA0 SHL SUB DUP2 AND EXTCODESIZE ISZERO JUMPDEST PUSH2 0x24A2 JUMPI POP JUMP JUMPDEST PUSH4 0x5274AFE7 PUSH1 0xE0 SHL PUSH1 0x0 SWAP1 DUP2 MSTORE PUSH1 0x1 PUSH1 0x1 PUSH1 0xA0 SHL SUB SWAP2 SWAP1 SWAP2 AND PUSH1 0x4 MSTORE PUSH1 0x24 SWAP1 REVERT JUMPDEST PUSH1 0x1 EQ ISZERO PUSH2 0x249B JUMP JUMPDEST PUSH1 0x40 MLOAD RETURNDATASIZE PUSH1 0x0 DUP3 RETURNDATACOPY RETURNDATASIZE SWAP1 REVERT JUMPDEST DUP2 MLOAD SWAP2 SWAP1 PUSH1 0x41 DUP4 SUB PUSH2 0x2509 JUMPI PUSH2 0x2502 SWAP3 POP PUSH1 0x20 DUP3 ADD MLOAD SWAP1 PUSH1 0x60 PUSH1 0x40 DUP5 ADD MLOAD SWAP4 ADD MLOAD PUSH1 0x0 BYTE SWAP1 PUSH2 0x2586 JUMP JUMPDEST SWAP2 SWAP3 SWAP1 SWAP2 SWAP1 JUMP JUMPDEST POP POP PUSH1 0x0 SWAP2 PUSH1 0x2 SWAP2 SWAP1 JUMP JUMPDEST SWAP2 SWAP1 SWAP2 PUSH1 0x4 DUP2 LT ISZERO PUSH2 0x438 JUMPI DUP1 PUSH2 0x252A JUMPI POP SWAP1 POP JUMP JUMPDEST PUSH1 0x0 PUSH1 0x1 DUP3 SUB PUSH2 0x2545 JUMPI PUSH4 0xF645EEDF PUSH1 0xE0 SHL PUSH1 0x0 MSTORE PUSH1 0x4 PUSH1 0x0 REVERT JUMPDEST POP PUSH1 0x2 DUP2 SUB PUSH2 0x2563 JUMPI DUP3 PUSH4 0xFCE698F7 PUSH1 0xE0 SHL PUSH1 0x0 MSTORE PUSH1 0x4 MSTORE PUSH1 0x24 PUSH1 0x0 REVERT JUMPDEST SWAP1 SWAP2 PUSH1 0x3 PUSH1 0x0 SWAP3 EQ PUSH2 0x2573 JUMPI POP POP JUMP JUMPDEST PUSH4 0x35E2F383 PUSH1 0xE2 SHL DUP3 MSTORE PUSH1 0x4 MSTORE PUSH1 0x24 SWAP2 POP REVERT JUMPDEST SWAP2 SWAP1 PUSH32 0x7FFFFFFFFFFFFFFFFFFFFFFFFFFFFFFF5D576E7357A4501DDFE92F46681B20A0 DUP5 GT PUSH2 0x2603 JUMPI SWAP2 PUSH1 0x20 SWAP4 PUSH1 0x80 SWAP3 PUSH1 0xFF PUSH1 0x0 SWAP6 PUSH1 0x40 MLOAD SWAP5 DUP6 MSTORE AND DUP7 DUP5 ADD MSTORE PUSH1 0x40 DUP4 ADD MSTORE PUSH1 0x60 DUP3 ADD MSTORE DUP3 DUP1 MSTORE PUSH1 0x1 GAS STATICCALL ISZERO PUSH2 0x24CC JUMPI PUSH1 0x0 MLOAD PUSH1 0x1 PUSH1 0x1 PUSH1 0xA0 SHL SUB DUP2 AND ISZERO PUSH2 0x25F7 JUMPI SWAP1 PUSH1 0x0 SWAP1 PUSH1 0x0 SWAP1 JUMP JUMPDEST POP PUSH1 0x0 SWAP1 PUSH1 0x1 SWAP1 PUSH1 0x0 SWAP1 JUMP JUMPDEST POP POP POP PUSH1 0x0 SWAP2 PUSH1 0x3 SWAP2 SWAP1 JUMP INVALID LOG2 PUSH5 0x6970667358 0x22 SLT KECCAK256 0x24 0x4B 0xD6 0xCE 0xAF RETURNDATASIZE CALLDATASIZE DIV 0x2D SWAP6 0xE8 0xCE 0xB5 PUSH11 0x1A731FEFF5C52BFF53F8E7 SMOD GAS 0xEF NUMBER 0xC1 DUP7 0xEB PUSH5 0x736F6C6343 STOP ADDMOD SHR STOP CALLER "
        },
        "methodIdentifiers": {
          "DISPUTE_WINDOW()": "f585dc57",
          "adminAddCounter()": "5c04d8ca",
          "adminAddHasApproved(uint256,address)": "c5fa4a98",
          "adminAddProposals(uint256)": "a48448fe",
          "admins(uint256)": "14bfd6d0",
          "approveAddAdmin(uint256)": "daa07856",
          "approveDisputeSolution(uint256)": "0d6043c6",
          "approveOracleUpdate(uint256)": "b9bcaf21",
          "confirmArrival(uint256)": "ae7784d7",
          "createTrade(address,uint256,uint256,uint256,uint256,uint256,bytes32,uint256,uint256,bytes)": "2507cde1",
          "disputeCounter()": "7d36f4d3",
          "disputeHasApproved(uint256,address)": "a0977604",
          "disputeProposals(uint256)": "a94c8f3d",
          "executeAddAdmin(uint256)": "ec9d1517",
          "executeOracleUpdate(uint256)": "ede25b9d",
          "finalizeAfterDisputeWindow(uint256)": "6de2a4f0",
          "getBuyerNonce(address)": "d371cf72",
          "getNextTradeId()": "ea4aa016",
          "governanceApprovals()": "c194bb4e",
          "governanceTimelock()": "9a1fdd79",
          "isAdmin(address)": "24d7806c",
          "nonces(address)": "7ecebe00",
          "openDispute(uint256)": "27d00fb0",
          "oracleAddress()": "a89ae4ba",
          "oracleUpdateCounter()": "e57a7e35",
          "oracleUpdateHasApproved(uint256,address)": "2a3ecca1",
          "oracleUpdateProposals(uint256)": "18c27404",
          "proposeAddAdmin(address)": "749511b1",
          "proposeDisputeSolution(uint256,uint8)": "f565776d",
          "proposeOracleUpdate(address)": "d6d81fa3",
          "releaseFundsStage1(uint256)": "6726b9db",
          "requiredApprovals()": "99c1aadc",
          "tradeCounter()": "660d15b5",
          "tradeHasActiveDisputeProposal(uint256)": "ff0c4ee5",
          "trades(uint256)": "1e6c598e",
          "treasuryAddress()": "c5f956af",
          "usdcToken()": "11eac855"
        }
      }
    }
  }
}