{
  "src/AgroasysEscrow.sol": {
    "AgroasysEscrow": {
      "abi": [
        {
          "inputs": [
            {
              "internalType": "address",
              "name": "_usdcToken",
              "type": "address"
            },
            {
              "internalType": "address",
              "name": "_oracleAddress",
              "type": "address"
            },
            {
              "internalType": "address",
              "name": "_treasuryAddress",
              "type": "address"
            },
            {
              "internalType": "address[]",
              "name": "_admins",
              "type": "address[]"
            },
            {
              "internalType": "uint256",
              "name": "_requiredApprovals",
              "type": "uint256"
            }
          ],
          "stateMutability": "nonpayable",
          "type": "constructor"
        },
        {
          "inputs": [],
          "name": "ECDSAInvalidSignature",
          "type": "error"
        },
        {
          "inputs": [
            {
              "internalType": "uint256",
              "name": "length",
              "type": "uint256"
            }
          ],
          "name": "ECDSAInvalidSignatureLength",
          "type": "error"
        },
        {
          "inputs": [
            {
              "internalType": "bytes32",
              "name": "s",
              "type": "bytes32"
            }
          ],
          "name": "ECDSAInvalidSignatureS",
          "type": "error"
        },
        {
          "inputs": [],
          "name": "ReentrancyGuardReentrantCall",
          "type": "error"
        },
        {
          "inputs": [
            {
              "internalType": "address",
              "name": "token",
              "type": "address"
            }
          ],
          "name": "SafeERC20FailedOperation",
          "type": "error"
        },
        {
          "anonymous": false,
          "inputs": [
            {
              "indexed": true,
              "internalType": "uint256",
              "name": "proposalId",
              "type": "uint256"
            },
            {
              "indexed": true,
              "internalType": "address",
              "name": "approver",
              "type": "address"
            },
            {
              "indexed": false,
              "internalType": "uint256",
              "name": "approvalCount",
              "type": "uint256"
            },
            {
              "indexed": false,
              "internalType": "uint256",
              "name": "requiredApprovals",
              "type": "uint256"
            }
          ],
          "name": "AdminAddApproved",
          "type": "event"
        },
        {
          "anonymous": false,
          "inputs": [
            {
              "indexed": true,
              "internalType": "uint256",
              "name": "proposalId",
              "type": "uint256"
            },
            {
              "indexed": true,
              "internalType": "address",
              "name": "cancelledBy",
              "type": "address"
            }
          ],
          "name": "AdminAddProposalExpiredCancelled",
          "type": "event"
        },
        {
          "anonymous": false,
          "inputs": [
            {
              "indexed": true,
              "internalType": "uint256",
              "name": "proposalId",
              "type": "uint256"
            },
            {
              "indexed": true,
              "internalType": "address",
              "name": "proposer",
              "type": "address"
            },
            {
              "indexed": true,
              "internalType": "address",
              "name": "newAdmin",
              "type": "address"
            },
            {
              "indexed": false,
              "internalType": "uint256",
              "name": "eta",
              "type": "uint256"
            }
          ],
          "name": "AdminAddProposed",
          "type": "event"
        },
        {
          "anonymous": false,
          "inputs": [
            {
              "indexed": true,
              "internalType": "address",
              "name": "newAdmin",
              "type": "address"
            }
          ],
          "name": "AdminAdded",
          "type": "event"
        },
        {
          "anonymous": false,
          "inputs": [
            {
              "indexed": true,
              "internalType": "uint256",
              "name": "tradeId",
              "type": "uint256"
            },
            {
              "indexed": false,
              "internalType": "uint256",
              "name": "arrivalTimestamp",
              "type": "uint256"
            }
          ],
          "name": "ArrivalConfirmed",
          "type": "event"
        },
        {
          "anonymous": false,
          "inputs": [
            {
              "indexed": true,
              "internalType": "uint256",
              "name": "proposalId",
              "type": "uint256"
            },
            {
              "indexed": true,
              "internalType": "address",
              "name": "approver",
              "type": "address"
            },
            {
              "indexed": false,
              "internalType": "uint256",
              "name": "approvalCount",
              "type": "uint256"
            },
            {
              "indexed": false,
              "internalType": "uint256",
              "name": "requiredApprovals",
              "type": "uint256"
            }
          ],
          "name": "DisputeApproved",
          "type": "event"
        },
        {
          "anonymous": false,
          "inputs": [
            {
              "indexed": true,
              "internalType": "uint256",
              "name": "proposalId",
              "type": "uint256"
            },
            {
              "indexed": true,
              "internalType": "uint256",
              "name": "tradeId",
              "type": "uint256"
            },
            {
              "indexed": false,
              "internalType": "enum AgroasysEscrow.DisputeStatus",
              "name": "disputeStatus",
              "type": "uint8"
            }
          ],
          "name": "DisputeFinalized",
          "type": "event"
        },
        {
          "anonymous": false,
          "inputs": [
            {
              "indexed": true,
              "internalType": "uint256",
              "name": "tradeId",
              "type": "uint256"
            }
          ],
          "name": "DisputeOpenedByBuyer",
          "type": "event"
        },
        {
          "anonymous": false,
          "inputs": [
            {
              "indexed": true,
              "internalType": "uint256",
              "name": "tradeId",
              "type": "uint256"
            },
            {
              "indexed": true,
              "internalType": "uint256",
              "name": "proposalId",
              "type": "uint256"
            },
            {
              "indexed": true,
              "internalType": "address",
              "name": "recipient",
              "type": "address"
            },
            {
              "indexed": false,
              "internalType": "uint256",
              "name": "amount",
              "type": "uint256"
            },
            {
              "indexed": false,
              "internalType": "enum AgroasysEscrow.DisputeStatus",
              "name": "payoutType",
              "type": "uint8"
            }
          ],
          "name": "DisputePayout",
          "type": "event"
        },
        {
          "anonymous": false,
          "inputs": [
            {
              "indexed": true,
              "internalType": "uint256",
              "name": "proposalId",
              "type": "uint256"
            },
            {
              "indexed": true,
              "internalType": "uint256",
              "name": "tradeId",
              "type": "uint256"
            },
            {
              "indexed": true,
              "internalType": "address",
              "name": "cancelledBy",
              "type": "address"
            }
          ],
          "name": "DisputeProposalExpiredCancelled",
          "type": "event"
        },
        {
          "anonymous": false,
          "inputs": [
            {
              "indexed": true,
              "internalType": "uint256",
              "name": "proposalId",
              "type": "uint256"
            },
            {
              "indexed": true,
              "internalType": "uint256",
              "name": "tradeId",
              "type": "uint256"
            },
            {
              "indexed": false,
              "internalType": "enum AgroasysEscrow.DisputeStatus",
              "name": "disputeStatus",
              "type": "uint8"
            },
            {
              "indexed": true,
              "internalType": "address",
              "name": "proposer",
              "type": "address"
            }
          ],
          "name": "DisputeSolutionProposed",
          "type": "event"
        },
        {
          "anonymous": false,
          "inputs": [
            {
              "indexed": true,
              "internalType": "uint256",
              "name": "tradeId",
              "type": "uint256"
            },
            {
              "indexed": true,
              "internalType": "address",
              "name": "supplier",
              "type": "address"
            },
            {
              "indexed": false,
              "internalType": "uint256",
              "name": "supplierSecondTranche",
              "type": "uint256"
            }
          ],
          "name": "FinalTrancheReleased",
          "type": "event"
        },
        {
          "anonymous": false,
          "inputs": [
            {
              "indexed": true,
              "internalType": "uint256",
              "name": "tradeId",
              "type": "uint256"
            },
            {
              "indexed": true,
              "internalType": "address",
              "name": "supplier",
              "type": "address"
            },
            {
              "indexed": false,
              "internalType": "uint256",
              "name": "supplierFirstTranche",
              "type": "uint256"
            },
            {
              "indexed": true,
              "internalType": "address",
              "name": "treasury",
              "type": "address"
            },
            {
              "indexed": false,
              "internalType": "uint256",
              "name": "logisticsAmount",
              "type": "uint256"
            }
          ],
          "name": "FundsReleasedStage1",
          "type": "event"
        },
        {
          "anonymous": false,
          "inputs": [
            {
              "indexed": true,
              "internalType": "uint256",
              "name": "tradeId",
              "type": "uint256"
            },
            {
              "indexed": true,
              "internalType": "address",
              "name": "supplier",
              "type": "address"
            },
            {
              "indexed": false,
              "internalType": "uint256",
              "name": "supplierSecondTranche",
              "type": "uint256"
            },
            {
              "indexed": true,
              "internalType": "address",
              "name": "treasury",
              "type": "address"
            },
            {
              "indexed": false,
              "internalType": "uint256",
              "name": "platformFeesAmount",
              "type": "uint256"
            }
          ],
          "name": "FundsReleasedStage2",
          "type": "event"
        },
        {
          "anonymous": false,
          "inputs": [
            {
              "indexed": true,
              "internalType": "uint256",
              "name": "tradeId",
              "type": "uint256"
            },
            {
              "indexed": true,
              "internalType": "address",
              "name": "buyer",
              "type": "address"
            },
            {
              "indexed": false,
              "internalType": "uint256",
              "name": "refundedAmount",
              "type": "uint256"
            }
          ],
          "name": "InTransitTimeoutRefunded",
          "type": "event"
        },
        {
          "anonymous": false,
          "inputs": [
            {
              "indexed": true,
              "internalType": "address",
              "name": "by",
              "type": "address"
            },
            {
              "indexed": true,
              "internalType": "address",
              "name": "previousOracle",
              "type": "address"
            }
          ],
          "name": "OracleDisabledEmergency",
          "type": "event"
        },
        {
          "anonymous": false,
          "inputs": [
            {
              "indexed": true,
              "internalType": "uint256",
              "name": "proposalId",
              "type": "uint256"
            },
            {
              "indexed": true,
              "internalType": "address",
              "name": "approver",
              "type": "address"
            },
            {
              "indexed": false,
              "internalType": "uint256",
              "name": "approvalCount",
              "type": "uint256"
            },
            {
              "indexed": false,
              "internalType": "uint256",
              "name": "requiredApprovals",
              "type": "uint256"
            }
          ],
          "name": "OracleUpdateApproved",
          "type": "event"
        },
        {
          "anonymous": false,
          "inputs": [
            {
              "indexed": true,
              "internalType": "uint256",
              "name": "proposalId",
              "type": "uint256"
            },
            {
              "indexed": true,
              "internalType": "address",
              "name": "cancelledBy",
              "type": "address"
            }
          ],
          "name": "OracleUpdateProposalExpiredCancelled",
          "type": "event"
        },
        {
          "anonymous": false,
          "inputs": [
            {
              "indexed": true,
              "internalType": "uint256",
              "name": "proposalId",
              "type": "uint256"
            },
            {
              "indexed": true,
              "internalType": "address",
              "name": "proposer",
              "type": "address"
            },
            {
              "indexed": true,
              "internalType": "address",
              "name": "newOracle",
              "type": "address"
            },
            {
              "indexed": false,
              "internalType": "uint256",
              "name": "eta",
              "type": "uint256"
            },
            {
              "indexed": false,
              "internalType": "bool",
              "name": "emergencyFastTrack",
              "type": "bool"
            }
          ],
          "name": "OracleUpdateProposed",
          "type": "event"
        },
        {
          "anonymous": false,
          "inputs": [
            {
              "indexed": true,
              "internalType": "address",
              "name": "oldOracle",
              "type": "address"
            },
            {
              "indexed": true,
              "internalType": "address",
              "name": "newOracle",
              "type": "address"
            }
          ],
          "name": "OracleUpdated",
          "type": "event"
        },
        {
          "anonymous": false,
          "inputs": [
            {
              "indexed": true,
              "internalType": "address",
              "name": "by",
              "type": "address"
            }
          ],
          "name": "Paused",
          "type": "event"
        },
        {
          "anonymous": false,
          "inputs": [
            {
              "indexed": true,
              "internalType": "uint256",
              "name": "tradeId",
              "type": "uint256"
            },
            {
              "indexed": true,
              "internalType": "address",
              "name": "treasury",
              "type": "address"
            },
            {
              "indexed": false,
              "internalType": "uint256",
              "name": "platformFeesAmount",
              "type": "uint256"
            }
          ],
          "name": "PlatformFeesPaidStage1",
          "type": "event"
        },
        {
          "anonymous": false,
          "inputs": [
            {
              "indexed": true,
              "internalType": "uint256",
              "name": "tradeId",
              "type": "uint256"
            },
            {
              "indexed": true,
              "internalType": "address",
              "name": "buyer",
              "type": "address"
            },
            {
              "indexed": false,
              "internalType": "uint256",
              "name": "refundedAmount",
              "type": "uint256"
            }
          ],
          "name": "TradeCancelledAfterLockTimeout",
          "type": "event"
        },
        {
          "anonymous": false,
          "inputs": [
            {
              "indexed": true,
              "internalType": "uint256",
              "name": "tradeId",
              "type": "uint256"
            },
            {
              "indexed": true,
              "internalType": "address",
              "name": "buyer",
              "type": "address"
            },
            {
              "indexed": true,
              "internalType": "address",
              "name": "supplier",
              "type": "address"
            },
            {
              "indexed": false,
              "internalType": "uint256",
              "name": "totalAmount",
              "type": "uint256"
            },
            {
              "indexed": false,
              "internalType": "uint256",
              "name": "logisticsAmount",
              "type": "uint256"
            },
            {
              "indexed": false,
              "internalType": "uint256",
              "name": "platformFeesAmount",
              "type": "uint256"
            },
            {
              "indexed": false,
              "internalType": "uint256",
              "name": "supplierFirstTranche",
              "type": "uint256"
            },
            {
              "indexed": false,
              "internalType": "uint256",
              "name": "supplierSecondTranche",
              "type": "uint256"
            },
            {
              "indexed": false,
              "internalType": "bytes32",
              "name": "ricardianHash",
              "type": "bytes32"
            }
          ],
          "name": "TradeLocked",
          "type": "event"
        },
        {
          "anonymous": false,
          "inputs": [
            {
              "indexed": true,
              "internalType": "address",
              "name": "approver",
              "type": "address"
            },
            {
              "indexed": false,
              "internalType": "uint256",
              "name": "approvalCount",
              "type": "uint256"
            },
            {
              "indexed": false,
              "internalType": "uint256",
              "name": "requiredApprovals",
              "type": "uint256"
            }
          ],
          "name": "UnpauseApproved",
          "type": "event"
        },
        {
          "anonymous": false,
          "inputs": [
            {
              "indexed": true,
              "internalType": "address",
              "name": "cancelledBy",
              "type": "address"
            }
          ],
          "name": "UnpauseProposalCancelled",
          "type": "event"
        },
        {
          "anonymous": false,
          "inputs": [
            {
              "indexed": true,
              "internalType": "address",
              "name": "proposer",
              "type": "address"
            }
          ],
          "name": "UnpauseProposed",
          "type": "event"
        },
        {
          "anonymous": false,
          "inputs": [
            {
              "indexed": true,
              "internalType": "address",
              "name": "by",
              "type": "address"
            }
          ],
          "name": "Unpaused",
          "type": "event"
        },
        {
          "inputs": [],
          "name": "DISPUTE_PROPOSAL_TTL",
          "outputs": [
            {
              "internalType": "uint256",
              "name": "",
              "type": "uint256"
            }
          ],
          "stateMutability": "view",
          "type": "function"
        },
        {
          "inputs": [],
          "name": "DISPUTE_WINDOW",
          "outputs": [
            {
              "internalType": "uint256",
              "name": "",
              "type": "uint256"
            }
          ],
          "stateMutability": "view",
          "type": "function"
        },
        {
          "inputs": [],
          "name": "GOVERNANCE_PROPOSAL_TTL",
          "outputs": [
            {
              "internalType": "uint256",
              "name": "",
              "type": "uint256"
            }
          ],
          "stateMutability": "view",
          "type": "function"
        },
        {
          "inputs": [],
          "name": "IN_TRANSIT_TIMEOUT",
          "outputs": [
            {
              "internalType": "uint256",
              "name": "",
              "type": "uint256"
            }
          ],
          "stateMutability": "view",
          "type": "function"
        },
        {
          "inputs": [],
          "name": "LOCK_TIMEOUT",
          "outputs": [
            {
              "internalType": "uint256",
              "name": "",
              "type": "uint256"
            }
          ],
          "stateMutability": "view",
          "type": "function"
        },
        {
          "inputs": [],
          "name": "adminAddCounter",
          "outputs": [
            {
              "internalType": "uint256",
              "name": "",
              "type": "uint256"
            }
          ],
          "stateMutability": "view",
          "type": "function"
        },
        {
          "inputs": [
            {
              "internalType": "uint256",
              "name": "",
              "type": "uint256"
            },
            {
              "internalType": "address",
              "name": "",
              "type": "address"
            }
          ],
          "name": "adminAddHasApproved",
          "outputs": [
            {
              "internalType": "bool",
              "name": "",
              "type": "bool"
            }
          ],
          "stateMutability": "view",
          "type": "function"
        },
        {
          "inputs": [
            {
              "internalType": "uint256",
              "name": "",
              "type": "uint256"
            }
          ],
          "name": "adminAddProposalCancelled",
          "outputs": [
            {
              "internalType": "bool",
              "name": "",
              "type": "bool"
            }
          ],
          "stateMutability": "view",
          "type": "function"
        },
        {
          "inputs": [
            {
              "internalType": "uint256",
              "name": "",
              "type": "uint256"
            }
          ],
          "name": "adminAddProposalExpiresAt",
          "outputs": [
            {
              "internalType": "uint256",
              "name": "",
              "type": "uint256"
            }
          ],
          "stateMutability": "view",
          "type": "function"
        },
        {
          "inputs": [
            {
              "internalType": "uint256",
              "name": "",
              "type": "uint256"
            }
          ],
          "name": "adminAddProposals",
          "outputs": [
            {
              "internalType": "address",
              "name": "newAdmin",
              "type": "address"
            },
            {
              "internalType": "uint256",
              "name": "approvalCount",
              "type": "uint256"
            },
            {
              "internalType": "bool",
              "name": "executed",
              "type": "bool"
            },
            {
              "internalType": "uint256",
              "name": "createdAt",
              "type": "uint256"
            },
            {
              "internalType": "uint256",
              "name": "eta",
              "type": "uint256"
            },
            {
              "internalType": "address",
              "name": "proposer",
              "type": "address"
            }
          ],
          "stateMutability": "view",
          "type": "function"
        },
        {
          "inputs": [
            {
              "internalType": "uint256",
              "name": "",
              "type": "uint256"
            }
          ],
          "name": "admins",
          "outputs": [
            {
              "internalType": "address",
              "name": "",
              "type": "address"
            }
          ],
          "stateMutability": "view",
          "type": "function"
        },
        {
          "inputs": [
            {
              "internalType": "uint256",
              "name": "_proposalId",
              "type": "uint256"
            }
          ],
          "name": "approveAddAdmin",
          "outputs": [],
          "stateMutability": "nonpayable",
          "type": "function"
        },
        {
          "inputs": [
            {
              "internalType": "uint256",
              "name": "_proposalId",
              "type": "uint256"
            }
          ],
          "name": "approveDisputeSolution",
          "outputs": [],
          "stateMutability": "nonpayable",
          "type": "function"
        },
        {
          "inputs": [
            {
              "internalType": "uint256",
              "name": "_proposalId",
              "type": "uint256"
            }
          ],
          "name": "approveOracleUpdate",
          "outputs": [],
          "stateMutability": "nonpayable",
          "type": "function"
        },
        {
          "inputs": [],
          "name": "approveUnpause",
          "outputs": [],
          "stateMutability": "nonpayable",
          "type": "function"
        },
        {
          "inputs": [
            {
              "internalType": "uint256",
              "name": "_proposalId",
              "type": "uint256"
            }
          ],
          "name": "cancelExpiredAddAdminProposal",
          "outputs": [],
          "stateMutability": "nonpayable",
          "type": "function"
        },
        {
          "inputs": [
            {
              "internalType": "uint256",
              "name": "_proposalId",
              "type": "uint256"
            }
          ],
          "name": "cancelExpiredDisputeProposal",
          "outputs": [],
          "stateMutability": "nonpayable",
          "type": "function"
        },
        {
          "inputs": [
            {
              "internalType": "uint256",
              "name": "_proposalId",
              "type": "uint256"
            }
          ],
          "name": "cancelExpiredOracleUpdateProposal",
          "outputs": [],
          "stateMutability": "nonpayable",
          "type": "function"
        },
        {
          "inputs": [
            {
              "internalType": "uint256",
              "name": "_tradeId",
              "type": "uint256"
            }
          ],
          "name": "cancelLockedTradeAfterTimeout",
          "outputs": [],
          "stateMutability": "nonpayable",
          "type": "function"
        },
        {
          "inputs": [],
          "name": "cancelUnpauseProposal",
          "outputs": [],
          "stateMutability": "nonpayable",
          "type": "function"
        },
        {
          "inputs": [
            {
              "internalType": "uint256",
              "name": "_tradeId",
              "type": "uint256"
            }
          ],
          "name": "confirmArrival",
          "outputs": [],
          "stateMutability": "nonpayable",
          "type": "function"
        },
        {
          "inputs": [
            {
              "internalType": "address",
              "name": "_supplier",
              "type": "address"
            },
            {
              "internalType": "uint256",
              "name": "_totalAmount",
              "type": "uint256"
            },
            {
              "internalType": "uint256",
              "name": "_logisticsAmount",
              "type": "uint256"
            },
            {
              "internalType": "uint256",
              "name": "_platformFeesAmount",
              "type": "uint256"
            },
            {
              "internalType": "uint256",
              "name": "_supplierFirstTranche",
              "type": "uint256"
            },
            {
              "internalType": "uint256",
              "name": "_supplierSecondTranche",
              "type": "uint256"
            },
            {
              "internalType": "bytes32",
              "name": "_ricardianHash",
              "type": "bytes32"
            },
            {
              "internalType": "uint256",
              "name": "_buyerNonce",
              "type": "uint256"
            },
            {
              "internalType": "uint256",
              "name": "_deadline",
              "type": "uint256"
            },
            {
              "internalType": "bytes",
              "name": "_signature",
              "type": "bytes"
            }
          ],
          "name": "createTrade",
          "outputs": [
            {
              "internalType": "uint256",
              "name": "",
              "type": "uint256"
            }
          ],
          "stateMutability": "nonpayable",
          "type": "function"
        },
        {
          "inputs": [],
          "name": "disableOracleEmergency",
          "outputs": [],
          "stateMutability": "nonpayable",
          "type": "function"
        },
        {
          "inputs": [],
          "name": "disputeCounter",
          "outputs": [
            {
              "internalType": "uint256",
              "name": "",
              "type": "uint256"
            }
          ],
          "stateMutability": "view",
          "type": "function"
        },
        {
          "inputs": [
            {
              "internalType": "uint256",
              "name": "",
              "type": "uint256"
            },
            {
              "internalType": "address",
              "name": "",
              "type": "address"
            }
          ],
          "name": "disputeHasApproved",
          "outputs": [
            {
              "internalType": "bool",
              "name": "",
              "type": "bool"
            }
          ],
          "stateMutability": "view",
          "type": "function"
        },
        {
          "inputs": [
            {
              "internalType": "uint256",
              "name": "",
              "type": "uint256"
            }
          ],
          "name": "disputeProposalCancelled",
          "outputs": [
            {
              "internalType": "bool",
              "name": "",
              "type": "bool"
            }
          ],
          "stateMutability": "view",
          "type": "function"
        },
        {
          "inputs": [
            {
              "internalType": "uint256",
              "name": "",
              "type": "uint256"
            }
          ],
          "name": "disputeProposalExpiresAt",
          "outputs": [
            {
              "internalType": "uint256",
              "name": "",
              "type": "uint256"
            }
          ],
          "stateMutability": "view",
          "type": "function"
        },
        {
          "inputs": [
            {
              "internalType": "uint256",
              "name": "",
              "type": "uint256"
            }
          ],
          "name": "disputeProposals",
          "outputs": [
            {
              "internalType": "uint256",
              "name": "tradeId",
              "type": "uint256"
            },
            {
              "internalType": "enum AgroasysEscrow.DisputeStatus",
              "name": "disputeStatus",
              "type": "uint8"
            },
            {
              "internalType": "uint256",
              "name": "approvalCount",
              "type": "uint256"
            },
            {
              "internalType": "bool",
              "name": "executed",
              "type": "bool"
            },
            {
              "internalType": "uint256",
              "name": "createdAt",
              "type": "uint256"
            },
            {
              "internalType": "address",
              "name": "proposer",
              "type": "address"
            }
          ],
          "stateMutability": "view",
          "type": "function"
        },
        {
          "inputs": [
            {
              "internalType": "uint256",
              "name": "_proposalId",
              "type": "uint256"
            }
          ],
          "name": "executeAddAdmin",
          "outputs": [],
          "stateMutability": "nonpayable",
          "type": "function"
        },
        {
          "inputs": [
            {
              "internalType": "uint256",
              "name": "_proposalId",
              "type": "uint256"
            }
          ],
          "name": "executeOracleUpdate",
          "outputs": [],
          "stateMutability": "nonpayable",
          "type": "function"
        },
        {
          "inputs": [
            {
              "internalType": "uint256",
              "name": "_tradeId",
              "type": "uint256"
            }
          ],
          "name": "finalizeAfterDisputeWindow",
          "outputs": [],
          "stateMutability": "nonpayable",
          "type": "function"
        },
        {
          "inputs": [
            {
              "internalType": "address",
              "name": "buyer",
              "type": "address"
            }
          ],
          "name": "getBuyerNonce",
          "outputs": [
            {
              "internalType": "uint256",
              "name": "",
              "type": "uint256"
            }
          ],
          "stateMutability": "view",
          "type": "function"
        },
        {
          "inputs": [],
          "name": "getNextTradeId",
          "outputs": [
            {
              "internalType": "uint256",
              "name": "",
              "type": "uint256"
            }
          ],
          "stateMutability": "view",
          "type": "function"
        },
        {
          "inputs": [],
          "name": "governanceApprovals",
          "outputs": [
            {
              "internalType": "uint256",
              "name": "",
              "type": "uint256"
            }
          ],
          "stateMutability": "view",
          "type": "function"
        },
        {
          "inputs": [],
          "name": "governanceTimelock",
          "outputs": [
            {
              "internalType": "uint256",
              "name": "",
              "type": "uint256"
            }
          ],
          "stateMutability": "view",
          "type": "function"
        },
        {
          "inputs": [],
          "name": "hasActiveUnpauseProposal",
          "outputs": [
            {
              "internalType": "bool",
              "name": "",
              "type": "bool"
            }
          ],
          "stateMutability": "view",
          "type": "function"
        },
        {
          "inputs": [
            {
              "internalType": "uint256",
              "name": "",
              "type": "uint256"
            }
          ],
          "name": "inTransitSince",
          "outputs": [
            {
              "internalType": "uint256",
              "name": "",
              "type": "uint256"
            }
          ],
          "stateMutability": "view",
          "type": "function"
        },
        {
          "inputs": [
            {
              "internalType": "address",
              "name": "",
              "type": "address"
            }
          ],
          "name": "isAdmin",
          "outputs": [
            {
              "internalType": "bool",
              "name": "",
              "type": "bool"
            }
          ],
          "stateMutability": "view",
          "type": "function"
        },
        {
          "inputs": [
            {
              "internalType": "address",
              "name": "",
              "type": "address"
            }
          ],
          "name": "nonces",
          "outputs": [
            {
              "internalType": "uint256",
              "name": "",
              "type": "uint256"
            }
          ],
          "stateMutability": "view",
          "type": "function"
        },
        {
          "inputs": [
            {
              "internalType": "uint256",
              "name": "_tradeId",
              "type": "uint256"
            }
          ],
          "name": "openDispute",
          "outputs": [],
          "stateMutability": "nonpayable",
          "type": "function"
        },
        {
          "inputs": [],
          "name": "oracleActive",
          "outputs": [
            {
              "internalType": "bool",
              "name": "",
              "type": "bool"
            }
          ],
          "stateMutability": "view",
          "type": "function"
        },
        {
          "inputs": [],
          "name": "oracleAddress",
          "outputs": [
            {
              "internalType": "address",
              "name": "",
              "type": "address"
            }
          ],
          "stateMutability": "view",
          "type": "function"
        },
        {
          "inputs": [],
          "name": "oracleUpdateCounter",
          "outputs": [
            {
              "internalType": "uint256",
              "name": "",
              "type": "uint256"
            }
          ],
          "stateMutability": "view",
          "type": "function"
        },
        {
          "inputs": [
            {
              "internalType": "uint256",
              "name": "",
              "type": "uint256"
            },
            {
              "internalType": "address",
              "name": "",
              "type": "address"
            }
          ],
          "name": "oracleUpdateHasApproved",
          "outputs": [
            {
              "internalType": "bool",
              "name": "",
              "type": "bool"
            }
          ],
          "stateMutability": "view",
          "type": "function"
        },
        {
          "inputs": [
            {
              "internalType": "uint256",
              "name": "",
              "type": "uint256"
            }
          ],
          "name": "oracleUpdateProposalCancelled",
          "outputs": [
            {
              "internalType": "bool",
              "name": "",
              "type": "bool"
            }
          ],
          "stateMutability": "view",
          "type": "function"
        },
        {
          "inputs": [
            {
              "internalType": "uint256",
              "name": "",
              "type": "uint256"
            }
          ],
          "name": "oracleUpdateProposalExpiresAt",
          "outputs": [
            {
              "internalType": "uint256",
              "name": "",
              "type": "uint256"
            }
          ],
          "stateMutability": "view",
          "type": "function"
        },
        {
          "inputs": [
            {
              "internalType": "uint256",
              "name": "",
              "type": "uint256"
            }
          ],
          "name": "oracleUpdateProposals",
          "outputs": [
            {
              "internalType": "address",
              "name": "newOracle",
              "type": "address"
            },
            {
              "internalType": "uint256",
              "name": "approvalCount",
              "type": "uint256"
            },
            {
              "internalType": "bool",
              "name": "executed",
              "type": "bool"
            },
            {
              "internalType": "uint256",
              "name": "createdAt",
              "type": "uint256"
            },
            {
              "internalType": "uint256",
              "name": "eta",
              "type": "uint256"
            },
            {
              "internalType": "address",
              "name": "proposer",
              "type": "address"
            },
            {
              "internalType": "bool",
              "name": "emergencyFastTrack",
              "type": "bool"
            }
          ],
          "stateMutability": "view",
          "type": "function"
        },
        {
          "inputs": [],
          "name": "pause",
          "outputs": [],
          "stateMutability": "nonpayable",
          "type": "function"
        },
        {
          "inputs": [],
          "name": "paused",
          "outputs": [
            {
              "internalType": "bool",
              "name": "",
              "type": "bool"
            }
          ],
          "stateMutability": "view",
          "type": "function"
        },
        {
          "inputs": [
            {
              "internalType": "address",
              "name": "_newAdmin",
              "type": "address"
            }
          ],
          "name": "proposeAddAdmin",
          "outputs": [
            {
              "internalType": "uint256",
              "name": "",
              "type": "uint256"
            }
          ],
          "stateMutability": "nonpayable",
          "type": "function"
        },
        {
          "inputs": [
            {
              "internalType": "uint256",
              "name": "_tradeId",
              "type": "uint256"
            },
            {
              "internalType": "enum AgroasysEscrow.DisputeStatus",
              "name": "_disputeStatus",
              "type": "uint8"
            }
          ],
          "name": "proposeDisputeSolution",
          "outputs": [
            {
              "internalType": "uint256",
              "name": "",
              "type": "uint256"
            }
          ],
          "stateMutability": "nonpayable",
          "type": "function"
        },
        {
          "inputs": [
            {
              "internalType": "address",
              "name": "_newOracle",
              "type": "address"
            }
          ],
          "name": "proposeOracleUpdate",
          "outputs": [
            {
              "internalType": "uint256",
              "name": "",
              "type": "uint256"
            }
          ],
          "stateMutability": "nonpayable",
          "type": "function"
        },
        {
          "inputs": [],
          "name": "proposeUnpause",
          "outputs": [
            {
              "internalType": "bool",
              "name": "",
              "type": "bool"
            }
          ],
          "stateMutability": "nonpayable",
          "type": "function"
        },
        {
          "inputs": [
            {
              "internalType": "uint256",
              "name": "_tradeId",
              "type": "uint256"
            }
          ],
          "name": "refundInTransitAfterTimeout",
          "outputs": [],
          "stateMutability": "nonpayable",
          "type": "function"
        },
        {
          "inputs": [
            {
              "internalType": "uint256",
              "name": "_tradeId",
              "type": "uint256"
            }
          ],
          "name": "releaseFundsStage1",
          "outputs": [],
          "stateMutability": "nonpayable",
          "type": "function"
        },
        {
          "inputs": [],
          "name": "requiredApprovals",
          "outputs": [
            {
              "internalType": "uint256",
              "name": "",
              "type": "uint256"
            }
          ],
          "stateMutability": "view",
          "type": "function"
        },
        {
          "inputs": [
            {
              "internalType": "uint256",
              "name": "",
              "type": "uint256"
            }
          ],
          "name": "tradeActiveDisputeProposalId",
          "outputs": [
            {
              "internalType": "uint256",
              "name": "",
              "type": "uint256"
            }
          ],
          "stateMutability": "view",
          "type": "function"
        },
        {
          "inputs": [],
          "name": "tradeCounter",
          "outputs": [
            {
              "internalType": "uint256",
              "name": "",
              "type": "uint256"
            }
          ],
          "stateMutability": "view",
          "type": "function"
        },
        {
          "inputs": [
            {
              "internalType": "uint256",
              "name": "",
              "type": "uint256"
            }
          ],
          "name": "tradeHasActiveDisputeProposal",
          "outputs": [
            {
              "internalType": "bool",
              "name": "",
              "type": "bool"
            }
          ],
          "stateMutability": "view",
          "type": "function"
        },
        {
          "inputs": [
            {
              "internalType": "uint256",
              "name": "",
              "type": "uint256"
            }
          ],
          "name": "trades",
          "outputs": [
            {
              "internalType": "uint256",
              "name": "tradeId",
              "type": "uint256"
            },
            {
              "internalType": "bytes32",
              "name": "ricardianHash",
              "type": "bytes32"
            },
            {
              "internalType": "enum AgroasysEscrow.TradeStatus",
              "name": "status",
              "type": "uint8"
            },
            {
              "internalType": "address",
              "name": "buyerAddress",
              "type": "address"
            },
            {
              "internalType": "address",
              "name": "supplierAddress",
              "type": "address"
            },
            {
              "internalType": "uint256",
              "name": "totalAmountLocked",
              "type": "uint256"
            },
            {
              "internalType": "uint256",
              "name": "logisticsAmount",
              "type": "uint256"
            },
            {
              "internalType": "uint256",
              "name": "platformFeesAmount",
              "type": "uint256"
            },
            {
              "internalType": "uint256",
              "name": "supplierFirstTranche",
              "type": "uint256"
            },
            {
              "internalType": "uint256",
              "name": "supplierSecondTranche",
              "type": "uint256"
            },
            {
              "internalType": "uint256",
              "name": "createdAt",
              "type": "uint256"
            },
            {
              "internalType": "uint256",
              "name": "arrivalTimestamp",
              "type": "uint256"
            }
          ],
          "stateMutability": "view",
          "type": "function"
        },
        {
          "inputs": [],
          "name": "treasuryAddress",
          "outputs": [
            {
              "internalType": "address",
              "name": "",
              "type": "address"
            }
          ],
          "stateMutability": "view",
          "type": "function"
        },
        {
          "inputs": [
            {
              "internalType": "address",
              "name": "",
              "type": "address"
            }
          ],
          "name": "unpauseHasApproved",
          "outputs": [
            {
              "internalType": "bool",
              "name": "",
              "type": "bool"
            }
          ],
          "stateMutability": "view",
          "type": "function"
        },
        {
          "inputs": [],
          "name": "unpauseProposal",
          "outputs": [
            {
              "internalType": "uint256",
              "name": "approvalCount",
              "type": "uint256"
            },
            {
              "internalType": "bool",
              "name": "executed",
              "type": "bool"
            },
            {
              "internalType": "uint256",
              "name": "createdAt",
              "type": "uint256"
            },
            {
              "internalType": "address",
              "name": "proposer",
              "type": "address"
            }
          ],
          "stateMutability": "view",
          "type": "function"
        },
        {
          "inputs": [],
          "name": "usdcToken",
          "outputs": [
            {
              "internalType": "contract IERC20",
              "name": "",
              "type": "address"
            }
          ],
          "stateMutability": "view",
          "type": "function"
        }
      ],
      "evm": {
        "bytecode": {
          "linkReferences": {},
          "object": "6080604052346103d85761402080380380610019816103f3565b92833981019060a0818303126103d85761003281610418565b9061003f60208201610418565b9061004c60408201610418565b60608201519091906001600160401b0381116103d85781019480601f870112156103d8578551956001600160401b0387116103dd578660051b906020806100948185016103f3565b809a815201928201019283116103d857602001905b8282106103c057505050608001516001600055926001600160a01b031691821561038b576001600160a01b0316908115610355576001600160a01b031691821561031d5783156102d8578385511061029f5760018060a01b0319600e541617600e5560018060a01b0319600c541617600c5560018060a01b0319600d541617600d556011556000905b805182101561027657600582901b810160200151600092906001600160a01b0316801561024557808452601060205260ff60408520541661020e57600f54680100000000000000008110156101fa576001810180600f558110156101e6577f8d1108e10bcb7c27dddfc02ed9d693a074039d026cf4ea4240b40f7d581ac8020180546001600160a01b03191682179055835260106020526040909220805460ff191660019081179091559190910190610132565b634e487b7160e01b85526032600452602485fd5b634e487b7160e01b85526041600452602485fd5b60405162461bcd60e51b815260206004820152600f60248201526e323ab83634b1b0ba329030b236b4b760891b6044820152606490fd5b60405162461bcd60e51b81526020600482015260096024820152683130b21030b236b4b760b91b6044820152606490fd5b62015180601855600d805460ff60a81b1916600160a81b179055604051613bf3908161042d8239f35b60405162461bcd60e51b81526020600482015260116024820152706e6f7420656e6f7567682061646d696e7360781b6044820152606490fd5b60405162461bcd60e51b815260206004820152601e60248201527f726571756972656420617070726f76616c73206d757374206265203e203000006044820152606490fd5b60405162461bcd60e51b815260206004820152601060248201526f696e76616c696420747265617375727960801b6044820152606490fd5b60405162461bcd60e51b815260206004820152600e60248201526d696e76616c6964206f7261636c6560901b6044820152606490fd5b60405162461bcd60e51b815260206004820152600d60248201526c34b73b30b634b2103a37b5b2b760991b6044820152606490fd5b602080916103cd84610418565b8152019101906100a9565b600080fd5b634e487b7160e01b600052604160045260246000fd5b6040519190601f01601f191682016001600160401b038111838210176103dd57604052565b51906001600160a01b03821682036103d85756fe6080604052600436101561001257600080fd5b60003560e01c80630d6043c614612d2257806311eac85514612cf957806314bfd6d014612cb757806318c2740414612c325780631e6c598e14612b6f57806320e32a5314612b4357806324d7806c14612b045780632507cde11461253c5780632715048c1461246857806327d00fb01461235b5780632a3ecca11461230e5780632a4591ba146122cf5780634be935711461213f5780635ab8621e1461210e5780635c04d8ca146120f05780635c975abb146120ca578063620dc23a14611fab578063660d15b514610ae55780636726b9db14611e1e57806368d69b61146113aa5780636de2a4f014611cd3578063710bb97914611ca8578063749511b114611a9f5780637526b0ea146113aa57806376d622ce146119c157806376ebb7e01461199557806377d8f09d1461183e5780637d36f4d3146118205780637ecebe0014610f5f57806381b2ce31146117ce5780638354415d146117075780638456cb591461166057806386f23a351461163a5780638d2304ee1461160e57806396f84c09146115dd57806399c1aadc146115bf5780639a1fdd79146115a15780639b5e3061146113fc578063a0977604146113af578063a375d807146113aa578063a48448fe14611331578063a89ae4ba14611308578063a94c8f3d1461128c578063ae7784d7146111ae578063b9bcaf211461106b578063c0e8f6a71461104d578063c194bb4e14611032578063c5f956af14611009578063c5fa4a9814610fbc578063cc792e0d14610f99578063d371cf7214610f5f578063d6d81fa314610ca7578063daa0785614610b65578063dc88100e14610b21578063e57a7e3514610b03578063ea4aa01614610ae5578063ec9d151714610960578063ede25b9d1461082f578063ee5798ae146107fe578063f565776d146104bb578063f585dc571461049d578063fae8a3d61461033e578063fcb0aa02146103125763ff0c4ee5146102dc57600080fd5b3461030d57602036600319011261030d576004356000526006602052602060ff604060002054166040519015158152f35b600080fd5b3461030d57602036600319011261030d57600435600052601b6020526020604060002054604051908152f35b3461030d57600036600319011261030d5733600052601060205261036960ff60406000205416612f7c565b61038860ff600d5461037f828260a01c16613354565b60a81c1661344c565b60ff60175416610490575b6040516080810181811067ffffffffffffffff82111761047a576040526001815260006020820152426040820152606033910152600160125560ff196013541660135542601455336001600160601b0360a01b60155416176015553360005260166020526040600020600160ff19825416179055600160ff196017541617601755604051337f0c098089b7550dc564f1a038c8820df7c94ad41baa6be122a568c720c323ce3c600080a26011546001825260208201527ff250c8cac0e5a06311da43d7d136f294ff38fe995468d5352d5b795bec30020a60403392a2602060405160018152f35b634e487b7160e01b600052604160045260246000fd5b610498613991565b610393565b3461030d57600036600319011261030d576020604051620151808152f35b3461030d57604036600319011261030d57600435602435600281101561030d573360005260106020526104f560ff60406000205416612f7c565b61050760ff600d5460a01c1615612fb5565b6105146002548310613253565b81600052600160205260ff6002604060002001541660058110156107e857600361053e9114613136565b81600052600660205260ff604060002054166106fa575b600a5490610562826131b4565b600a556040519261057284612f13565b8084526020840193600094838152604082016001815260608301878152608084019142835260a0850193338552888a52600460205260408a209551865560018601905160028110156106e657916005959493916105f39360ff80198354169116179055516002870155511515600386019060ff801983541691151516179055565b51600484015551910180546001600160a01b0319166001600160a01b03929092169190911790558284526005602090815260408086203387528252808620805460ff1990811660019081179092558488526006845282882080549091169091179055828652600790915284208390554262093a8081019081106106d257604085856020975260088752205561068b6040518093612f6f565b827f169133ad218243916e40f5d940b11e6662965ad0b9436428ec3ec92af6593fbb853394a46001601154146106c4575b604051908152f35b6106cd8161364d565b6106bc565b634e487b7160e01b85526011600452602485fd5b634e487b7160e01b8b52602160045260248bfd5b8160005260076020526040600020548060005260086020526040600020544211806107cf575b15610791578060005260096020526040600020600160ff19825416179055826000526006602052604060002060ff198154169055826000526007602052600060408120558233917f7d0d8277552faa3f645755b68537c6cdbbd2b3415f4fc4ec554d62d4824311d1600080a4610555565b60405162461bcd60e51b81526020600482015260166024820152756163746976652070726f706f73616c2065786973747360501b6044820152606490fd5b5080600052600960205260ff6040600020541615610720565b634e487b7160e01b600052602160045260246000fd5b3461030d57602036600319011261030d57600435600052601c602052602060ff604060002054166040519015158152f35b3461030d57602036600319011261030d5760043533600052601060205261085d60ff60406000205416612f7c565b61086a601d548210612fea565b8060005260196020526040600020906108886003830154151561302b565b6001600283019182549061089f60ff831615613077565b80600052601c6020526108ba60ff60406000205416156130b6565b600052601b6020526108d36040600020544211156130f7565b6108e9828501546108e2613590565b11156135a5565b6108f960048501544210156135e8565b60ff1916179055600c805482546001600160a01b031982166001600160a01b0391821617909255600d805460ff60a81b1916600160a81b1790559154811691167f078c3b417dadf69374a59793b829c52001247130433427049317bde56607b1b7600080a3005b3461030d57602036600319011261030d5760043533600052601060205261098e60ff60406000205416612f7c565b61099b6022548210612fea565b80600052601e6020526040600020906109b96003830154151561302b565b600282018054916109cd60ff841615613077565b8060005260216020526109e860ff60406000205416156130b6565b60005260208052610a006040600020544211156130f7565b610a1060018401546108e2613590565b610a2060048401544210156135e8565b82546001600160a01b031691600190610a3a84151561348a565b836000526010602052610a5560ff60406000205416156134c6565b60ff1916179055600f546801000000000000000081101561047a57806001610a809201600f55612eb6565b815460039190911b92831b6001600160a01b039384901b19909116179055815481166000908152601060205260408120805460ff19166001179055915416907f44d6d25963f097ad14f29f06854a01f575648a1ef82f30e562ccd3889717e3399080a2005b3461030d57600036600319011261030d576020600254604051908152f35b3461030d57600036600319011261030d576020601d54604051908152f35b3461030d57600036600319011261030d57608060125460ff6013541660145460018060a01b0360155416916040519384521515602084015260408301526060820152f35b3461030d57602036600319011261030d57600435336000526010602052610b9360ff60406000205416612f7c565b610ba06022548210612fea565b80600052601e60205260016040600020610bbf6003820154151561302b565b610bd060ff60028301541615613077565b826000526021602052610beb60ff60406000205416156130b6565b8260005260208052610c046040600020544211156130f7565b82600052601f6020526040600020828060a01b033316600052602052610c3260ff6040600020541615613175565b82600052601f6020526040600020828060a01b03331660005260205260406000208260ff198254161790550190610c6982546131b4565b809255610c74613590565b60405192835260208301527fb8cacf822d821b4e79cb750d1368c77e7e7ec2aee16f886327cd7c756f47c22360403393a3005b3461030d57602036600319011261030d57610cc0612ee7565b336000526010602052610cda60ff60406000205416612f7c565b6001600160a01b03168015610f2957600c546001600160a01b03168114610ef657610d10600f54610d09613590565b1115613502565b601d54610d1c816131b4565b601d55600d5460a81c60ff1615918215610ee557425b60405160e0810181811067ffffffffffffffff82111761047a5760405282815260208101600181526005604083019260008452606081014281526080820190868252610dd860a084019633885260c08501968c88528b600052601960205260406000209560018060a01b039060018060a01b03905116166001600160601b0360a01b875416178655516001860155511515600285019060ff801983541691151516179055565b51600383015551600482015592519201805491516001600160a81b03199092166001600160a01b03939093169290921790151560a01b60ff60a01b161790556000838152601a602090815260408083203384529091529020805460ff191660011790554262093a80810194908510610ecf5760209484600052601b865260406000205560405191825284820152827faff168a4e1fa91858b5fc1c223cee9cc0eaeaddb0b29c18df1630e08305bd80260403393a4610e94613590565b604051906001825283820152817ff39407f640014cb0220c4f7b0a6cc6acee38a440a8add233fa88e8c98b95b25c60403393a3604051908152f35b634e487b7160e01b600052601160045260246000fd5b610ef1601854426131c3565b610d32565b60405162461bcd60e51b815260206004820152600b60248201526a73616d65206f7261636c6560a81b6044820152606490fd5b60405162461bcd60e51b815260206004820152600e60248201526d696e76616c6964206f7261636c6560901b6044820152606490fd5b3461030d57602036600319011261030d576001600160a01b03610f80612ee7565b1660005260036020526020604060002054604051908152f35b3461030d57600036600319011261030d57602060ff601754166040519015158152f35b3461030d57604036600319011261030d57610fd5612efd565b600435600052601f60205260406000209060018060a01b0316600052602052602060ff604060002054166040519015158152f35b3461030d57600036600319011261030d57600d546040516001600160a01b039091168152602090f35b3461030d57600036600319011261030d5760206106bc613590565b3461030d57600036600319011261030d576020604051621275008152f35b3461030d57602036600319011261030d5760043533600052601060205261109960ff60406000205416612f7c565b6110a6601d548210612fea565b806000526019602052600160406000206110c56003820154151561302b565b6110d660ff60028301541615613077565b82600052601c6020526110f160ff60406000205416156130b6565b82600052601b60205261110b6040600020544211156130f7565b82600052601a6020526040600020828060a01b03331660005260205261113960ff6040600020541615613175565b82600052601a6020526040600020828060a01b03331660005260205260406000208260ff19825416179055019061117082546131b4565b80925561117b613590565b60405192835260208301527ff39407f640014cb0220c4f7b0a6cc6acee38a440a8add233fa88e8c98b95b25c60403393a3005b3461030d57602036600319011261030d576004356111d760018060a01b03600c54163314613412565b6111f760ff600d546111ed828260a81c1661344c565b60a01c1615612fb5565b6111ff61362b565b61120c6002548210613253565b80600052600160205260406000206002810160ff81541660058110156107e8577f86b04a9027748794b50d55160e5a9fe6b0375cd3221e0d4776f9e053f7ef6d049260209261125f6001600a9414613544565b600260ff198254161790550142815583600052600b82526000604081205554604051908152a26001600055005b3461030d57602036600319011261030d57600435600052600460205260c0604060002080549060ff60018201541690600281015460ff600383015416906112f0600484015493600560018060a01b0391015416946040519687526020870190612f6f565b604085015215156060840152608083015260a0820152f35b3461030d57600036600319011261030d57600c546040516001600160a01b039091168152602090f35b3461030d57602036600319011261030d57600435600052601e60205260c0604060002060018060a01b038154169060018101549060ff600282015416600382015490600483015492600560018060a01b0391015416936040519586526020860152151560408501526060840152608083015260a0820152f35b612f51565b3461030d57604036600319011261030d576113c8612efd565b600435600052600560205260406000209060018060a01b0316600052602052602060ff604060002054166040519015158152f35b3461030d57602036600319011261030d5760043561141861362b565b6114256002548210613253565b8060005260016020526040600020906002820160ff81546114523360018060a01b038360081c1614613291565b1660058110156107e85760016114689114613544565b81600052600b602052604060002054801561155c57621275008101809111610ecf574211156115175760207f1c642f6ec09eeef2a0619a2a298b98d5b38861f8a024837627f161d669c3c10691600460ff1982541617815583600052600b8252600060408120556114f660018060a01b03600e5416600860018060a01b038454821c16970196875491613956565b54935460405190815260089490941c6001600160a01b031693a36001600055005b60405162461bcd60e51b815260206004820152601e60248201527f696e2d7472616e7369742074696d656f7574206e6f7420656c617073656400006044820152606490fd5b60405162461bcd60e51b815260206004820152601c60248201527f696e2d7472616e7369742074696d657374616d70206e6f7420736574000000006044820152606490fd5b3461030d57600036600319011261030d576020601854604051908152f35b3461030d57600036600319011261030d576020601154604051908152f35b3461030d57602036600319011261030d576004356000526009602052602060ff604060002054166040519015158152f35b3461030d57602036600319011261030d5760043560005260086020526020604060002054604051908152f35b3461030d57600036600319011261030d57602060ff600d5460a81c166040519015158152f35b3461030d57600036600319011261030d5733600052601060205261168b60ff60406000205416612f7c565b600d5460ff8160a01c166116d15760ff60a01b1916600160a01b17600d55337f62e78cea01bee320cd4e420270b5ea74000d11b0c9f74754ebdbfc544b05a258600080a2005b60405162461bcd60e51b815260206004820152600e60248201526d185b1c9958591e481c185d5cd95960921b6044820152606490fd5b3461030d57600036600319011261030d5733600052601060205261173260ff60406000205416612f7c565b600d5461174460ff8260a81c1661344c565b60ff60a81b198116600d5560a081901c60ff1615611791575b600c546001600160a01b0316337f943e0551255d58897464f9809b2b06574fdc708ade497e30276ae48effc0a794600080a3005b61ffff60a01b1916600160a01b17600d55337f62e78cea01bee320cd4e420270b5ea74000d11b0c9f74754ebdbfc544b05a258600080a28061175d565b3461030d57600036600319011261030d573360005260106020526117f960ff60406000205416612f7c565b61180760ff6017541661338d565b61181660ff6013541615613077565b61181e613991565b005b3461030d57600036600319011261030d576020600a54604051908152f35b3461030d57602036600319011261030d5760043533600052601060205261186c60ff60406000205416612f7c565b61187e60ff600d5460a01c1615612fb5565b61188b600a548210612fea565b8060005260046020526040600020906118a96004830154151561302b565b6118ba60ff60038401541615613077565b8060005260096020526118d560ff60406000205416156131d0565b8060005260086020526118ee6040600020544211613210565b8060005260096020526040600020600160ff19825416179055815480600052600660205260ff604060002054168061197e575b611952575b50339154907f7d0d8277552faa3f645755b68537c6cdbbd2b3415f4fc4ec554d62d4824311d1600080a4005b6000526006602052604060002060ff198154169055815460005260076020526000604081205582611926565b508060005260076020528160406000205414611921565b3461030d57602036600319011261030d57600435600052600b6020526020604060002054604051908152f35b3461030d57602036600319011261030d576004353360005260106020526119ef60ff60406000205416612f7c565b6119fc601d548210612fea565b806000526019602052611a2960ff60026040600020611a206003820154151561302b565b01541615613077565b80600052601c602052611a4460ff60406000205416156131d0565b80600052601b602052611a5d6040600020544211613210565b80600052601c6020526040600020600160ff1982541617905533907fd2d878f87125c1948b966a8962e09576b78186471e1a7cc90c2bd2b6f05acc9f600080a3005b3461030d57602036600319011261030d57611ab8612ee7565b336000526010602052611ad260ff60406000205416612f7c565b6001600160a01b0316611ae681151561348a565b806000526010602052611b0160ff60406000205416156134c6565b611b0f600f54610d09613590565b602254611b1b816131b4565b602255611b2a601854426131c3565b600560405191611b3983612f13565b8483526020830190600182526040840160008152611bb860608601914283526080870193845260a087019433865288600052601e60205260406000209760018060a01b039060018060a01b03905116166001600160601b0360a01b895416178855516001880155511515600287019060ff801983541691151516179055565b51600385015551600484015551910180546001600160a01b0319166001600160a01b03929092169190911790556000818152601f602090815260408083203384529091529020805460ff191660011790554262093a80810192908310610ecf576020928260005283805260406000205581600052601e8352600460406000200154604051908152827f959284814070c6c3a0c8b0ce10f8406a2a5cfe5cc3a7d157ad2ba850026aee64853393a4611c6d613590565b604051906001825283820152817fb8cacf822d821b4e79cb750d1368c77e7e7ec2aee16f886327cd7c756f47c22360403393a3604051908152f35b3461030d57602036600319011261030d57600435600052602080526020604060002054604051908152f35b3461030d57602036600319011261030d57600435611cf960ff600d5460a01c1615612fb5565b611d0161362b565b611d0e6002548210613253565b8060005260016020526040600020906002820160ff81541660058110156107e8576002611d3b91146132ca565b600a830154611d4b811515613316565b620151808101809111610ecf57421115611de457600460ff1982541617905580600052600b602052600060408120557f525d8c9a3bdfd74e1b0f3f79ccf0ef47d77d261e27396b35539f75e5d4086106602060018060a01b03600e5416611dc76003860191600860018060a01b03845416970196875491613956565b5493546040519081526001600160a01b0390941693a36001600055005b60405162461bcd60e51b81526020600482015260126024820152711dda5b991bddc81b9bdd08195b185c1cd95960721b6044820152606490fd5b3461030d57602036600319011261030d57600435611e4760018060a01b03600c54163314613412565b611e5d60ff600d546111ed828260a81c1661344c565b611e6561362b565b611e726002548210613253565b8060005260016020526040600020906002820160ff81541660058110156107e857611e9d90156133ce565b600160ff1982541617905580600052600b602052426040600020557f7fe4efc5647c551e3daa927b506b95903589ed6b18a37dbff54db80e7395239b602060018060a01b03600e54169360038101611f0660018060a01b03825416966007840197885491613956565b600e54600d54600584018054909392611f2b926001600160a01b039081169116613956565b600e54600d5460069490940180549094611f51926001600160a01b039182169116613956565b549554600d54915460408051928352858301919091526001600160a01b03928316978893169187917faf26bf705c48ad6f6bf63104d1d8b9f94dac03ba9c3ae49b34cd094cc8c3f6f691a454604051908152a36001600055005b3461030d57602036600319011261030d57600435611fc761362b565b611fd46002548210613253565b8060005260016020526040600020906002820160ff81546120013360018060a01b038360081c1614613291565b1660058110156107e85761201590156133ce565b600983015462093a808101809111610ecf574211156120855760207fe54e6e873934788882b1744fc124e31c635896db16279bfdfd45fd2953619cff91600460ff198254161781556114f660018060a01b03600e5416600460018060a01b03845460081c16970196875491613956565b60405162461bcd60e51b815260206004820152601860248201527f6c6f636b2074696d656f7574206e6f7420656c617073656400000000000000006044820152606490fd5b3461030d57600036600319011261030d57602060ff600d5460a01c166040519015158152f35b3461030d57600036600319011261030d576020602254604051908152f35b3461030d57602036600319011261030d576004356000526021602052602060ff604060002054166040519015158152f35b3461030d57600036600319011261030d5733600052601060205261216a60ff60406000205416612f7c565b61217b60ff600d5460a01c16613354565b61218960ff6017541661338d565b61219860ff6013541615613077565b3360005260166020526121b360ff6040600020541615613175565b3360005260166020526040600020600160ff198254161790556121d76012546131b4565b806012556011546040519082825260208201527ff250c8cac0e5a06311da43d7d136f294ff38fe995468d5352d5b795bec30020a60403392a2612218613590565b81101561222157005b6001906122406013549161223860ff841615613077565b6108e2613590565b60ff19161760135560ff60a01b19600d5416600d5560ff19601754166017556122676138ec565b60005b81518110156122a5576001906001600160a01b036122888285613942565b51166000526016602052604060002060ff1981541690550161226a565b5050337f5db9ee0a495bf2e6ff9c91a7834c1ba4fdd244a5e8aa4e537bd38aeae4b073aa600080a2005b3461030d57602036600319011261030d576001600160a01b036122f0612ee7565b166000526016602052602060ff604060002054166040519015158152f35b3461030d57604036600319011261030d57612327612efd565b600435600052601a60205260406000209060018060a01b0316600052602052602060ff604060002054166040519015158152f35b3461030d57602036600319011261030d5760043561238160ff600d5460a01c1615612fb5565b61238961362b565b6123966002548210613253565b8060005260016020526040600020600281019060ff82546123c33360018060a01b038360081c1614613291565b169060058210156107e8576123dc6002600a93146132ca565b01546123e9811515613316565b620151808101809111610ecf57421161243357805460ff191660031790557fb145240944e8bfe8998e31f11365578b766764ed1255b8e2efcb56e741b7be18600080a26001600055005b60405162461bcd60e51b815260206004820152600d60248201526c1dda5b991bddc818db1bdcd959609a1b6044820152606490fd5b3461030d57602036600319011261030d5760043533600052601060205261249660ff60406000205416612f7c565b6124a36022548210612fea565b80600052601e6020526124c760ff60026040600020611a206003820154151561302b565b8060005260216020526124e260ff60406000205416156131d0565b80600052602080526124fa6040600020544211613210565b8060005260216020526040600020600160ff1982541617905533907f6e5c3c82c1e75af7548eba9cd2cb4b639f5b6762fec00ca5e0d902fbad351ebc600080a3005b3461030d5761014036600319011261030d57612556612ee7565b60e435610124356101043567ffffffffffffffff821161030d573660238301121561030d57816004013567ffffffffffffffff811161047a57604051926125a7601f8301601f191660200185612f2f565b818452366024838301011161030d578160009260246020930183870137840101526125da60ff600d5460a01c1615612fb5565b6125e261362b565b60c43515612abf576001600160a01b03841615612a865761261860a4356126136084356126136064356044356131c3565b6131c3565b60243503612a4c57608435151580612a41575b15612a055733600052600360205260406000205483036129d45780421161299b57612730916127279160018060a01b03600d54169060405190602082019246845230604084015233606084015260018060a01b038916608084015260a083015260243560c083015260443560e083015260643561010083015260843561012083015260a43561014083015260c435610160830152866101808301526101a08201526101a081526126dd6101c082612f2f565b51902060405160208101917f19457468657265756d205369676e6564204d6573736167653a0a3332000000008352603c820152603c815261271f605c82612f2f565b519020613a86565b90929192613ac2565b336001600160a01b03909116036129665760018101809111610ecf57336000526003602052604060002055600254612767816131b4565b60025560405191610180830183811067ffffffffffffffff82111761047a576040528183526020830160c43581526040840160008152336060860152608085019060018060a01b038416825260243560a087015260443560c087015260643560e087015260843561010087015260a435610120870152426101408701526000610160870152846000526001602052604060002092865184555160018401555160058110156107e85760028301805460608801516001600160a81b031990911660ff90931692909217600892831b610100600160a81b031617905590516003830180546001600160a01b0319166001600160a01b0392831617905560a0860151600484015560c0860151600584015560e08601516006840155610100860151600784015561012086015191830191909155610140850151600983015561016090940151600a9190910155600e546040516323b872dd60e01b60208281019190915233602480840191909152306044840152356064808401919091528252946128f992166128f4608483612f2f565b613a1f565b604051906024358252604435848301526064356040830152608435606083015260a435608083015260c43560a083015260018060a01b031690827f9896188f7299b6607b47eaa190d500bf89abbfa1bb2ce6d410f88b043e371b6760c03393a46001600055604051908152f35b60405162461bcd60e51b815260206004820152600d60248201526c626164207369676e617475726560981b6044820152606490fd5b60405162461bcd60e51b81526020600482015260116024820152701cda59db985d1d5c9948195e1c1a5c9959607a1b6044820152606490fd5b60405162461bcd60e51b8152602060048201526009602482015268626164206e6f6e636560b81b6044820152606490fd5b60405162461bcd60e51b815260206004820152601460248201527307472616e63686573206d757374206265203e20360641b6044820152606490fd5b5060a435151561262b565b60405162461bcd60e51b81526020600482015260126024820152710c4e4cac2d6c8deeedc40dad2e6dac2e8c6d60731b6044820152606490fd5b60405162461bcd60e51b81526020600482015260116024820152701cdd5c1c1b1a595c881c995c5d5a5c9959607a1b6044820152606490fd5b60405162461bcd60e51b815260206004820152601760248201527f72696361726469616e20686173682072657175697265640000000000000000006044820152606490fd5b3461030d57602036600319011261030d576001600160a01b03612b25612ee7565b166000526010602052602060ff604060002054166040519015158152f35b3461030d57602036600319011261030d5760043560005260076020526020604060002054604051908152f35b3461030d57602036600319011261030d57600435600052600160205260406000208054600182015460028301549260ff84169360018060a01b0360038301541660048301546005840154600685015491600786015493600887015495600a6009890154980154986040519a8b5260208b015260058b10156107e8576101809a60408b015260018060a01b039060081c1660608a0152608089015260a088015260c087015260e0860152610100850152610120840152610140830152610160820152f35b3461030d57602036600319011261030d57600435600052601960205260e0604060002060ff60018060a01b03825416916001810154908260028201541660038201549060056004840154930154936040519687526020870152151560408601526060850152608084015260018060a01b03811660a084015260a01c16151560c0820152f35b3461030d57602036600319011261030d57600435600f5481101561030d57612ce0602091612eb6565b905460405160039290921b1c6001600160a01b03168152f35b3461030d57600036600319011261030d57600e546040516001600160a01b039091168152602090f35b3461030d57602036600319011261030d57600435336000526010602052612d5060ff60406000205416612f7c565b612d6260ff600d5460a01c1615612fb5565b612d6a61362b565b612d77600a548210612fea565b8060005260046020526040600020612d946004820154151561302b565b612da560ff60038301541615613077565b816000526009602052612dc060ff60406000205416156130b6565b816000526008602052612dda6040600020544211156130f7565b8054600052600160205260ff600260406000200154169060058210156107e857612e08600360029314613136565b6000838152600560209081526040808320338452909152902054612e2f9060ff1615613175565b60008381526005602090815260408083203384529091529020805460ff19166001179055018054612e5f906131b4565b80915560115490604051818152826020820152837f14e1b3091f09f49236e90d7a9826aa647e37c8b8600adc8a5935ee0c179e2de160403393a31015612ea7575b6001600055005b612eb09061364d565b80612ea0565b600f54811015612ed157600f60005260206000200190600090565b634e487b7160e01b600052603260045260246000fd5b600435906001600160a01b038216820361030d57565b602435906001600160a01b038216820361030d57565b60c0810190811067ffffffffffffffff82111761047a57604052565b90601f8019910116810190811067ffffffffffffffff82111761047a57604052565b3461030d57600036600319011261030d57602060405162093a808152f35b9060028210156107e85752565b15612f8357565b60405162461bcd60e51b815260206004820152600a60248201526937b7363c9030b236b4b760b11b6044820152606490fd5b15612fbc57565b60405162461bcd60e51b81526020600482015260066024820152651c185d5cd95960d21b6044820152606490fd5b15612ff157565b60405162461bcd60e51b81526020600482015260126024820152711c1c9bdc1bdcd85b081b9bdd08199bdd5b9960721b6044820152606490fd5b1561303257565b60405162461bcd60e51b815260206004820152601860248201527f70726f706f73616c206e6f7420696e697469616c697a656400000000000000006044820152606490fd5b1561307e57565b60405162461bcd60e51b815260206004820152601060248201526f185b1c9958591e48195e1958dd5d195960821b6044820152606490fd5b156130bd57565b60405162461bcd60e51b81526020600482015260126024820152711c1c9bdc1bdcd85b0818d85b98d95b1b195960721b6044820152606490fd5b156130fe57565b60405162461bcd60e51b815260206004820152601060248201526f1c1c9bdc1bdcd85b08195e1c1a5c995960821b6044820152606490fd5b1561313d57565b60405162461bcd60e51b815260206004820152601060248201526f3a3930b232903737ba10333937bd32b760811b6044820152606490fd5b1561317c57565b60405162461bcd60e51b815260206004820152601060248201526f185b1c9958591e48185c1c1c9bdd995960821b6044820152606490fd5b6000198114610ecf5760010190565b91908201809211610ecf57565b156131d757565b60405162461bcd60e51b8152602060048201526011602482015270185b1c9958591e4818d85b98d95b1b1959607a1b6044820152606490fd5b1561321757565b60405162461bcd60e51b81526020600482015260146024820152731c1c9bdc1bdcd85b081b9bdd08195e1c1a5c995960621b6044820152606490fd5b1561325a57565b60405162461bcd60e51b815260206004820152600f60248201526e1d1c985919481b9bdd08199bdd5b99608a1b6044820152606490fd5b1561329857565b60405162461bcd60e51b815260206004820152600a60248201526937b7363c90313abcb2b960b11b6044820152606490fd5b156132d157565b60405162461bcd60e51b815260206004820152601960248201527f6d757374206265204152524956414c5f434f4e4649524d4544000000000000006044820152606490fd5b1561331d57565b60405162461bcd60e51b815260206004820152600f60248201526e185c9c9a5d985b081b9bdd081cd95d608a1b6044820152606490fd5b1561335b57565b60405162461bcd60e51b815260206004820152600a6024820152691b9bdd081c185d5cd95960b21b6044820152606490fd5b1561339457565b60405162461bcd60e51b81526020600482015260126024820152711b9bc81858dd1a5d99481c1c9bdc1bdcd85b60721b6044820152606490fd5b156133d557565b60405162461bcd60e51b81526020600482015260156024820152741cdd185d1d5cc81b5d5cdd081899481313d0d2d151605a1b6044820152606490fd5b1561341957565b60405162461bcd60e51b815260206004820152600b60248201526a6f6e6c79206f7261636c6560a81b6044820152606490fd5b1561345357565b60405162461bcd60e51b815260206004820152600f60248201526e1bdc9858db1948191a5cd8589b1959608a1b6044820152606490fd5b1561349157565b60405162461bcd60e51b815260206004820152600d60248201526c34b73b30b634b21030b236b4b760991b6044820152606490fd5b156134cd57565b60405162461bcd60e51b815260206004820152600d60248201526c30b63932b0b23c9030b236b4b760991b6044820152606490fd5b1561350957565b60405162461bcd60e51b8152602060048201526013602482015272696e73756666696369656e742061646d696e7360681b6044820152606490fd5b1561354b57565b60405162461bcd60e51b815260206004820152601960248201527f737461747573206d75737420626520494e5f5452414e534954000000000000006044820152606490fd5b60115460028110156135a25750600290565b90565b156135ac57565b60405162461bcd60e51b81526020600482015260146024820152736e6f7420656e6f75676820617070726f76616c7360601b6044820152606490fd5b156135ef57565b60405162461bcd60e51b81526020600482015260146024820152731d1a5b595b1bd8dac81b9bdd08195b185c1cd95960621b6044820152606490fd5b60026000541461363c576002600055565b633ee5aeb560e01b60005260046000fd5b806000526004602052604060002090600382019182549261367160ff851615613077565b82600052600960205261368c60ff60406000205416156130b6565b8260005260086020526136a66040600020544211156130f7565b6136b8600283015460115411156135a5565b81546000526001602052604060002090600282019460ff86541660058110156107e8576003036138b05760019060ff1916179055600460ff1985541617845581546000526006602052604060002060ff19815416905581546000526007602052600060408120558154600052600b60205260006040812055600881015493600183019160ff83541660028110156107e857806137f35750509160ff94846020937fafdf3220f58fe501f1c7cff54df532523ba92e302d4b17d7bb8c30b9e4e906b360407f367ef6da4bd64313a89876ecb2e42b4be35f68f378625be0d78dcd15eba27dd09760018060a01b03905460081c16956137c0868860018060a01b03600e5416613956565b54998a9354169581519586526137d888870188612f6f565b6001600160a01b031694a46137f06040518092612f6f565ba3565b909391506001036138725760ff94846020937fafdf3220f58fe501f1c7cff54df532523ba92e302d4b17d7bb8c30b9e4e906b360407f367ef6da4bd64313a89876ecb2e42b4be35f68f378625be0d78dcd15eba27dd097600360018060a01b03910154169561386d868860018060a01b03600e5416613956565b6137c0565b60405162461bcd60e51b8152602060048201526016602482015275696e76616c696420646973707574652073746174757360501b6044820152606490fd5b60405162461bcd60e51b81526020600482015260146024820152733a3930b2329036bab9ba10313290232927ad22a760611b6044820152606490fd5b60405190600f548083528260208101600f60005260206000209260005b81811061392057505061391e92500383612f2f565b565b84546001600160a01b0316835260019485019487945060209093019201613909565b8051821015612ed15760209160051b010190565b60405163a9059cbb60e01b60208201526001600160a01b03909216602483015260448083019390935291815261391e916128f4606483612f2f565b6139996138ec565b60005b81518110156139d7576001906001600160a01b036139ba8285613942565b51166000526016602052604060002060ff1981541690550161399c565b505060ff19601754166017556000601255600060135560006014556000601555337fc79764e56dcfddc1a2135f80cf347dd741f7c7f914a134142b5d336e156d3bd0600080a2565b906000602091828151910182855af115613a7a576000513d613a7157506001600160a01b0381163b155b613a505750565b635274afe760e01b60009081526001600160a01b0391909116600452602490fd5b60011415613a49565b6040513d6000823e3d90fd5b8151919060418303613ab757613ab092506020820151906060604084015193015160001a90613b34565b9192909190565b505060009160029190565b91909160048110156107e85780613ad857509050565b600060018203613af35763f645eedf60e01b60005260046000fd5b5060028103613b11578263fce698f760e01b60005260045260246000fd5b9091600360009214613b21575050565b6335e2f38360e21b825260045260249150fd5b91907f7fffffffffffffffffffffffffffffff5d576e7357a4501ddfe92f46681b20a08411613bb1579160209360809260ff60009560405194855216868401526040830152606082015282805260015afa15613a7a576000516001600160a01b03811615613ba55790600090600090565b50600090600190600090565b5050506000916003919056fea264697066735822122098289b68a91c6c6c5b56781e112578a4e0a8a1acef70c680ecab47aa5d60059664736f6c634300081c0033",
          "opcodes": "PUSH1 0x80 PUSH1 0x40 MSTORE CALLVALUE PUSH2 0x3D8 JUMPI PUSH2 0x4020 DUP1 CODESIZE SUB DUP1 PUSH2 0x19 DUP2 PUSH2 0x3F3 JUMP JUMPDEST SWAP3 DUP4 CODECOPY DUP2 ADD SWAP1 PUSH1 0xA0 DUP2 DUP4 SUB SLT PUSH2 0x3D8 JUMPI PUSH2 0x32 DUP2 PUSH2 0x418 JUMP JUMPDEST SWAP1 PUSH2 0x3F PUSH1 0x20 DUP3 ADD PUSH2 0x418 JUMP JUMPDEST SWAP1 PUSH2 0x4C PUSH1 0x40 DUP3 ADD PUSH2 0x418 JUMP JUMPDEST PUSH1 0x60 DUP3 ADD MLOAD SWAP1 SWAP2 SWAP1 PUSH1 0x1 PUSH1 0x1 PUSH1 0x40 SHL SUB DUP2 GT PUSH2 0x3D8 JUMPI DUP2 ADD SWAP5 DUP1 PUSH1 0x1F DUP8 ADD SLT ISZERO PUSH2 0x3D8 JUMPI DUP6 MLOAD SWAP6 PUSH1 0x1 PUSH1 0x1 PUSH1 0x40 SHL SUB DUP8 GT PUSH2 0x3DD JUMPI DUP7 PUSH1 0x5 SHL SWAP1 PUSH1 0x20 DUP1 PUSH2 0x94 DUP2 DUP6 ADD PUSH2 0x3F3 JUMP JUMPDEST DUP1 SWAP11 DUP2 MSTORE ADD SWAP3 DUP3 ADD ADD SWAP3 DUP4 GT PUSH2 0x3D8 JUMPI PUSH1 0x20 ADD SWAP1 JUMPDEST DUP3 DUP3 LT PUSH2 0x3C0 JUMPI POP POP POP PUSH1 0x80 ADD MLOAD PUSH1 0x1 PUSH1 0x0 SSTORE SWAP3 PUSH1 0x1 PUSH1 0x1 PUSH1 0xA0 SHL SUB AND SWAP2 DUP3 ISZERO PUSH2 0x38B JUMPI PUSH1 0x1 PUSH1 0x1 PUSH1 0xA0 SHL SUB AND SWAP1 DUP2 ISZERO PUSH2 0x355 JUMPI PUSH1 0x1 PUSH1 0x1 PUSH1 0xA0 SHL SUB AND SWAP2 DUP3 ISZERO PUSH2 0x31D JUMPI DUP4 ISZERO PUSH2 0x2D8 JUMPI DUP4 DUP6 MLOAD LT PUSH2 0x29F JUMPI PUSH1 0x1 DUP1 PUSH1 0xA0 SHL SUB NOT PUSH1 0xE SLOAD AND OR PUSH1 0xE SSTORE PUSH1 0x1 DUP1 PUSH1 0xA0 SHL SUB NOT PUSH1 0xC SLOAD AND OR PUSH1 0xC SSTORE PUSH1 0x1 DUP1 PUSH1 0xA0 SHL SUB NOT PUSH1 0xD SLOAD AND OR PUSH1 0xD SSTORE PUSH1 0x11 SSTORE PUSH1 0x0 SWAP1 JUMPDEST DUP1 MLOAD DUP3 LT ISZERO PUSH2 0x276 JUMPI PUSH1 0x5 DUP3 SWAP1 SHL DUP2 ADD PUSH1 0x20 ADD MLOAD PUSH1 0x0 SWAP3 SWAP1 PUSH1 0x1 PUSH1 0x1 PUSH1 0xA0 SHL SUB AND DUP1 ISZERO PUSH2 0x245 JUMPI DUP1 DUP5 MSTORE PUSH1 0x10 PUSH1 0x20 MSTORE PUSH1 0xFF PUSH1 0x40 DUP6 KECCAK256 SLOAD AND PUSH2 0x20E JUMPI PUSH1 0xF SLOAD PUSH9 0x10000000000000000 DUP2 LT ISZERO PUSH2 0x1FA JUMPI PUSH1 0x1 DUP2 ADD DUP1 PUSH1 0xF SSTORE DUP2 LT ISZERO PUSH2 0x1E6 JUMPI PUSH32 0x8D1108E10BCB7C27DDDFC02ED9D693A074039D026CF4EA4240B40F7D581AC802 ADD DUP1 SLOAD PUSH1 0x1 PUSH1 0x1 PUSH1 0xA0 SHL SUB NOT AND DUP3 OR SWAP1 SSTORE DUP4 MSTORE PUSH1 0x10 PUSH1 0x20 MSTORE PUSH1 0x40 SWAP1 SWAP3 KECCAK256 DUP1 SLOAD PUSH1 0xFF NOT AND PUSH1 0x1 SWAP1 DUP2 OR SWAP1 SWAP2 SSTORE SWAP2 SWAP1 SWAP2 ADD SWAP1 PUSH2 0x132 JUMP JUMPDEST PUSH4 0x4E487B71 PUSH1 0xE0 SHL DUP6 MSTORE PUSH1 0x32 PUSH1 0x4 MSTORE PUSH1 0x24 DUP6 REVERT JUMPDEST PUSH4 0x4E487B71 PUSH1 0xE0 SHL DUP6 MSTORE PUSH1 0x41 PUSH1 0x4 MSTORE PUSH1 0x24 DUP6 REVERT JUMPDEST PUSH1 0x40 MLOAD PUSH3 0x461BCD PUSH1 0xE5 SHL DUP2 MSTORE PUSH1 0x20 PUSH1 0x4 DUP3 ADD MSTORE PUSH1 0xF PUSH1 0x24 DUP3 ADD MSTORE PUSH15 0x323AB83634B1B0BA329030B236B4B7 PUSH1 0x89 SHL PUSH1 0x44 DUP3 ADD MSTORE PUSH1 0x64 SWAP1 REVERT JUMPDEST PUSH1 0x40 MLOAD PUSH3 0x461BCD PUSH1 0xE5 SHL DUP2 MSTORE PUSH1 0x20 PUSH1 0x4 DUP3 ADD MSTORE PUSH1 0x9 PUSH1 0x24 DUP3 ADD MSTORE PUSH9 0x3130B21030B236B4B7 PUSH1 0xB9 SHL PUSH1 0x44 DUP3 ADD MSTORE PUSH1 0x64 SWAP1 REVERT JUMPDEST PUSH3 0x15180 PUSH1 0x18 SSTORE PUSH1 0xD DUP1 SLOAD PUSH1 0xFF PUSH1 0xA8 SHL NOT AND PUSH1 0x1 PUSH1 0xA8 SHL OR SWAP1 SSTORE PUSH1 0x40 MLOAD PUSH2 0x3BF3 SWAP1 DUP2 PUSH2 0x42D DUP3 CODECOPY RETURN JUMPDEST PUSH1 0x40 MLOAD PUSH3 0x461BCD PUSH1 0xE5 SHL DUP2 MSTORE PUSH1 0x20 PUSH1 0x4 DUP3 ADD MSTORE PUSH1 0x11 PUSH1 0x24 DUP3 ADD MSTORE PUSH17 0x6E6F7420656E6F7567682061646D696E73 PUSH1 0x78 SHL PUSH1 0x44 DUP3 ADD MSTORE PUSH1 0x64 SWAP1 REVERT JUMPDEST PUSH1 0x40 MLOAD PUSH3 0x461BCD PUSH1 0xE5 SHL DUP2 MSTORE PUSH1 0x20 PUSH1 0x4 DUP3 ADD MSTORE PUSH1 0x1E PUSH1 0x24 DUP3 ADD MSTORE PUSH32 0x726571756972656420617070726F76616C73206D757374206265203E20300000 PUSH1 0x44 DUP3 ADD MSTORE PUSH1 0x64 SWAP1 REVERT JUMPDEST PUSH1 0x40 MLOAD PUSH3 0x461BCD PUSH1 0xE5 SHL DUP2 MSTORE PUSH1 0x20 PUSH1 0x4 DUP3 ADD MSTORE PUSH1 0x10 PUSH1 0x24 DUP3 ADD MSTORE PUSH16 0x696E76616C6964207472656173757279 PUSH1 0x80 SHL PUSH1 0x44 DUP3 ADD MSTORE PUSH1 0x64 SWAP1 REVERT JUMPDEST PUSH1 0x40 MLOAD PUSH3 0x461BCD PUSH1 0xE5 SHL DUP2 MSTORE PUSH1 0x20 PUSH1 0x4 DUP3 ADD MSTORE PUSH1 0xE PUSH1 0x24 DUP3 ADD MSTORE PUSH14 0x696E76616C6964206F7261636C65 PUSH1 0x90 SHL PUSH1 0x44 DUP3 ADD MSTORE PUSH1 0x64 SWAP1 REVERT JUMPDEST PUSH1 0x40 MLOAD PUSH3 0x461BCD PUSH1 0xE5 SHL DUP2 MSTORE PUSH1 0x20 PUSH1 0x4 DUP3 ADD MSTORE PUSH1 0xD PUSH1 0x24 DUP3 ADD MSTORE PUSH13 0x34B73B30B634B2103A37B5B2B7 PUSH1 0x99 SHL PUSH1 0x44 DUP3 ADD MSTORE PUSH1 0x64 SWAP1 REVERT JUMPDEST PUSH1 0x20 DUP1 SWAP2 PUSH2 0x3CD DUP5 PUSH2 0x418 JUMP JUMPDEST DUP2 MSTORE ADD SWAP2 ADD SWAP1 PUSH2 0xA9 JUMP JUMPDEST PUSH1 0x0 DUP1 REVERT JUMPDEST PUSH4 0x4E487B71 PUSH1 0xE0 SHL PUSH1 0x0 MSTORE PUSH1 0x41 PUSH1 0x4 MSTORE PUSH1 0x24 PUSH1 0x0 REVERT JUMPDEST PUSH1 0x40 MLOAD SWAP2 SWAP1 PUSH1 0x1F ADD PUSH1 0x1F NOT AND DUP3 ADD PUSH1 0x1 PUSH1 0x1 PUSH1 0x40 SHL SUB DUP2 GT DUP4 DUP3 LT OR PUSH2 0x3DD JUMPI PUSH1 0x40 MSTORE JUMP JUMPDEST MLOAD SWAP1 PUSH1 0x1 PUSH1 0x1 PUSH1 0xA0 SHL SUB DUP3 AND DUP3 SUB PUSH2 0x3D8 JUMPI JUMP INVALID PUSH1 0x80 PUSH1 0x40 MSTORE PUSH1 0x4 CALLDATASIZE LT ISZERO PUSH2 0x12 JUMPI PUSH1 0x0 DUP1 REVERT JUMPDEST PUSH1 0x0 CALLDATALOAD PUSH1 0xE0 SHR DUP1 PUSH4 0xD6043C6 EQ PUSH2 0x2D22 JUMPI DUP1 PUSH4 0x11EAC855 EQ PUSH2 0x2CF9 JUMPI DUP1 PUSH4 0x14BFD6D0 EQ PUSH2 0x2CB7 JUMPI DUP1 PUSH4 0x18C27404 EQ PUSH2 0x2C32 JUMPI DUP1 PUSH4 0x1E6C598E EQ PUSH2 0x2B6F JUMPI DUP1 PUSH4 0x20E32A53 EQ PUSH2 0x2B43 JUMPI DUP1 PUSH4 0x24D7806C EQ PUSH2 0x2B04 JUMPI DUP1 PUSH4 0x2507CDE1 EQ PUSH2 0x253C JUMPI DUP1 PUSH4 0x2715048C EQ PUSH2 0x2468 JUMPI DUP1 PUSH4 0x27D00FB0 EQ PUSH2 0x235B JUMPI DUP1 PUSH4 0x2A3ECCA1 EQ PUSH2 0x230E JUMPI DUP1 PUSH4 0x2A4591BA EQ PUSH2 0x22CF JUMPI DUP1 PUSH4 0x4BE93571 EQ PUSH2 0x213F JUMPI DUP1 PUSH4 0x5AB8621E EQ PUSH2 0x210E JUMPI DUP1 PUSH4 0x5C04D8CA EQ PUSH2 0x20F0 JUMPI DUP1 PUSH4 0x5C975ABB EQ PUSH2 0x20CA JUMPI DUP1 PUSH4 0x620DC23A EQ PUSH2 0x1FAB JUMPI DUP1 PUSH4 0x660D15B5 EQ PUSH2 0xAE5 JUMPI DUP1 PUSH4 0x6726B9DB EQ PUSH2 0x1E1E JUMPI DUP1 PUSH4 0x68D69B61 EQ PUSH2 0x13AA JUMPI DUP1 PUSH4 0x6DE2A4F0 EQ PUSH2 0x1CD3 JUMPI DUP1 PUSH4 0x710BB979 EQ PUSH2 0x1CA8 JUMPI DUP1 PUSH4 0x749511B1 EQ PUSH2 0x1A9F JUMPI DUP1 PUSH4 0x7526B0EA EQ PUSH2 0x13AA JUMPI DUP1 PUSH4 0x76D622CE EQ PUSH2 0x19C1 JUMPI DUP1 PUSH4 0x76EBB7E0 EQ PUSH2 0x1995 JUMPI DUP1 PUSH4 0x77D8F09D EQ PUSH2 0x183E JUMPI DUP1 PUSH4 0x7D36F4D3 EQ PUSH2 0x1820 JUMPI DUP1 PUSH4 0x7ECEBE00 EQ PUSH2 0xF5F JUMPI DUP1 PUSH4 0x81B2CE31 EQ PUSH2 0x17CE JUMPI DUP1 PUSH4 0x8354415D EQ PUSH2 0x1707 JUMPI DUP1 PUSH4 0x8456CB59 EQ PUSH2 0x1660 JUMPI DUP1 PUSH4 0x86F23A35 EQ PUSH2 0x163A JUMPI DUP1 PUSH4 0x8D2304EE EQ PUSH2 0x160E JUMPI DUP1 PUSH4 0x96F84C09 EQ PUSH2 0x15DD JUMPI DUP1 PUSH4 0x99C1AADC EQ PUSH2 0x15BF JUMPI DUP1 PUSH4 0x9A1FDD79 EQ PUSH2 0x15A1 JUMPI DUP1 PUSH4 0x9B5E3061 EQ PUSH2 0x13FC JUMPI DUP1 PUSH4 0xA0977604 EQ PUSH2 0x13AF JUMPI DUP1 PUSH4 0xA375D807 EQ PUSH2 0x13AA JUMPI DUP1 PUSH4 0xA48448FE EQ PUSH2 0x1331 JUMPI DUP1 PUSH4 0xA89AE4BA EQ PUSH2 0x1308 JUMPI DUP1 PUSH4 0xA94C8F3D EQ PUSH2 0x128C JUMPI DUP1 PUSH4 0xAE7784D7 EQ PUSH2 0x11AE JUMPI DUP1 PUSH4 0xB9BCAF21 EQ PUSH2 0x106B JUMPI DUP1 PUSH4 0xC0E8F6A7 EQ PUSH2 0x104D JUMPI DUP1 PUSH4 0xC194BB4E EQ PUSH2 0x1032 JUMPI DUP1 PUSH4 0xC5F956AF EQ PUSH2 0x1009 JUMPI DUP1 PUSH4 0xC5FA4A98 EQ PUSH2 0xFBC JUMPI DUP1 PUSH4 0xCC792E0D EQ PUSH2 0xF99 JUMPI DUP1 PUSH4 0xD371CF72 EQ PUSH2 0xF5F JUMPI DUP1 PUSH4 0xD6D81FA3 EQ PUSH2 0xCA7 JUMPI DUP1 PUSH4 0xDAA07856 EQ PUSH2 0xB65 JUMPI DUP1 PUSH4 0xDC88100E EQ PUSH2 0xB21 JUMPI DUP1 PUSH4 0xE57A7E35 EQ PUSH2 0xB03 JUMPI DUP1 PUSH4 0xEA4AA016 EQ PUSH2 0xAE5 JUMPI DUP1 PUSH4 0xEC9D1517 EQ PUSH2 0x960 JUMPI DUP1 PUSH4 0xEDE25B9D EQ PUSH2 0x82F JUMPI DUP1 PUSH4 0xEE5798AE EQ PUSH2 0x7FE JUMPI DUP1 PUSH4 0xF565776D EQ PUSH2 0x4BB JUMPI DUP1 PUSH4 0xF585DC57 EQ PUSH2 0x49D JUMPI DUP1 PUSH4 0xFAE8A3D6 EQ PUSH2 0x33E JUMPI DUP1 PUSH4 0xFCB0AA02 EQ PUSH2 0x312 JUMPI PUSH4 0xFF0C4EE5 EQ PUSH2 0x2DC JUMPI PUSH1 0x0 DUP1 REVERT JUMPDEST CALLVALUE PUSH2 0x30D JUMPI PUSH1 0x20 CALLDATASIZE PUSH1 0x3 NOT ADD SLT PUSH2 0x30D JUMPI PUSH1 0x4 CALLDATALOAD PUSH1 0x0 MSTORE PUSH1 0x6 PUSH1 0x20 MSTORE PUSH1 0x20 PUSH1 0xFF PUSH1 0x40 PUSH1 0x0 KECCAK256 SLOAD AND PUSH1 0x40 MLOAD SWAP1 ISZERO ISZERO DUP2 MSTORE RETURN JUMPDEST PUSH1 0x0 DUP1 REVERT JUMPDEST CALLVALUE PUSH2 0x30D JUMPI PUSH1 0x20 CALLDATASIZE PUSH1 0x3 NOT ADD SLT PUSH2 0x30D JUMPI PUSH1 0x4 CALLDATALOAD PUSH1 0x0 MSTORE PUSH1 0x1B PUSH1 0x20 MSTORE PUSH1 0x20 PUSH1 0x40 PUSH1 0x0 KECCAK256 SLOAD PUSH1 0x40 MLOAD SWAP1 DUP2 MSTORE RETURN JUMPDEST CALLVALUE PUSH2 0x30D JUMPI PUSH1 0x0 CALLDATASIZE PUSH1 0x3 NOT ADD SLT PUSH2 0x30D JUMPI CALLER PUSH1 0x0 MSTORE PUSH1 0x10 PUSH1 0x20 MSTORE PUSH2 0x369 PUSH1 0xFF PUSH1 0x40 PUSH1 0x0 KECCAK256 SLOAD AND PUSH2 0x2F7C JUMP JUMPDEST PUSH2 0x388 PUSH1 0xFF PUSH1 0xD SLOAD PUSH2 0x37F DUP3 DUP3 PUSH1 0xA0 SHR AND PUSH2 0x3354 JUMP JUMPDEST PUSH1 0xA8 SHR AND PUSH2 0x344C JUMP JUMPDEST PUSH1 0xFF PUSH1 0x17 SLOAD AND PUSH2 0x490 JUMPI JUMPDEST PUSH1 0x40 MLOAD PUSH1 0x80 DUP2 ADD DUP2 DUP2 LT PUSH8 0xFFFFFFFFFFFFFFFF DUP3 GT OR PUSH2 0x47A JUMPI PUSH1 0x40 MSTORE PUSH1 0x1 DUP2 MSTORE PUSH1 0x0 PUSH1 0x20 DUP3 ADD MSTORE TIMESTAMP PUSH1 0x40 DUP3 ADD MSTORE PUSH1 0x60 CALLER SWAP2 ADD MSTORE PUSH1 0x1 PUSH1 0x12 SSTORE PUSH1 0xFF NOT PUSH1 0x13 SLOAD AND PUSH1 0x13 SSTORE TIMESTAMP PUSH1 0x14 SSTORE CALLER PUSH1 0x1 PUSH1 0x1 PUSH1 0x60 SHL SUB PUSH1 0xA0 SHL PUSH1 0x15 SLOAD AND OR PUSH1 0x15 SSTORE CALLER PUSH1 0x0 MSTORE PUSH1 0x16 PUSH1 0x20 MSTORE PUSH1 0x40 PUSH1 0x0 KECCAK256 PUSH1 0x1 PUSH1 0xFF NOT DUP3 SLOAD AND OR SWAP1 SSTORE PUSH1 0x1 PUSH1 0xFF NOT PUSH1 0x17 SLOAD AND OR PUSH1 0x17 SSTORE PUSH1 0x40 MLOAD CALLER PUSH32 0xC098089B7550DC564F1A038C8820DF7C94AD41BAA6BE122A568C720C323CE3C PUSH1 0x0 DUP1 LOG2 PUSH1 0x11 SLOAD PUSH1 0x1 DUP3 MSTORE PUSH1 0x20 DUP3 ADD MSTORE PUSH32 0xF250C8CAC0E5A06311DA43D7D136F294FF38FE995468D5352D5B795BEC30020A PUSH1 0x40 CALLER SWAP3 LOG2 PUSH1 0x20 PUSH1 0x40 MLOAD PUSH1 0x1 DUP2 MSTORE RETURN JUMPDEST PUSH4 0x4E487B71 PUSH1 0xE0 SHL PUSH1 0x0 MSTORE PUSH1 0x41 PUSH1 0x4 MSTORE PUSH1 0x24 PUSH1 0x0 REVERT JUMPDEST PUSH2 0x498 PUSH2 0x3991 JUMP JUMPDEST PUSH2 0x393 JUMP JUMPDEST CALLVALUE PUSH2 0x30D JUMPI PUSH1 0x0 CALLDATASIZE PUSH1 0x3 NOT ADD SLT PUSH2 0x30D JUMPI PUSH1 0x20 PUSH1 0x40 MLOAD PUSH3 0x15180 DUP2 MSTORE RETURN JUMPDEST CALLVALUE PUSH2 0x30D JUMPI PUSH1 0x40 CALLDATASIZE PUSH1 0x3 NOT ADD SLT PUSH2 0x30D JUMPI PUSH1 0x4 CALLDATALOAD PUSH1 0x24 CALLDATALOAD PUSH1 0x2 DUP2 LT ISZERO PUSH2 0x30D JUMPI CALLER PUSH1 0x0 MSTORE PUSH1 0x10 PUSH1 0x20 MSTORE PUSH2 0x4F5 PUSH1 0xFF PUSH1 0x40 PUSH1 0x0 KECCAK256 SLOAD AND PUSH2 0x2F7C JUMP JUMPDEST PUSH2 0x507 PUSH1 0xFF PUSH1 0xD SLOAD PUSH1 0xA0 SHR AND ISZERO PUSH2 0x2FB5 JUMP JUMPDEST PUSH2 0x514 PUSH1 0x2 SLOAD DUP4 LT PUSH2 0x3253 JUMP JUMPDEST DUP2 PUSH1 0x0 MSTORE PUSH1 0x1 PUSH1 0x20 MSTORE PUSH1 0xFF PUSH1 0x2 PUSH1 0x40 PUSH1 0x0 KECCAK256 ADD SLOAD AND PUSH1 0x5 DUP2 LT ISZERO PUSH2 0x7E8 JUMPI PUSH1 0x3 PUSH2 0x53E SWAP2 EQ PUSH2 0x3136 JUMP JUMPDEST DUP2 PUSH1 0x0 MSTORE PUSH1 0x6 PUSH1 0x20 MSTORE PUSH1 0xFF PUSH1 0x40 PUSH1 0x0 KECCAK256 SLOAD AND PUSH2 0x6FA JUMPI JUMPDEST PUSH1 0xA SLOAD SWAP1 PUSH2 0x562 DUP3 PUSH2 0x31B4 JUMP JUMPDEST PUSH1 0xA SSTORE PUSH1 0x40 MLOAD SWAP3 PUSH2 0x572 DUP5 PUSH2 0x2F13 JUMP JUMPDEST DUP1 DUP5 MSTORE PUSH1 0x20 DUP5 ADD SWAP4 PUSH1 0x0 SWAP5 DUP4 DUP2 MSTORE PUSH1 0x40 DUP3 ADD PUSH1 0x1 DUP2 MSTORE PUSH1 0x60 DUP4 ADD DUP8 DUP2 MSTORE PUSH1 0x80 DUP5 ADD SWAP2 TIMESTAMP DUP4 MSTORE PUSH1 0xA0 DUP6 ADD SWAP4 CALLER DUP6 MSTORE DUP9 DUP11 MSTORE PUSH1 0x4 PUSH1 0x20 MSTORE PUSH1 0x40 DUP11 KECCAK256 SWAP6 MLOAD DUP7 SSTORE PUSH1 0x1 DUP7 ADD SWAP1 MLOAD PUSH1 0x2 DUP2 LT ISZERO PUSH2 0x6E6 JUMPI SWAP2 PUSH1 0x5 SWAP6 SWAP5 SWAP4 SWAP2 PUSH2 0x5F3 SWAP4 PUSH1 0xFF DUP1 NOT DUP4 SLOAD AND SWAP2 AND OR SWAP1 SSTORE MLOAD PUSH1 0x2 DUP8 ADD SSTORE MLOAD ISZERO ISZERO PUSH1 0x3 DUP7 ADD SWAP1 PUSH1 0xFF DUP1 NOT DUP4 SLOAD AND SWAP2 ISZERO ISZERO AND OR SWAP1 SSTORE JUMP JUMPDEST MLOAD PUSH1 0x4 DUP5 ADD SSTORE MLOAD SWAP2 ADD DUP1 SLOAD PUSH1 0x1 PUSH1 0x1 PUSH1 0xA0 SHL SUB NOT AND PUSH1 0x1 PUSH1 0x1 PUSH1 0xA0 SHL SUB SWAP3 SWAP1 SWAP3 AND SWAP2 SWAP1 SWAP2 OR SWAP1 SSTORE DUP3 DUP5 MSTORE PUSH1 0x5 PUSH1 0x20 SWAP1 DUP2 MSTORE PUSH1 0x40 DUP1 DUP7 KECCAK256 CALLER DUP8 MSTORE DUP3 MSTORE DUP1 DUP7 KECCAK256 DUP1 SLOAD PUSH1 0xFF NOT SWAP1 DUP2 AND PUSH1 0x1 SWAP1 DUP2 OR SWAP1 SWAP3 SSTORE DUP5 DUP9 MSTORE PUSH1 0x6 DUP5 MSTORE DUP3 DUP9 KECCAK256 DUP1 SLOAD SWAP1 SWAP2 AND SWAP1 SWAP2 OR SWAP1 SSTORE DUP3 DUP7 MSTORE PUSH1 0x7 SWAP1 SWAP2 MSTORE DUP5 KECCAK256 DUP4 SWAP1 SSTORE TIMESTAMP PUSH3 0x93A80 DUP2 ADD SWAP1 DUP2 LT PUSH2 0x6D2 JUMPI PUSH1 0x40 DUP6 DUP6 PUSH1 0x20 SWAP8 MSTORE PUSH1 0x8 DUP8 MSTORE KECCAK256 SSTORE PUSH2 0x68B PUSH1 0x40 MLOAD DUP1 SWAP4 PUSH2 0x2F6F JUMP JUMPDEST DUP3 PUSH32 0x169133AD218243916E40F5D940B11E6662965AD0B9436428EC3EC92AF6593FBB DUP6 CALLER SWAP5 LOG4 PUSH1 0x1 PUSH1 0x11 SLOAD EQ PUSH2 0x6C4 JUMPI JUMPDEST PUSH1 0x40 MLOAD SWAP1 DUP2 MSTORE RETURN JUMPDEST PUSH2 0x6CD DUP2 PUSH2 0x364D JUMP JUMPDEST PUSH2 0x6BC JUMP JUMPDEST PUSH4 0x4E487B71 PUSH1 0xE0 SHL DUP6 MSTORE PUSH1 0x11 PUSH1 0x4 MSTORE PUSH1 0x24 DUP6 REVERT JUMPDEST PUSH4 0x4E487B71 PUSH1 0xE0 SHL DUP12 MSTORE PUSH1 0x21 PUSH1 0x4 MSTORE PUSH1 0x24 DUP12 REVERT JUMPDEST DUP2 PUSH1 0x0 MSTORE PUSH1 0x7 PUSH1 0x20 MSTORE PUSH1 0x40 PUSH1 0x0 KECCAK256 SLOAD DUP1 PUSH1 0x0 MSTORE PUSH1 0x8 PUSH1 0x20 MSTORE PUSH1 0x40 PUSH1 0x0 KECCAK256 SLOAD TIMESTAMP GT DUP1 PUSH2 0x7CF JUMPI JUMPDEST ISZERO PUSH2 0x791 JUMPI DUP1 PUSH1 0x0 MSTORE PUSH1 0x9 PUSH1 0x20 MSTORE PUSH1 0x40 PUSH1 0x0 KECCAK256 PUSH1 0x1 PUSH1 0xFF NOT DUP3 SLOAD AND OR SWAP1 SSTORE DUP3 PUSH1 0x0 MSTORE PUSH1 0x6 PUSH1 0x20 MSTORE PUSH1 0x40 PUSH1 0x0 KECCAK256 PUSH1 0xFF NOT DUP2 SLOAD AND SWAP1 SSTORE DUP3 PUSH1 0x0 MSTORE PUSH1 0x7 PUSH1 0x20 MSTORE PUSH1 0x0 PUSH1 0x40 DUP2 KECCAK256 SSTORE DUP3 CALLER SWAP2 PUSH32 0x7D0D8277552FAA3F645755B68537C6CDBBD2B3415F4FC4EC554D62D4824311D1 PUSH1 0x0 DUP1 LOG4 PUSH2 0x555 JUMP JUMPDEST PUSH1 0x40 MLOAD PUSH3 0x461BCD PUSH1 0xE5 SHL DUP2 MSTORE PUSH1 0x20 PUSH1 0x4 DUP3 ADD MSTORE PUSH1 0x16 PUSH1 0x24 DUP3 ADD MSTORE PUSH22 0x6163746976652070726F706F73616C20657869737473 PUSH1 0x50 SHL PUSH1 0x44 DUP3 ADD MSTORE PUSH1 0x64 SWAP1 REVERT JUMPDEST POP DUP1 PUSH1 0x0 MSTORE PUSH1 0x9 PUSH1 0x20 MSTORE PUSH1 0xFF PUSH1 0x40 PUSH1 0x0 KECCAK256 SLOAD AND ISZERO PUSH2 0x720 JUMP JUMPDEST PUSH4 0x4E487B71 PUSH1 0xE0 SHL PUSH1 0x0 MSTORE PUSH1 0x21 PUSH1 0x4 MSTORE PUSH1 0x24 PUSH1 0x0 REVERT JUMPDEST CALLVALUE PUSH2 0x30D JUMPI PUSH1 0x20 CALLDATASIZE PUSH1 0x3 NOT ADD SLT PUSH2 0x30D JUMPI PUSH1 0x4 CALLDATALOAD PUSH1 0x0 MSTORE PUSH1 0x1C PUSH1 0x20 MSTORE PUSH1 0x20 PUSH1 0xFF PUSH1 0x40 PUSH1 0x0 KECCAK256 SLOAD AND PUSH1 0x40 MLOAD SWAP1 ISZERO ISZERO DUP2 MSTORE RETURN JUMPDEST CALLVALUE PUSH2 0x30D JUMPI PUSH1 0x20 CALLDATASIZE PUSH1 0x3 NOT ADD SLT PUSH2 0x30D JUMPI PUSH1 0x4 CALLDATALOAD CALLER PUSH1 0x0 MSTORE PUSH1 0x10 PUSH1 0x20 MSTORE PUSH2 0x85D PUSH1 0xFF PUSH1 0x40 PUSH1 0x0 KECCAK256 SLOAD AND PUSH2 0x2F7C JUMP JUMPDEST PUSH2 0x86A PUSH1 0x1D SLOAD DUP3 LT PUSH2 0x2FEA JUMP JUMPDEST DUP1 PUSH1 0x0 MSTORE PUSH1 0x19 PUSH1 0x20 MSTORE PUSH1 0x40 PUSH1 0x0 KECCAK256 SWAP1 PUSH2 0x888 PUSH1 0x3 DUP4 ADD SLOAD ISZERO ISZERO PUSH2 0x302B JUMP JUMPDEST PUSH1 0x1 PUSH1 0x2 DUP4 ADD SWAP2 DUP3 SLOAD SWAP1 PUSH2 0x89F PUSH1 0xFF DUP4 AND ISZERO PUSH2 0x3077 JUMP JUMPDEST DUP1 PUSH1 0x0 MSTORE PUSH1 0x1C PUSH1 0x20 MSTORE PUSH2 0x8BA PUSH1 0xFF PUSH1 0x40 PUSH1 0x0 KECCAK256 SLOAD AND ISZERO PUSH2 0x30B6 JUMP JUMPDEST PUSH1 0x0 MSTORE PUSH1 0x1B PUSH1 0x20 MSTORE PUSH2 0x8D3 PUSH1 0x40 PUSH1 0x0 KECCAK256 SLOAD TIMESTAMP GT ISZERO PUSH2 0x30F7 JUMP JUMPDEST PUSH2 0x8E9 DUP3 DUP6 ADD SLOAD PUSH2 0x8E2 PUSH2 0x3590 JUMP JUMPDEST GT ISZERO PUSH2 0x35A5 JUMP JUMPDEST PUSH2 0x8F9 PUSH1 0x4 DUP6 ADD SLOAD TIMESTAMP LT ISZERO PUSH2 0x35E8 JUMP JUMPDEST PUSH1 0xFF NOT AND OR SWAP1 SSTORE PUSH1 0xC DUP1 SLOAD DUP3 SLOAD PUSH1 0x1 PUSH1 0x1 PUSH1 0xA0 SHL SUB NOT DUP3 AND PUSH1 0x1 PUSH1 0x1 PUSH1 0xA0 SHL SUB SWAP2 DUP3 AND OR SWAP1 SWAP3 SSTORE PUSH1 0xD DUP1 SLOAD PUSH1 0xFF PUSH1 0xA8 SHL NOT AND PUSH1 0x1 PUSH1 0xA8 SHL OR SWAP1 SSTORE SWAP2 SLOAD DUP2 AND SWAP2 AND PUSH32 0x78C3B417DADF69374A59793B829C52001247130433427049317BDE56607B1B7 PUSH1 0x0 DUP1 LOG3 STOP JUMPDEST CALLVALUE PUSH2 0x30D JUMPI PUSH1 0x20 CALLDATASIZE PUSH1 0x3 NOT ADD SLT PUSH2 0x30D JUMPI PUSH1 0x4 CALLDATALOAD CALLER PUSH1 0x0 MSTORE PUSH1 0x10 PUSH1 0x20 MSTORE PUSH2 0x98E PUSH1 0xFF PUSH1 0x40 PUSH1 0x0 KECCAK256 SLOAD AND PUSH2 0x2F7C JUMP JUMPDEST PUSH2 0x99B PUSH1 0x22 SLOAD DUP3 LT PUSH2 0x2FEA JUMP JUMPDEST DUP1 PUSH1 0x0 MSTORE PUSH1 0x1E PUSH1 0x20 MSTORE PUSH1 0x40 PUSH1 0x0 KECCAK256 SWAP1 PUSH2 0x9B9 PUSH1 0x3 DUP4 ADD SLOAD ISZERO ISZERO PUSH2 0x302B JUMP JUMPDEST PUSH1 0x2 DUP3 ADD DUP1 SLOAD SWAP2 PUSH2 0x9CD PUSH1 0xFF DUP5 AND ISZERO PUSH2 0x3077 JUMP JUMPDEST DUP1 PUSH1 0x0 MSTORE PUSH1 0x21 PUSH1 0x20 MSTORE PUSH2 0x9E8 PUSH1 0xFF PUSH1 0x40 PUSH1 0x0 KECCAK256 SLOAD AND ISZERO PUSH2 0x30B6 JUMP JUMPDEST PUSH1 0x0 MSTORE PUSH1 0x20 DUP1 MSTORE PUSH2 0xA00 PUSH1 0x40 PUSH1 0x0 KECCAK256 SLOAD TIMESTAMP GT ISZERO PUSH2 0x30F7 JUMP JUMPDEST PUSH2 0xA10 PUSH1 0x1 DUP5 ADD SLOAD PUSH2 0x8E2 PUSH2 0x3590 JUMP JUMPDEST PUSH2 0xA20 PUSH1 0x4 DUP5 ADD SLOAD TIMESTAMP LT ISZERO PUSH2 0x35E8 JUMP JUMPDEST DUP3 SLOAD PUSH1 0x1 PUSH1 0x1 PUSH1 0xA0 SHL SUB AND SWAP2 PUSH1 0x1 SWAP1 PUSH2 0xA3A DUP5 ISZERO ISZERO PUSH2 0x348A JUMP JUMPDEST DUP4 PUSH1 0x0 MSTORE PUSH1 0x10 PUSH1 0x20 MSTORE PUSH2 0xA55 PUSH1 0xFF PUSH1 0x40 PUSH1 0x0 KECCAK256 SLOAD AND ISZERO PUSH2 0x34C6 JUMP JUMPDEST PUSH1 0xFF NOT AND OR SWAP1 SSTORE PUSH1 0xF SLOAD PUSH9 0x10000000000000000 DUP2 LT ISZERO PUSH2 0x47A JUMPI DUP1 PUSH1 0x1 PUSH2 0xA80 SWAP3 ADD PUSH1 0xF SSTORE PUSH2 0x2EB6 JUMP JUMPDEST DUP2 SLOAD PUSH1 0x3 SWAP2 SWAP1 SWAP2 SHL SWAP3 DUP4 SHL PUSH1 0x1 PUSH1 0x1 PUSH1 0xA0 SHL SUB SWAP4 DUP5 SWAP1 SHL NOT SWAP1 SWAP2 AND OR SWAP1 SSTORE DUP2 SLOAD DUP2 AND PUSH1 0x0 SWAP1 DUP2 MSTORE PUSH1 0x10 PUSH1 0x20 MSTORE PUSH1 0x40 DUP2 KECCAK256 DUP1 SLOAD PUSH1 0xFF NOT AND PUSH1 0x1 OR SWAP1 SSTORE SWAP2 SLOAD AND SWAP1 PUSH32 0x44D6D25963F097AD14F29F06854A01F575648A1EF82F30E562CCD3889717E339 SWAP1 DUP1 LOG2 STOP JUMPDEST CALLVALUE PUSH2 0x30D JUMPI PUSH1 0x0 CALLDATASIZE PUSH1 0x3 NOT ADD SLT PUSH2 0x30D JUMPI PUSH1 0x20 PUSH1 0x2 SLOAD PUSH1 0x40 MLOAD SWAP1 DUP2 MSTORE RETURN JUMPDEST CALLVALUE PUSH2 0x30D JUMPI PUSH1 0x0 CALLDATASIZE PUSH1 0x3 NOT ADD SLT PUSH2 0x30D JUMPI PUSH1 0x20 PUSH1 0x1D SLOAD PUSH1 0x40 MLOAD SWAP1 DUP2 MSTORE RETURN JUMPDEST CALLVALUE PUSH2 0x30D JUMPI PUSH1 0x0 CALLDATASIZE PUSH1 0x3 NOT ADD SLT PUSH2 0x30D JUMPI PUSH1 0x80 PUSH1 0x12 SLOAD PUSH1 0xFF PUSH1 0x13 SLOAD AND PUSH1 0x14 SLOAD PUSH1 0x1 DUP1 PUSH1 0xA0 SHL SUB PUSH1 0x15 SLOAD AND SWAP2 PUSH1 0x40 MLOAD SWAP4 DUP5 MSTORE ISZERO ISZERO PUSH1 0x20 DUP5 ADD MSTORE PUSH1 0x40 DUP4 ADD MSTORE PUSH1 0x60 DUP3 ADD MSTORE RETURN JUMPDEST CALLVALUE PUSH2 0x30D JUMPI PUSH1 0x20 CALLDATASIZE PUSH1 0x3 NOT ADD SLT PUSH2 0x30D JUMPI PUSH1 0x4 CALLDATALOAD CALLER PUSH1 0x0 MSTORE PUSH1 0x10 PUSH1 0x20 MSTORE PUSH2 0xB93 PUSH1 0xFF PUSH1 0x40 PUSH1 0x0 KECCAK256 SLOAD AND PUSH2 0x2F7C JUMP JUMPDEST PUSH2 0xBA0 PUSH1 0x22 SLOAD DUP3 LT PUSH2 0x2FEA JUMP JUMPDEST DUP1 PUSH1 0x0 MSTORE PUSH1 0x1E PUSH1 0x20 MSTORE PUSH1 0x1 PUSH1 0x40 PUSH1 0x0 KECCAK256 PUSH2 0xBBF PUSH1 0x3 DUP3 ADD SLOAD ISZERO ISZERO PUSH2 0x302B JUMP JUMPDEST PUSH2 0xBD0 PUSH1 0xFF PUSH1 0x2 DUP4 ADD SLOAD AND ISZERO PUSH2 0x3077 JUMP JUMPDEST DUP3 PUSH1 0x0 MSTORE PUSH1 0x21 PUSH1 0x20 MSTORE PUSH2 0xBEB PUSH1 0xFF PUSH1 0x40 PUSH1 0x0 KECCAK256 SLOAD AND ISZERO PUSH2 0x30B6 JUMP JUMPDEST DUP3 PUSH1 0x0 MSTORE PUSH1 0x20 DUP1 MSTORE PUSH2 0xC04 PUSH1 0x40 PUSH1 0x0 KECCAK256 SLOAD TIMESTAMP GT ISZERO PUSH2 0x30F7 JUMP JUMPDEST DUP3 PUSH1 0x0 MSTORE PUSH1 0x1F PUSH1 0x20 MSTORE PUSH1 0x40 PUSH1 0x0 KECCAK256 DUP3 DUP1 PUSH1 0xA0 SHL SUB CALLER AND PUSH1 0x0 MSTORE PUSH1 0x20 MSTORE PUSH2 0xC32 PUSH1 0xFF PUSH1 0x40 PUSH1 0x0 KECCAK256 SLOAD AND ISZERO PUSH2 0x3175 JUMP JUMPDEST DUP3 PUSH1 0x0 MSTORE PUSH1 0x1F PUSH1 0x20 MSTORE PUSH1 0x40 PUSH1 0x0 KECCAK256 DUP3 DUP1 PUSH1 0xA0 SHL SUB CALLER AND PUSH1 0x0 MSTORE PUSH1 0x20 MSTORE PUSH1 0x40 PUSH1 0x0 KECCAK256 DUP3 PUSH1 0xFF NOT DUP3 SLOAD AND OR SWAP1 SSTORE ADD SWAP1 PUSH2 0xC69 DUP3 SLOAD PUSH2 0x31B4 JUMP JUMPDEST DUP1 SWAP3 SSTORE PUSH2 0xC74 PUSH2 0x3590 JUMP JUMPDEST PUSH1 0x40 MLOAD SWAP3 DUP4 MSTORE PUSH1 0x20 DUP4 ADD MSTORE PUSH32 0xB8CACF822D821B4E79CB750D1368C77E7E7EC2AEE16F886327CD7C756F47C223 PUSH1 0x40 CALLER SWAP4 LOG3 STOP JUMPDEST CALLVALUE PUSH2 0x30D JUMPI PUSH1 0x20 CALLDATASIZE PUSH1 0x3 NOT ADD SLT PUSH2 0x30D JUMPI PUSH2 0xCC0 PUSH2 0x2EE7 JUMP JUMPDEST CALLER PUSH1 0x0 MSTORE PUSH1 0x10 PUSH1 0x20 MSTORE PUSH2 0xCDA PUSH1 0xFF PUSH1 0x40 PUSH1 0x0 KECCAK256 SLOAD AND PUSH2 0x2F7C JUMP JUMPDEST PUSH1 0x1 PUSH1 0x1 PUSH1 0xA0 SHL SUB AND DUP1 ISZERO PUSH2 0xF29 JUMPI PUSH1 0xC SLOAD PUSH1 0x1 PUSH1 0x1 PUSH1 0xA0 SHL SUB AND DUP2 EQ PUSH2 0xEF6 JUMPI PUSH2 0xD10 PUSH1 0xF SLOAD PUSH2 0xD09 PUSH2 0x3590 JUMP JUMPDEST GT ISZERO PUSH2 0x3502 JUMP JUMPDEST PUSH1 0x1D SLOAD PUSH2 0xD1C DUP2 PUSH2 0x31B4 JUMP JUMPDEST PUSH1 0x1D SSTORE PUSH1 0xD SLOAD PUSH1 0xA8 SHR PUSH1 0xFF AND ISZERO SWAP2 DUP3 ISZERO PUSH2 0xEE5 JUMPI TIMESTAMP JUMPDEST PUSH1 0x40 MLOAD PUSH1 0xE0 DUP2 ADD DUP2 DUP2 LT PUSH8 0xFFFFFFFFFFFFFFFF DUP3 GT OR PUSH2 0x47A JUMPI PUSH1 0x40 MSTORE DUP3 DUP2 MSTORE PUSH1 0x20 DUP2 ADD PUSH1 0x1 DUP2 MSTORE PUSH1 0x5 PUSH1 0x40 DUP4 ADD SWAP3 PUSH1 0x0 DUP5 MSTORE PUSH1 0x60 DUP2 ADD TIMESTAMP DUP2 MSTORE PUSH1 0x80 DUP3 ADD SWAP1 DUP7 DUP3 MSTORE PUSH2 0xDD8 PUSH1 0xA0 DUP5 ADD SWAP7 CALLER DUP9 MSTORE PUSH1 0xC0 DUP6 ADD SWAP7 DUP13 DUP9 MSTORE DUP12 PUSH1 0x0 MSTORE PUSH1 0x19 PUSH1 0x20 MSTORE PUSH1 0x40 PUSH1 0x0 KECCAK256 SWAP6 PUSH1 0x1 DUP1 PUSH1 0xA0 SHL SUB SWAP1 PUSH1 0x1 DUP1 PUSH1 0xA0 SHL SUB SWAP1 MLOAD AND AND PUSH1 0x1 PUSH1 0x1 PUSH1 0x60 SHL SUB PUSH1 0xA0 SHL DUP8 SLOAD AND OR DUP7 SSTORE MLOAD PUSH1 0x1 DUP7 ADD SSTORE MLOAD ISZERO ISZERO PUSH1 0x2 DUP6 ADD SWAP1 PUSH1 0xFF DUP1 NOT DUP4 SLOAD AND SWAP2 ISZERO ISZERO AND OR SWAP1 SSTORE JUMP JUMPDEST MLOAD PUSH1 0x3 DUP4 ADD SSTORE MLOAD PUSH1 0x4 DUP3 ADD SSTORE SWAP3 MLOAD SWAP3 ADD DUP1 SLOAD SWAP2 MLOAD PUSH1 0x1 PUSH1 0x1 PUSH1 0xA8 SHL SUB NOT SWAP1 SWAP3 AND PUSH1 0x1 PUSH1 0x1 PUSH1 0xA0 SHL SUB SWAP4 SWAP1 SWAP4 AND SWAP3 SWAP1 SWAP3 OR SWAP1 ISZERO ISZERO PUSH1 0xA0 SHL PUSH1 0xFF PUSH1 0xA0 SHL AND OR SWAP1 SSTORE PUSH1 0x0 DUP4 DUP2 MSTORE PUSH1 0x1A PUSH1 0x20 SWAP1 DUP2 MSTORE PUSH1 0x40 DUP1 DUP4 KECCAK256 CALLER DUP5 MSTORE SWAP1 SWAP2 MSTORE SWAP1 KECCAK256 DUP1 SLOAD PUSH1 0xFF NOT AND PUSH1 0x1 OR SWAP1 SSTORE TIMESTAMP PUSH3 0x93A80 DUP2 ADD SWAP5 SWAP1 DUP6 LT PUSH2 0xECF JUMPI PUSH1 0x20 SWAP5 DUP5 PUSH1 0x0 MSTORE PUSH1 0x1B DUP7 MSTORE PUSH1 0x40 PUSH1 0x0 KECCAK256 SSTORE PUSH1 0x40 MLOAD SWAP2 DUP3 MSTORE DUP5 DUP3 ADD MSTORE DUP3 PUSH32 0xAFF168A4E1FA91858B5FC1C223CEE9CC0EAEADDB0B29C18DF1630E08305BD802 PUSH1 0x40 CALLER SWAP4 LOG4 PUSH2 0xE94 PUSH2 0x3590 JUMP JUMPDEST PUSH1 0x40 MLOAD SWAP1 PUSH1 0x1 DUP3 MSTORE DUP4 DUP3 ADD MSTORE DUP2 PUSH32 0xF39407F640014CB0220C4F7B0A6CC6ACEE38A440A8ADD233FA88E8C98B95B25C PUSH1 0x40 CALLER SWAP4 LOG3 PUSH1 0x40 MLOAD SWAP1 DUP2 MSTORE RETURN JUMPDEST PUSH4 0x4E487B71 PUSH1 0xE0 SHL PUSH1 0x0 MSTORE PUSH1 0x11 PUSH1 0x4 MSTORE PUSH1 0x24 PUSH1 0x0 REVERT JUMPDEST PUSH2 0xEF1 PUSH1 0x18 SLOAD TIMESTAMP PUSH2 0x31C3 JUMP JUMPDEST PUSH2 0xD32 JUMP JUMPDEST PUSH1 0x40 MLOAD PUSH3 0x461BCD PUSH1 0xE5 SHL DUP2 MSTORE PUSH1 0x20 PUSH1 0x4 DUP3 ADD MSTORE PUSH1 0xB PUSH1 0x24 DUP3 ADD MSTORE PUSH11 0x73616D65206F7261636C65 PUSH1 0xA8 SHL PUSH1 0x44 DUP3 ADD MSTORE PUSH1 0x64 SWAP1 REVERT JUMPDEST PUSH1 0x40 MLOAD PUSH3 0x461BCD PUSH1 0xE5 SHL DUP2 MSTORE PUSH1 0x20 PUSH1 0x4 DUP3 ADD MSTORE PUSH1 0xE PUSH1 0x24 DUP3 ADD MSTORE PUSH14 0x696E76616C6964206F7261636C65 PUSH1 0x90 SHL PUSH1 0x44 DUP3 ADD MSTORE PUSH1 0x64 SWAP1 REVERT JUMPDEST CALLVALUE PUSH2 0x30D JUMPI PUSH1 0x20 CALLDATASIZE PUSH1 0x3 NOT ADD SLT PUSH2 0x30D JUMPI PUSH1 0x1 PUSH1 0x1 PUSH1 0xA0 SHL SUB PUSH2 0xF80 PUSH2 0x2EE7 JUMP JUMPDEST AND PUSH1 0x0 MSTORE PUSH1 0x3 PUSH1 0x20 MSTORE PUSH1 0x20 PUSH1 0x40 PUSH1 0x0 KECCAK256 SLOAD PUSH1 0x40 MLOAD SWAP1 DUP2 MSTORE RETURN JUMPDEST CALLVALUE PUSH2 0x30D JUMPI PUSH1 0x0 CALLDATASIZE PUSH1 0x3 NOT ADD SLT PUSH2 0x30D JUMPI PUSH1 0x20 PUSH1 0xFF PUSH1 0x17 SLOAD AND PUSH1 0x40 MLOAD SWAP1 ISZERO ISZERO DUP2 MSTORE RETURN JUMPDEST CALLVALUE PUSH2 0x30D JUMPI PUSH1 0x40 CALLDATASIZE PUSH1 0x3 NOT ADD SLT PUSH2 0x30D JUMPI PUSH2 0xFD5 PUSH2 0x2EFD JUMP JUMPDEST PUSH1 0x4 CALLDATALOAD PUSH1 0x0 MSTORE PUSH1 0x1F PUSH1 0x20 MSTORE PUSH1 0x40 PUSH1 0x0 KECCAK256 SWAP1 PUSH1 0x1 DUP1 PUSH1 0xA0 SHL SUB AND PUSH1 0x0 MSTORE PUSH1 0x20 MSTORE PUSH1 0x20 PUSH1 0xFF PUSH1 0x40 PUSH1 0x0 KECCAK256 SLOAD AND PUSH1 0x40 MLOAD SWAP1 ISZERO ISZERO DUP2 MSTORE RETURN JUMPDEST CALLVALUE PUSH2 0x30D JUMPI PUSH1 0x0 CALLDATASIZE PUSH1 0x3 NOT ADD SLT PUSH2 0x30D JUMPI PUSH1 0xD SLOAD PUSH1 0x40 MLOAD PUSH1 0x1 PUSH1 0x1 PUSH1 0xA0 SHL SUB SWAP1 SWAP2 AND DUP2 MSTORE PUSH1 0x20 SWAP1 RETURN JUMPDEST CALLVALUE PUSH2 0x30D JUMPI PUSH1 0x0 CALLDATASIZE PUSH1 0x3 NOT ADD SLT PUSH2 0x30D JUMPI PUSH1 0x20 PUSH2 0x6BC PUSH2 0x3590 JUMP JUMPDEST CALLVALUE PUSH2 0x30D JUMPI PUSH1 0x0 CALLDATASIZE PUSH1 0x3 NOT ADD SLT PUSH2 0x30D JUMPI PUSH1 0x20 PUSH1 0x40 MLOAD PUSH3 0x127500 DUP2 MSTORE RETURN JUMPDEST CALLVALUE PUSH2 0x30D JUMPI PUSH1 0x20 CALLDATASIZE PUSH1 0x3 NOT ADD SLT PUSH2 0x30D JUMPI PUSH1 0x4 CALLDATALOAD CALLER PUSH1 0x0 MSTORE PUSH1 0x10 PUSH1 0x20 MSTORE PUSH2 0x1099 PUSH1 0xFF PUSH1 0x40 PUSH1 0x0 KECCAK256 SLOAD AND PUSH2 0x2F7C JUMP JUMPDEST PUSH2 0x10A6 PUSH1 0x1D SLOAD DUP3 LT PUSH2 0x2FEA JUMP JUMPDEST DUP1 PUSH1 0x0 MSTORE PUSH1 0x19 PUSH1 0x20 MSTORE PUSH1 0x1 PUSH1 0x40 PUSH1 0x0 KECCAK256 PUSH2 0x10C5 PUSH1 0x3 DUP3 ADD SLOAD ISZERO ISZERO PUSH2 0x302B JUMP JUMPDEST PUSH2 0x10D6 PUSH1 0xFF PUSH1 0x2 DUP4 ADD SLOAD AND ISZERO PUSH2 0x3077 JUMP JUMPDEST DUP3 PUSH1 0x0 MSTORE PUSH1 0x1C PUSH1 0x20 MSTORE PUSH2 0x10F1 PUSH1 0xFF PUSH1 0x40 PUSH1 0x0 KECCAK256 SLOAD AND ISZERO PUSH2 0x30B6 JUMP JUMPDEST DUP3 PUSH1 0x0 MSTORE PUSH1 0x1B PUSH1 0x20 MSTORE PUSH2 0x110B PUSH1 0x40 PUSH1 0x0 KECCAK256 SLOAD TIMESTAMP GT ISZERO PUSH2 0x30F7 JUMP JUMPDEST DUP3 PUSH1 0x0 MSTORE PUSH1 0x1A PUSH1 0x20 MSTORE PUSH1 0x40 PUSH1 0x0 KECCAK256 DUP3 DUP1 PUSH1 0xA0 SHL SUB CALLER AND PUSH1 0x0 MSTORE PUSH1 0x20 MSTORE PUSH2 0x1139 PUSH1 0xFF PUSH1 0x40 PUSH1 0x0 KECCAK256 SLOAD AND ISZERO PUSH2 0x3175 JUMP JUMPDEST DUP3 PUSH1 0x0 MSTORE PUSH1 0x1A PUSH1 0x20 MSTORE PUSH1 0x40 PUSH1 0x0 KECCAK256 DUP3 DUP1 PUSH1 0xA0 SHL SUB CALLER AND PUSH1 0x0 MSTORE PUSH1 0x20 MSTORE PUSH1 0x40 PUSH1 0x0 KECCAK256 DUP3 PUSH1 0xFF NOT DUP3 SLOAD AND OR SWAP1 SSTORE ADD SWAP1 PUSH2 0x1170 DUP3 SLOAD PUSH2 0x31B4 JUMP JUMPDEST DUP1 SWAP3 SSTORE PUSH2 0x117B PUSH2 0x3590 JUMP JUMPDEST PUSH1 0x40 MLOAD SWAP3 DUP4 MSTORE PUSH1 0x20 DUP4 ADD MSTORE PUSH32 0xF39407F640014CB0220C4F7B0A6CC6ACEE38A440A8ADD233FA88E8C98B95B25C PUSH1 0x40 CALLER SWAP4 LOG3 STOP JUMPDEST CALLVALUE PUSH2 0x30D JUMPI PUSH1 0x20 CALLDATASIZE PUSH1 0x3 NOT ADD SLT PUSH2 0x30D JUMPI PUSH1 0x4 CALLDATALOAD PUSH2 0x11D7 PUSH1 0x1 DUP1 PUSH1 0xA0 SHL SUB PUSH1 0xC SLOAD AND CALLER EQ PUSH2 0x3412 JUMP JUMPDEST PUSH2 0x11F7 PUSH1 0xFF PUSH1 0xD SLOAD PUSH2 0x11ED DUP3 DUP3 PUSH1 0xA8 SHR AND PUSH2 0x344C JUMP JUMPDEST PUSH1 0xA0 SHR AND ISZERO PUSH2 0x2FB5 JUMP JUMPDEST PUSH2 0x11FF PUSH2 0x362B JUMP JUMPDEST PUSH2 0x120C PUSH1 0x2 SLOAD DUP3 LT PUSH2 0x3253 JUMP JUMPDEST DUP1 PUSH1 0x0 MSTORE PUSH1 0x1 PUSH1 0x20 MSTORE PUSH1 0x40 PUSH1 0x0 KECCAK256 PUSH1 0x2 DUP2 ADD PUSH1 0xFF DUP2 SLOAD AND PUSH1 0x5 DUP2 LT ISZERO PUSH2 0x7E8 JUMPI PUSH32 0x86B04A9027748794B50D55160E5A9FE6B0375CD3221E0D4776F9E053F7EF6D04 SWAP3 PUSH1 0x20 SWAP3 PUSH2 0x125F PUSH1 0x1 PUSH1 0xA SWAP5 EQ PUSH2 0x3544 JUMP JUMPDEST PUSH1 0x2 PUSH1 0xFF NOT DUP3 SLOAD AND OR SWAP1 SSTORE ADD TIMESTAMP DUP2 SSTORE DUP4 PUSH1 0x0 MSTORE PUSH1 0xB DUP3 MSTORE PUSH1 0x0 PUSH1 0x40 DUP2 KECCAK256 SSTORE SLOAD PUSH1 0x40 MLOAD SWAP1 DUP2 MSTORE LOG2 PUSH1 0x1 PUSH1 0x0 SSTORE STOP JUMPDEST CALLVALUE PUSH2 0x30D JUMPI PUSH1 0x20 CALLDATASIZE PUSH1 0x3 NOT ADD SLT PUSH2 0x30D JUMPI PUSH1 0x4 CALLDATALOAD PUSH1 0x0 MSTORE PUSH1 0x4 PUSH1 0x20 MSTORE PUSH1 0xC0 PUSH1 0x40 PUSH1 0x0 KECCAK256 DUP1 SLOAD SWAP1 PUSH1 0xFF PUSH1 0x1 DUP3 ADD SLOAD AND SWAP1 PUSH1 0x2 DUP2 ADD SLOAD PUSH1 0xFF PUSH1 0x3 DUP4 ADD SLOAD AND SWAP1 PUSH2 0x12F0 PUSH1 0x4 DUP5 ADD SLOAD SWAP4 PUSH1 0x5 PUSH1 0x1 DUP1 PUSH1 0xA0 SHL SUB SWAP2 ADD SLOAD AND SWAP5 PUSH1 0x40 MLOAD SWAP7 DUP8 MSTORE PUSH1 0x20 DUP8 ADD SWAP1 PUSH2 0x2F6F JUMP JUMPDEST PUSH1 0x40 DUP6 ADD MSTORE ISZERO ISZERO PUSH1 0x60 DUP5 ADD MSTORE PUSH1 0x80 DUP4 ADD MSTORE PUSH1 0xA0 DUP3 ADD MSTORE RETURN JUMPDEST CALLVALUE PUSH2 0x30D JUMPI PUSH1 0x0 CALLDATASIZE PUSH1 0x3 NOT ADD SLT PUSH2 0x30D JUMPI PUSH1 0xC SLOAD PUSH1 0x40 MLOAD PUSH1 0x1 PUSH1 0x1 PUSH1 0xA0 SHL SUB SWAP1 SWAP2 AND DUP2 MSTORE PUSH1 0x20 SWAP1 RETURN JUMPDEST CALLVALUE PUSH2 0x30D JUMPI PUSH1 0x20 CALLDATASIZE PUSH1 0x3 NOT ADD SLT PUSH2 0x30D JUMPI PUSH1 0x4 CALLDATALOAD PUSH1 0x0 MSTORE PUSH1 0x1E PUSH1 0x20 MSTORE PUSH1 0xC0 PUSH1 0x40 PUSH1 0x0 KECCAK256 PUSH1 0x1 DUP1 PUSH1 0xA0 SHL SUB DUP2 SLOAD AND SWAP1 PUSH1 0x1 DUP2 ADD SLOAD SWAP1 PUSH1 0xFF PUSH1 0x2 DUP3 ADD SLOAD AND PUSH1 0x3 DUP3 ADD SLOAD SWAP1 PUSH1 0x4 DUP4 ADD SLOAD SWAP3 PUSH1 0x5 PUSH1 0x1 DUP1 PUSH1 0xA0 SHL SUB SWAP2 ADD SLOAD AND SWAP4 PUSH1 0x40 MLOAD SWAP6 DUP7 MSTORE PUSH1 0x20 DUP7 ADD MSTORE ISZERO ISZERO PUSH1 0x40 DUP6 ADD MSTORE PUSH1 0x60 DUP5 ADD MSTORE PUSH1 0x80 DUP4 ADD MSTORE PUSH1 0xA0 DUP3 ADD MSTORE RETURN JUMPDEST PUSH2 0x2F51 JUMP JUMPDEST CALLVALUE PUSH2 0x30D JUMPI PUSH1 0x40 CALLDATASIZE PUSH1 0x3 NOT ADD SLT PUSH2 0x30D JUMPI PUSH2 0x13C8 PUSH2 0x2EFD JUMP JUMPDEST PUSH1 0x4 CALLDATALOAD PUSH1 0x0 MSTORE PUSH1 0x5 PUSH1 0x20 MSTORE PUSH1 0x40 PUSH1 0x0 KECCAK256 SWAP1 PUSH1 0x1 DUP1 PUSH1 0xA0 SHL SUB AND PUSH1 0x0 MSTORE PUSH1 0x20 MSTORE PUSH1 0x20 PUSH1 0xFF PUSH1 0x40 PUSH1 0x0 KECCAK256 SLOAD AND PUSH1 0x40 MLOAD SWAP1 ISZERO ISZERO DUP2 MSTORE RETURN JUMPDEST CALLVALUE PUSH2 0x30D JUMPI PUSH1 0x20 CALLDATASIZE PUSH1 0x3 NOT ADD SLT PUSH2 0x30D JUMPI PUSH1 0x4 CALLDATALOAD PUSH2 0x1418 PUSH2 0x362B JUMP JUMPDEST PUSH2 0x1425 PUSH1 0x2 SLOAD DUP3 LT PUSH2 0x3253 JUMP JUMPDEST DUP1 PUSH1 0x0 MSTORE PUSH1 0x1 PUSH1 0x20 MSTORE PUSH1 0x40 PUSH1 0x0 KECCAK256 SWAP1 PUSH1 0x2 DUP3 ADD PUSH1 0xFF DUP2 SLOAD PUSH2 0x1452 CALLER PUSH1 0x1 DUP1 PUSH1 0xA0 SHL SUB DUP4 PUSH1 0x8 SHR AND EQ PUSH2 0x3291 JUMP JUMPDEST AND PUSH1 0x5 DUP2 LT ISZERO PUSH2 0x7E8 JUMPI PUSH1 0x1 PUSH2 0x1468 SWAP2 EQ PUSH2 0x3544 JUMP JUMPDEST DUP2 PUSH1 0x0 MSTORE PUSH1 0xB PUSH1 0x20 MSTORE PUSH1 0x40 PUSH1 0x0 KECCAK256 SLOAD DUP1 ISZERO PUSH2 0x155C JUMPI PUSH3 0x127500 DUP2 ADD DUP1 SWAP2 GT PUSH2 0xECF JUMPI TIMESTAMP GT ISZERO PUSH2 0x1517 JUMPI PUSH1 0x20 PUSH32 0x1C642F6EC09EEEF2A0619A2A298B98D5B38861F8A024837627F161D669C3C106 SWAP2 PUSH1 0x4 PUSH1 0xFF NOT DUP3 SLOAD AND OR DUP2 SSTORE DUP4 PUSH1 0x0 MSTORE PUSH1 0xB DUP3 MSTORE PUSH1 0x0 PUSH1 0x40 DUP2 KECCAK256 SSTORE PUSH2 0x14F6 PUSH1 0x1 DUP1 PUSH1 0xA0 SHL SUB PUSH1 0xE SLOAD AND PUSH1 0x8 PUSH1 0x1 DUP1 PUSH1 0xA0 SHL SUB DUP5 SLOAD DUP3 SHR AND SWAP8 ADD SWAP7 DUP8 SLOAD SWAP2 PUSH2 0x3956 JUMP JUMPDEST SLOAD SWAP4 SLOAD PUSH1 0x40 MLOAD SWAP1 DUP2 MSTORE PUSH1 0x8 SWAP5 SWAP1 SWAP5 SHR PUSH1 0x1 PUSH1 0x1 PUSH1 0xA0 SHL SUB AND SWAP4 LOG3 PUSH1 0x1 PUSH1 0x0 SSTORE STOP JUMPDEST PUSH1 0x40 MLOAD PUSH3 0x461BCD PUSH1 0xE5 SHL DUP2 MSTORE PUSH1 0x20 PUSH1 0x4 DUP3 ADD MSTORE PUSH1 0x1E PUSH1 0x24 DUP3 ADD MSTORE PUSH32 0x696E2D7472616E7369742074696D656F7574206E6F7420656C61707365640000 PUSH1 0x44 DUP3 ADD MSTORE PUSH1 0x64 SWAP1 REVERT JUMPDEST PUSH1 0x40 MLOAD PUSH3 0x461BCD PUSH1 0xE5 SHL DUP2 MSTORE PUSH1 0x20 PUSH1 0x4 DUP3 ADD MSTORE PUSH1 0x1C PUSH1 0x24 DUP3 ADD MSTORE PUSH32 0x696E2D7472616E7369742074696D657374616D70206E6F742073657400000000 PUSH1 0x44 DUP3 ADD MSTORE PUSH1 0x64 SWAP1 REVERT JUMPDEST CALLVALUE PUSH2 0x30D JUMPI PUSH1 0x0 CALLDATASIZE PUSH1 0x3 NOT ADD SLT PUSH2 0x30D JUMPI PUSH1 0x20 PUSH1 0x18 SLOAD PUSH1 0x40 MLOAD SWAP1 DUP2 MSTORE RETURN JUMPDEST CALLVALUE PUSH2 0x30D JUMPI PUSH1 0x0 CALLDATASIZE PUSH1 0x3 NOT ADD SLT PUSH2 0x30D JUMPI PUSH1 0x20 PUSH1 0x11 SLOAD PUSH1 0x40 MLOAD SWAP1 DUP2 MSTORE RETURN JUMPDEST CALLVALUE PUSH2 0x30D JUMPI PUSH1 0x20 CALLDATASIZE PUSH1 0x3 NOT ADD SLT PUSH2 0x30D JUMPI PUSH1 0x4 CALLDATALOAD PUSH1 0x0 MSTORE PUSH1 0x9 PUSH1 0x20 MSTORE PUSH1 0x20 PUSH1 0xFF PUSH1 0x40 PUSH1 0x0 KECCAK256 SLOAD AND PUSH1 0x40 MLOAD SWAP1 ISZERO ISZERO DUP2 MSTORE RETURN JUMPDEST CALLVALUE PUSH2 0x30D JUMPI PUSH1 0x20 CALLDATASIZE PUSH1 0x3 NOT ADD SLT PUSH2 0x30D JUMPI PUSH1 0x4 CALLDATALOAD PUSH1 0x0 MSTORE PUSH1 0x8 PUSH1 0x20 MSTORE PUSH1 0x20 PUSH1 0x40 PUSH1 0x0 KECCAK256 SLOAD PUSH1 0x40 MLOAD SWAP1 DUP2 MSTORE RETURN JUMPDEST CALLVALUE PUSH2 0x30D JUMPI PUSH1 0x0 CALLDATASIZE PUSH1 0x3 NOT ADD SLT PUSH2 0x30D JUMPI PUSH1 0x20 PUSH1 0xFF PUSH1 0xD SLOAD PUSH1 0xA8 SHR AND PUSH1 0x40 MLOAD SWAP1 ISZERO ISZERO DUP2 MSTORE RETURN JUMPDEST CALLVALUE PUSH2 0x30D JUMPI PUSH1 0x0 CALLDATASIZE PUSH1 0x3 NOT ADD SLT PUSH2 0x30D JUMPI CALLER PUSH1 0x0 MSTORE PUSH1 0x10 PUSH1 0x20 MSTORE PUSH2 0x168B PUSH1 0xFF PUSH1 0x40 PUSH1 0x0 KECCAK256 SLOAD AND PUSH2 0x2F7C JUMP JUMPDEST PUSH1 0xD SLOAD PUSH1 0xFF DUP2 PUSH1 0xA0 SHR AND PUSH2 0x16D1 JUMPI PUSH1 0xFF PUSH1 0xA0 SHL NOT AND PUSH1 0x1 PUSH1 0xA0 SHL OR PUSH1 0xD SSTORE CALLER PUSH32 0x62E78CEA01BEE320CD4E420270B5EA74000D11B0C9F74754EBDBFC544B05A258 PUSH1 0x0 DUP1 LOG2 STOP JUMPDEST PUSH1 0x40 MLOAD PUSH3 0x461BCD PUSH1 0xE5 SHL DUP2 MSTORE PUSH1 0x20 PUSH1 0x4 DUP3 ADD MSTORE PUSH1 0xE PUSH1 0x24 DUP3 ADD MSTORE PUSH14 0x185B1C9958591E481C185D5CD959 PUSH1 0x92 SHL PUSH1 0x44 DUP3 ADD MSTORE PUSH1 0x64 SWAP1 REVERT JUMPDEST CALLVALUE PUSH2 0x30D JUMPI PUSH1 0x0 CALLDATASIZE PUSH1 0x3 NOT ADD SLT PUSH2 0x30D JUMPI CALLER PUSH1 0x0 MSTORE PUSH1 0x10 PUSH1 0x20 MSTORE PUSH2 0x1732 PUSH1 0xFF PUSH1 0x40 PUSH1 0x0 KECCAK256 SLOAD AND PUSH2 0x2F7C JUMP JUMPDEST PUSH1 0xD SLOAD PUSH2 0x1744 PUSH1 0xFF DUP3 PUSH1 0xA8 SHR AND PUSH2 0x344C JUMP JUMPDEST PUSH1 0xFF PUSH1 0xA8 SHL NOT DUP2 AND PUSH1 0xD SSTORE PUSH1 0xA0 DUP2 SWAP1 SHR PUSH1 0xFF AND ISZERO PUSH2 0x1791 JUMPI JUMPDEST PUSH1 0xC SLOAD PUSH1 0x1 PUSH1 0x1 PUSH1 0xA0 SHL SUB AND CALLER PUSH32 0x943E0551255D58897464F9809B2B06574FDC708ADE497E30276AE48EFFC0A794 PUSH1 0x0 DUP1 LOG3 STOP JUMPDEST PUSH2 0xFFFF PUSH1 0xA0 SHL NOT AND PUSH1 0x1 PUSH1 0xA0 SHL OR PUSH1 0xD SSTORE CALLER PUSH32 0x62E78CEA01BEE320CD4E420270B5EA74000D11B0C9F74754EBDBFC544B05A258 PUSH1 0x0 DUP1 LOG2 DUP1 PUSH2 0x175D JUMP JUMPDEST CALLVALUE PUSH2 0x30D JUMPI PUSH1 0x0 CALLDATASIZE PUSH1 0x3 NOT ADD SLT PUSH2 0x30D JUMPI CALLER PUSH1 0x0 MSTORE PUSH1 0x10 PUSH1 0x20 MSTORE PUSH2 0x17F9 PUSH1 0xFF PUSH1 0x40 PUSH1 0x0 KECCAK256 SLOAD AND PUSH2 0x2F7C JUMP JUMPDEST PUSH2 0x1807 PUSH1 0xFF PUSH1 0x17 SLOAD AND PUSH2 0x338D JUMP JUMPDEST PUSH2 0x1816 PUSH1 0xFF PUSH1 0x13 SLOAD AND ISZERO PUSH2 0x3077 JUMP JUMPDEST PUSH2 0x181E PUSH2 0x3991 JUMP JUMPDEST STOP JUMPDEST CALLVALUE PUSH2 0x30D JUMPI PUSH1 0x0 CALLDATASIZE PUSH1 0x3 NOT ADD SLT PUSH2 0x30D JUMPI PUSH1 0x20 PUSH1 0xA SLOAD PUSH1 0x40 MLOAD SWAP1 DUP2 MSTORE RETURN JUMPDEST CALLVALUE PUSH2 0x30D JUMPI PUSH1 0x20 CALLDATASIZE PUSH1 0x3 NOT ADD SLT PUSH2 0x30D JUMPI PUSH1 0x4 CALLDATALOAD CALLER PUSH1 0x0 MSTORE PUSH1 0x10 PUSH1 0x20 MSTORE PUSH2 0x186C PUSH1 0xFF PUSH1 0x40 PUSH1 0x0 KECCAK256 SLOAD AND PUSH2 0x2F7C JUMP JUMPDEST PUSH2 0x187E PUSH1 0xFF PUSH1 0xD SLOAD PUSH1 0xA0 SHR AND ISZERO PUSH2 0x2FB5 JUMP JUMPDEST PUSH2 0x188B PUSH1 0xA SLOAD DUP3 LT PUSH2 0x2FEA JUMP JUMPDEST DUP1 PUSH1 0x0 MSTORE PUSH1 0x4 PUSH1 0x20 MSTORE PUSH1 0x40 PUSH1 0x0 KECCAK256 SWAP1 PUSH2 0x18A9 PUSH1 0x4 DUP4 ADD SLOAD ISZERO ISZERO PUSH2 0x302B JUMP JUMPDEST PUSH2 0x18BA PUSH1 0xFF PUSH1 0x3 DUP5 ADD SLOAD AND ISZERO PUSH2 0x3077 JUMP JUMPDEST DUP1 PUSH1 0x0 MSTORE PUSH1 0x9 PUSH1 0x20 MSTORE PUSH2 0x18D5 PUSH1 0xFF PUSH1 0x40 PUSH1 0x0 KECCAK256 SLOAD AND ISZERO PUSH2 0x31D0 JUMP JUMPDEST DUP1 PUSH1 0x0 MSTORE PUSH1 0x8 PUSH1 0x20 MSTORE PUSH2 0x18EE PUSH1 0x40 PUSH1 0x0 KECCAK256 SLOAD TIMESTAMP GT PUSH2 0x3210 JUMP JUMPDEST DUP1 PUSH1 0x0 MSTORE PUSH1 0x9 PUSH1 0x20 MSTORE PUSH1 0x40 PUSH1 0x0 KECCAK256 PUSH1 0x1 PUSH1 0xFF NOT DUP3 SLOAD AND OR SWAP1 SSTORE DUP2 SLOAD DUP1 PUSH1 0x0 MSTORE PUSH1 0x6 PUSH1 0x20 MSTORE PUSH1 0xFF PUSH1 0x40 PUSH1 0x0 KECCAK256 SLOAD AND DUP1 PUSH2 0x197E JUMPI JUMPDEST PUSH2 0x1952 JUMPI JUMPDEST POP CALLER SWAP2 SLOAD SWAP1 PUSH32 0x7D0D8277552FAA3F645755B68537C6CDBBD2B3415F4FC4EC554D62D4824311D1 PUSH1 0x0 DUP1 LOG4 STOP JUMPDEST PUSH1 0x0 MSTORE PUSH1 0x6 PUSH1 0x20 MSTORE PUSH1 0x40 PUSH1 0x0 KECCAK256 PUSH1 0xFF NOT DUP2 SLOAD AND SWAP1 SSTORE DUP2 SLOAD PUSH1 0x0 MSTORE PUSH1 0x7 PUSH1 0x20 MSTORE PUSH1 0x0 PUSH1 0x40 DUP2 KECCAK256 SSTORE DUP3 PUSH2 0x1926 JUMP JUMPDEST POP DUP1 PUSH1 0x0 MSTORE PUSH1 0x7 PUSH1 0x20 MSTORE DUP2 PUSH1 0x40 PUSH1 0x0 KECCAK256 SLOAD EQ PUSH2 0x1921 JUMP JUMPDEST CALLVALUE PUSH2 0x30D JUMPI PUSH1 0x20 CALLDATASIZE PUSH1 0x3 NOT ADD SLT PUSH2 0x30D JUMPI PUSH1 0x4 CALLDATALOAD PUSH1 0x0 MSTORE PUSH1 0xB PUSH1 0x20 MSTORE PUSH1 0x20 PUSH1 0x40 PUSH1 0x0 KECCAK256 SLOAD PUSH1 0x40 MLOAD SWAP1 DUP2 MSTORE RETURN JUMPDEST CALLVALUE PUSH2 0x30D JUMPI PUSH1 0x20 CALLDATASIZE PUSH1 0x3 NOT ADD SLT PUSH2 0x30D JUMPI PUSH1 0x4 CALLDATALOAD CALLER PUSH1 0x0 MSTORE PUSH1 0x10 PUSH1 0x20 MSTORE PUSH2 0x19EF PUSH1 0xFF PUSH1 0x40 PUSH1 0x0 KECCAK256 SLOAD AND PUSH2 0x2F7C JUMP JUMPDEST PUSH2 0x19FC PUSH1 0x1D SLOAD DUP3 LT PUSH2 0x2FEA JUMP JUMPDEST DUP1 PUSH1 0x0 MSTORE PUSH1 0x19 PUSH1 0x20 MSTORE PUSH2 0x1A29 PUSH1 0xFF PUSH1 0x2 PUSH1 0x40 PUSH1 0x0 KECCAK256 PUSH2 0x1A20 PUSH1 0x3 DUP3 ADD SLOAD ISZERO ISZERO PUSH2 0x302B JUMP JUMPDEST ADD SLOAD AND ISZERO PUSH2 0x3077 JUMP JUMPDEST DUP1 PUSH1 0x0 MSTORE PUSH1 0x1C PUSH1 0x20 MSTORE PUSH2 0x1A44 PUSH1 0xFF PUSH1 0x40 PUSH1 0x0 KECCAK256 SLOAD AND ISZERO PUSH2 0x31D0 JUMP JUMPDEST DUP1 PUSH1 0x0 MSTORE PUSH1 0x1B PUSH1 0x20 MSTORE PUSH2 0x1A5D PUSH1 0x40 PUSH1 0x0 KECCAK256 SLOAD TIMESTAMP GT PUSH2 0x3210 JUMP JUMPDEST DUP1 PUSH1 0x0 MSTORE PUSH1 0x1C PUSH1 0x20 MSTORE PUSH1 0x40 PUSH1 0x0 KECCAK256 PUSH1 0x1 PUSH1 0xFF NOT DUP3 SLOAD AND OR SWAP1 SSTORE CALLER SWAP1 PUSH32 0xD2D878F87125C1948B966A8962E09576B78186471E1A7CC90C2BD2B6F05ACC9F PUSH1 0x0 DUP1 LOG3 STOP JUMPDEST CALLVALUE PUSH2 0x30D JUMPI PUSH1 0x20 CALLDATASIZE PUSH1 0x3 NOT ADD SLT PUSH2 0x30D JUMPI PUSH2 0x1AB8 PUSH2 0x2EE7 JUMP JUMPDEST CALLER PUSH1 0x0 MSTORE PUSH1 0x10 PUSH1 0x20 MSTORE PUSH2 0x1AD2 PUSH1 0xFF PUSH1 0x40 PUSH1 0x0 KECCAK256 SLOAD AND PUSH2 0x2F7C JUMP JUMPDEST PUSH1 0x1 PUSH1 0x1 PUSH1 0xA0 SHL SUB AND PUSH2 0x1AE6 DUP2 ISZERO ISZERO PUSH2 0x348A JUMP JUMPDEST DUP1 PUSH1 0x0 MSTORE PUSH1 0x10 PUSH1 0x20 MSTORE PUSH2 0x1B01 PUSH1 0xFF PUSH1 0x40 PUSH1 0x0 KECCAK256 SLOAD AND ISZERO PUSH2 0x34C6 JUMP JUMPDEST PUSH2 0x1B0F PUSH1 0xF SLOAD PUSH2 0xD09 PUSH2 0x3590 JUMP JUMPDEST PUSH1 0x22 SLOAD PUSH2 0x1B1B DUP2 PUSH2 0x31B4 JUMP JUMPDEST PUSH1 0x22 SSTORE PUSH2 0x1B2A PUSH1 0x18 SLOAD TIMESTAMP PUSH2 0x31C3 JUMP JUMPDEST PUSH1 0x5 PUSH1 0x40 MLOAD SWAP2 PUSH2 0x1B39 DUP4 PUSH2 0x2F13 JUMP JUMPDEST DUP5 DUP4 MSTORE PUSH1 0x20 DUP4 ADD SWAP1 PUSH1 0x1 DUP3 MSTORE PUSH1 0x40 DUP5 ADD PUSH1 0x0 DUP2 MSTORE PUSH2 0x1BB8 PUSH1 0x60 DUP7 ADD SWAP2 TIMESTAMP DUP4 MSTORE PUSH1 0x80 DUP8 ADD SWAP4 DUP5 MSTORE PUSH1 0xA0 DUP8 ADD SWAP5 CALLER DUP7 MSTORE DUP9 PUSH1 0x0 MSTORE PUSH1 0x1E PUSH1 0x20 MSTORE PUSH1 0x40 PUSH1 0x0 KECCAK256 SWAP8 PUSH1 0x1 DUP1 PUSH1 0xA0 SHL SUB SWAP1 PUSH1 0x1 DUP1 PUSH1 0xA0 SHL SUB SWAP1 MLOAD AND AND PUSH1 0x1 PUSH1 0x1 PUSH1 0x60 SHL SUB PUSH1 0xA0 SHL DUP10 SLOAD AND OR DUP9 SSTORE MLOAD PUSH1 0x1 DUP9 ADD SSTORE MLOAD ISZERO ISZERO PUSH1 0x2 DUP8 ADD SWAP1 PUSH1 0xFF DUP1 NOT DUP4 SLOAD AND SWAP2 ISZERO ISZERO AND OR SWAP1 SSTORE JUMP JUMPDEST MLOAD PUSH1 0x3 DUP6 ADD SSTORE MLOAD PUSH1 0x4 DUP5 ADD SSTORE MLOAD SWAP2 ADD DUP1 SLOAD PUSH1 0x1 PUSH1 0x1 PUSH1 0xA0 SHL SUB NOT AND PUSH1 0x1 PUSH1 0x1 PUSH1 0xA0 SHL SUB SWAP3 SWAP1 SWAP3 AND SWAP2 SWAP1 SWAP2 OR SWAP1 SSTORE PUSH1 0x0 DUP2 DUP2 MSTORE PUSH1 0x1F PUSH1 0x20 SWAP1 DUP2 MSTORE PUSH1 0x40 DUP1 DUP4 KECCAK256 CALLER DUP5 MSTORE SWAP1 SWAP2 MSTORE SWAP1 KECCAK256 DUP1 SLOAD PUSH1 0xFF NOT AND PUSH1 0x1 OR SWAP1 SSTORE TIMESTAMP PUSH3 0x93A80 DUP2 ADD SWAP3 SWAP1 DUP4 LT PUSH2 0xECF JUMPI PUSH1 0x20 SWAP3 DUP3 PUSH1 0x0 MSTORE DUP4 DUP1 MSTORE PUSH1 0x40 PUSH1 0x0 KECCAK256 SSTORE DUP2 PUSH1 0x0 MSTORE PUSH1 0x1E DUP4 MSTORE PUSH1 0x4 PUSH1 0x40 PUSH1 0x0 KECCAK256 ADD SLOAD PUSH1 0x40 MLOAD SWAP1 DUP2 MSTORE DUP3 PUSH32 0x959284814070C6C3A0C8B0CE10F8406A2A5CFE5CC3A7D157AD2BA850026AEE64 DUP6 CALLER SWAP4 LOG4 PUSH2 0x1C6D PUSH2 0x3590 JUMP JUMPDEST PUSH1 0x40 MLOAD SWAP1 PUSH1 0x1 DUP3 MSTORE DUP4 DUP3 ADD MSTORE DUP2 PUSH32 0xB8CACF822D821B4E79CB750D1368C77E7E7EC2AEE16F886327CD7C756F47C223 PUSH1 0x40 CALLER SWAP4 LOG3 PUSH1 0x40 MLOAD SWAP1 DUP2 MSTORE RETURN JUMPDEST CALLVALUE PUSH2 0x30D JUMPI PUSH1 0x20 CALLDATASIZE PUSH1 0x3 NOT ADD SLT PUSH2 0x30D JUMPI PUSH1 0x4 CALLDATALOAD PUSH1 0x0 MSTORE PUSH1 0x20 DUP1 MSTORE PUSH1 0x20 PUSH1 0x40 PUSH1 0x0 KECCAK256 SLOAD PUSH1 0x40 MLOAD SWAP1 DUP2 MSTORE RETURN JUMPDEST CALLVALUE PUSH2 0x30D JUMPI PUSH1 0x20 CALLDATASIZE PUSH1 0x3 NOT ADD SLT PUSH2 0x30D JUMPI PUSH1 0x4 CALLDATALOAD PUSH2 0x1CF9 PUSH1 0xFF PUSH1 0xD SLOAD PUSH1 0xA0 SHR AND ISZERO PUSH2 0x2FB5 JUMP JUMPDEST PUSH2 0x1D01 PUSH2 0x362B JUMP JUMPDEST PUSH2 0x1D0E PUSH1 0x2 SLOAD DUP3 LT PUSH2 0x3253 JUMP JUMPDEST DUP1 PUSH1 0x0 MSTORE PUSH1 0x1 PUSH1 0x20 MSTORE PUSH1 0x40 PUSH1 0x0 KECCAK256 SWAP1 PUSH1 0x2 DUP3 ADD PUSH1 0xFF DUP2 SLOAD AND PUSH1 0x5 DUP2 LT ISZERO PUSH2 0x7E8 JUMPI PUSH1 0x2 PUSH2 0x1D3B SWAP2 EQ PUSH2 0x32CA JUMP JUMPDEST PUSH1 0xA DUP4 ADD SLOAD PUSH2 0x1D4B DUP2 ISZERO ISZERO PUSH2 0x3316 JUMP JUMPDEST PUSH3 0x15180 DUP2 ADD DUP1 SWAP2 GT PUSH2 0xECF JUMPI TIMESTAMP GT ISZERO PUSH2 0x1DE4 JUMPI PUSH1 0x4 PUSH1 0xFF NOT DUP3 SLOAD AND OR SWAP1 SSTORE DUP1 PUSH1 0x0 MSTORE PUSH1 0xB PUSH1 0x20 MSTORE PUSH1 0x0 PUSH1 0x40 DUP2 KECCAK256 SSTORE PUSH32 0x525D8C9A3BDFD74E1B0F3F79CCF0EF47D77D261E27396B35539F75E5D4086106 PUSH1 0x20 PUSH1 0x1 DUP1 PUSH1 0xA0 SHL SUB PUSH1 0xE SLOAD AND PUSH2 0x1DC7 PUSH1 0x3 DUP7 ADD SWAP2 PUSH1 0x8 PUSH1 0x1 DUP1 PUSH1 0xA0 SHL SUB DUP5 SLOAD AND SWAP8 ADD SWAP7 DUP8 SLOAD SWAP2 PUSH2 0x3956 JUMP JUMPDEST SLOAD SWAP4 SLOAD PUSH1 0x40 MLOAD SWAP1 DUP2 MSTORE PUSH1 0x1 PUSH1 0x1 PUSH1 0xA0 SHL SUB SWAP1 SWAP5 AND SWAP4 LOG3 PUSH1 0x1 PUSH1 0x0 SSTORE STOP JUMPDEST PUSH1 0x40 MLOAD PUSH3 0x461BCD PUSH1 0xE5 SHL DUP2 MSTORE PUSH1 0x20 PUSH1 0x4 DUP3 ADD MSTORE PUSH1 0x12 PUSH1 0x24 DUP3 ADD MSTORE PUSH18 0x1DDA5B991BDDC81B9BDD08195B185C1CD959 PUSH1 0x72 SHL PUSH1 0x44 DUP3 ADD MSTORE PUSH1 0x64 SWAP1 REVERT JUMPDEST CALLVALUE PUSH2 0x30D JUMPI PUSH1 0x20 CALLDATASIZE PUSH1 0x3 NOT ADD SLT PUSH2 0x30D JUMPI PUSH1 0x4 CALLDATALOAD PUSH2 0x1E47 PUSH1 0x1 DUP1 PUSH1 0xA0 SHL SUB PUSH1 0xC SLOAD AND CALLER EQ PUSH2 0x3412 JUMP JUMPDEST PUSH2 0x1E5D PUSH1 0xFF PUSH1 0xD SLOAD PUSH2 0x11ED DUP3 DUP3 PUSH1 0xA8 SHR AND PUSH2 0x344C JUMP JUMPDEST PUSH2 0x1E65 PUSH2 0x362B JUMP JUMPDEST PUSH2 0x1E72 PUSH1 0x2 SLOAD DUP3 LT PUSH2 0x3253 JUMP JUMPDEST DUP1 PUSH1 0x0 MSTORE PUSH1 0x1 PUSH1 0x20 MSTORE PUSH1 0x40 PUSH1 0x0 KECCAK256 SWAP1 PUSH1 0x2 DUP3 ADD PUSH1 0xFF DUP2 SLOAD AND PUSH1 0x5 DUP2 LT ISZERO PUSH2 0x7E8 JUMPI PUSH2 0x1E9D SWAP1 ISZERO PUSH2 0x33CE JUMP JUMPDEST PUSH1 0x1 PUSH1 0xFF NOT DUP3 SLOAD AND OR SWAP1 SSTORE DUP1 PUSH1 0x0 MSTORE PUSH1 0xB PUSH1 0x20 MSTORE TIMESTAMP PUSH1 0x40 PUSH1 0x0 KECCAK256 SSTORE PUSH32 0x7FE4EFC5647C551E3DAA927B506B95903589ED6B18A37DBFF54DB80E7395239B PUSH1 0x20 PUSH1 0x1 DUP1 PUSH1 0xA0 SHL SUB PUSH1 0xE SLOAD AND SWAP4 PUSH1 0x3 DUP2 ADD PUSH2 0x1F06 PUSH1 0x1 DUP1 PUSH1 0xA0 SHL SUB DUP3 SLOAD AND SWAP7 PUSH1 0x7 DUP5 ADD SWAP8 DUP9 SLOAD SWAP2 PUSH2 0x3956 JUMP JUMPDEST PUSH1 0xE SLOAD PUSH1 0xD SLOAD PUSH1 0x5 DUP5 ADD DUP1 SLOAD SWAP1 SWAP4 SWAP3 PUSH2 0x1F2B SWAP3 PUSH1 0x1 PUSH1 0x1 PUSH1 0xA0 SHL SUB SWAP1 DUP2 AND SWAP2 AND PUSH2 0x3956 JUMP JUMPDEST PUSH1 0xE SLOAD PUSH1 0xD SLOAD PUSH1 0x6 SWAP5 SWAP1 SWAP5 ADD DUP1 SLOAD SWAP1 SWAP5 PUSH2 0x1F51 SWAP3 PUSH1 0x1 PUSH1 0x1 PUSH1 0xA0 SHL SUB SWAP2 DUP3 AND SWAP2 AND PUSH2 0x3956 JUMP JUMPDEST SLOAD SWAP6 SLOAD PUSH1 0xD SLOAD SWAP2 SLOAD PUSH1 0x40 DUP1 MLOAD SWAP3 DUP4 MSTORE DUP6 DUP4 ADD SWAP2 SWAP1 SWAP2 MSTORE PUSH1 0x1 PUSH1 0x1 PUSH1 0xA0 SHL SUB SWAP3 DUP4 AND SWAP8 DUP9 SWAP4 AND SWAP2 DUP8 SWAP2 PUSH32 0xAF26BF705C48AD6F6BF63104D1D8B9F94DAC03BA9C3AE49B34CD094CC8C3F6F6 SWAP2 LOG4 SLOAD PUSH1 0x40 MLOAD SWAP1 DUP2 MSTORE LOG3 PUSH1 0x1 PUSH1 0x0 SSTORE STOP JUMPDEST CALLVALUE PUSH2 0x30D JUMPI PUSH1 0x20 CALLDATASIZE PUSH1 0x3 NOT ADD SLT PUSH2 0x30D JUMPI PUSH1 0x4 CALLDATALOAD PUSH2 0x1FC7 PUSH2 0x362B JUMP JUMPDEST PUSH2 0x1FD4 PUSH1 0x2 SLOAD DUP3 LT PUSH2 0x3253 JUMP JUMPDEST DUP1 PUSH1 0x0 MSTORE PUSH1 0x1 PUSH1 0x20 MSTORE PUSH1 0x40 PUSH1 0x0 KECCAK256 SWAP1 PUSH1 0x2 DUP3 ADD PUSH1 0xFF DUP2 SLOAD PUSH2 0x2001 CALLER PUSH1 0x1 DUP1 PUSH1 0xA0 SHL SUB DUP4 PUSH1 0x8 SHR AND EQ PUSH2 0x3291 JUMP JUMPDEST AND PUSH1 0x5 DUP2 LT ISZERO PUSH2 0x7E8 JUMPI PUSH2 0x2015 SWAP1 ISZERO PUSH2 0x33CE JUMP JUMPDEST PUSH1 0x9 DUP4 ADD SLOAD PUSH3 0x93A80 DUP2 ADD DUP1 SWAP2 GT PUSH2 0xECF JUMPI TIMESTAMP GT ISZERO PUSH2 0x2085 JUMPI PUSH1 0x20 PUSH32 0xE54E6E873934788882B1744FC124E31C635896DB16279BFDFD45FD2953619CFF SWAP2 PUSH1 0x4 PUSH1 0xFF NOT DUP3 SLOAD AND OR DUP2 SSTORE PUSH2 0x14F6 PUSH1 0x1 DUP1 PUSH1 0xA0 SHL SUB PUSH1 0xE SLOAD AND PUSH1 0x4 PUSH1 0x1 DUP1 PUSH1 0xA0 SHL SUB DUP5 SLOAD PUSH1 0x8 SHR AND SWAP8 ADD SWAP7 DUP8 SLOAD SWAP2 PUSH2 0x3956 JUMP JUMPDEST PUSH1 0x40 MLOAD PUSH3 0x461BCD PUSH1 0xE5 SHL DUP2 MSTORE PUSH1 0x20 PUSH1 0x4 DUP3 ADD MSTORE PUSH1 0x18 PUSH1 0x24 DUP3 ADD MSTORE PUSH32 0x6C6F636B2074696D656F7574206E6F7420656C61707365640000000000000000 PUSH1 0x44 DUP3 ADD MSTORE PUSH1 0x64 SWAP1 REVERT JUMPDEST CALLVALUE PUSH2 0x30D JUMPI PUSH1 0x0 CALLDATASIZE PUSH1 0x3 NOT ADD SLT PUSH2 0x30D JUMPI PUSH1 0x20 PUSH1 0xFF PUSH1 0xD SLOAD PUSH1 0xA0 SHR AND PUSH1 0x40 MLOAD SWAP1 ISZERO ISZERO DUP2 MSTORE RETURN JUMPDEST CALLVALUE PUSH2 0x30D JUMPI PUSH1 0x0 CALLDATASIZE PUSH1 0x3 NOT ADD SLT PUSH2 0x30D JUMPI PUSH1 0x20 PUSH1 0x22 SLOAD PUSH1 0x40 MLOAD SWAP1 DUP2 MSTORE RETURN JUMPDEST CALLVALUE PUSH2 0x30D JUMPI PUSH1 0x20 CALLDATASIZE PUSH1 0x3 NOT ADD SLT PUSH2 0x30D JUMPI PUSH1 0x4 CALLDATALOAD PUSH1 0x0 MSTORE PUSH1 0x21 PUSH1 0x20 MSTORE PUSH1 0x20 PUSH1 0xFF PUSH1 0x40 PUSH1 0x0 KECCAK256 SLOAD AND PUSH1 0x40 MLOAD SWAP1 ISZERO ISZERO DUP2 MSTORE RETURN JUMPDEST CALLVALUE PUSH2 0x30D JUMPI PUSH1 0x0 CALLDATASIZE PUSH1 0x3 NOT ADD SLT PUSH2 0x30D JUMPI CALLER PUSH1 0x0 MSTORE PUSH1 0x10 PUSH1 0x20 MSTORE PUSH2 0x216A PUSH1 0xFF PUSH1 0x40 PUSH1 0x0 KECCAK256 SLOAD AND PUSH2 0x2F7C JUMP JUMPDEST PUSH2 0x217B PUSH1 0xFF PUSH1 0xD SLOAD PUSH1 0xA0 SHR AND PUSH2 0x3354 JUMP JUMPDEST PUSH2 0x2189 PUSH1 0xFF PUSH1 0x17 SLOAD AND PUSH2 0x338D JUMP JUMPDEST PUSH2 0x2198 PUSH1 0xFF PUSH1 0x13 SLOAD AND ISZERO PUSH2 0x3077 JUMP JUMPDEST CALLER PUSH1 0x0 MSTORE PUSH1 0x16 PUSH1 0x20 MSTORE PUSH2 0x21B3 PUSH1 0xFF PUSH1 0x40 PUSH1 0x0 KECCAK256 SLOAD AND ISZERO PUSH2 0x3175 JUMP JUMPDEST CALLER PUSH1 0x0 MSTORE PUSH1 0x16 PUSH1 0x20 MSTORE PUSH1 0x40 PUSH1 0x0 KECCAK256 PUSH1 0x1 PUSH1 0xFF NOT DUP3 SLOAD AND OR SWAP1 SSTORE PUSH2 0x21D7 PUSH1 0x12 SLOAD PUSH2 0x31B4 JUMP JUMPDEST DUP1 PUSH1 0x12 SSTORE PUSH1 0x11 SLOAD PUSH1 0x40 MLOAD SWAP1 DUP3 DUP3 MSTORE PUSH1 0x20 DUP3 ADD MSTORE PUSH32 0xF250C8CAC0E5A06311DA43D7D136F294FF38FE995468D5352D5B795BEC30020A PUSH1 0x40 CALLER SWAP3 LOG2 PUSH2 0x2218 PUSH2 0x3590 JUMP JUMPDEST DUP2 LT ISZERO PUSH2 0x2221 JUMPI STOP JUMPDEST PUSH1 0x1 SWAP1 PUSH2 0x2240 PUSH1 0x13 SLOAD SWAP2 PUSH2 0x2238 PUSH1 0xFF DUP5 AND ISZERO PUSH2 0x3077 JUMP JUMPDEST PUSH2 0x8E2 PUSH2 0x3590 JUMP JUMPDEST PUSH1 0xFF NOT AND OR PUSH1 0x13 SSTORE PUSH1 0xFF PUSH1 0xA0 SHL NOT PUSH1 0xD SLOAD AND PUSH1 0xD SSTORE PUSH1 0xFF NOT PUSH1 0x17 SLOAD AND PUSH1 0x17 SSTORE PUSH2 0x2267 PUSH2 0x38EC JUMP JUMPDEST PUSH1 0x0 JUMPDEST DUP2 MLOAD DUP2 LT ISZERO PUSH2 0x22A5 JUMPI PUSH1 0x1 SWAP1 PUSH1 0x1 PUSH1 0x1 PUSH1 0xA0 SHL SUB PUSH2 0x2288 DUP3 DUP6 PUSH2 0x3942 JUMP JUMPDEST MLOAD AND PUSH1 0x0 MSTORE PUSH1 0x16 PUSH1 0x20 MSTORE PUSH1 0x40 PUSH1 0x0 KECCAK256 PUSH1 0xFF NOT DUP2 SLOAD AND SWAP1 SSTORE ADD PUSH2 0x226A JUMP JUMPDEST POP POP CALLER PUSH32 0x5DB9EE0A495BF2E6FF9C91A7834C1BA4FDD244A5E8AA4E537BD38AEAE4B073AA PUSH1 0x0 DUP1 LOG2 STOP JUMPDEST CALLVALUE PUSH2 0x30D JUMPI PUSH1 0x20 CALLDATASIZE PUSH1 0x3 NOT ADD SLT PUSH2 0x30D JUMPI PUSH1 0x1 PUSH1 0x1 PUSH1 0xA0 SHL SUB PUSH2 0x22F0 PUSH2 0x2EE7 JUMP JUMPDEST AND PUSH1 0x0 MSTORE PUSH1 0x16 PUSH1 0x20 MSTORE PUSH1 0x20 PUSH1 0xFF PUSH1 0x40 PUSH1 0x0 KECCAK256 SLOAD AND PUSH1 0x40 MLOAD SWAP1 ISZERO ISZERO DUP2 MSTORE RETURN JUMPDEST CALLVALUE PUSH2 0x30D JUMPI PUSH1 0x40 CALLDATASIZE PUSH1 0x3 NOT ADD SLT PUSH2 0x30D JUMPI PUSH2 0x2327 PUSH2 0x2EFD JUMP JUMPDEST PUSH1 0x4 CALLDATALOAD PUSH1 0x0 MSTORE PUSH1 0x1A PUSH1 0x20 MSTORE PUSH1 0x40 PUSH1 0x0 KECCAK256 SWAP1 PUSH1 0x1 DUP1 PUSH1 0xA0 SHL SUB AND PUSH1 0x0 MSTORE PUSH1 0x20 MSTORE PUSH1 0x20 PUSH1 0xFF PUSH1 0x40 PUSH1 0x0 KECCAK256 SLOAD AND PUSH1 0x40 MLOAD SWAP1 ISZERO ISZERO DUP2 MSTORE RETURN JUMPDEST CALLVALUE PUSH2 0x30D JUMPI PUSH1 0x20 CALLDATASIZE PUSH1 0x3 NOT ADD SLT PUSH2 0x30D JUMPI PUSH1 0x4 CALLDATALOAD PUSH2 0x2381 PUSH1 0xFF PUSH1 0xD SLOAD PUSH1 0xA0 SHR AND ISZERO PUSH2 0x2FB5 JUMP JUMPDEST PUSH2 0x2389 PUSH2 0x362B JUMP JUMPDEST PUSH2 0x2396 PUSH1 0x2 SLOAD DUP3 LT PUSH2 0x3253 JUMP JUMPDEST DUP1 PUSH1 0x0 MSTORE PUSH1 0x1 PUSH1 0x20 MSTORE PUSH1 0x40 PUSH1 0x0 KECCAK256 PUSH1 0x2 DUP2 ADD SWAP1 PUSH1 0xFF DUP3 SLOAD PUSH2 0x23C3 CALLER PUSH1 0x1 DUP1 PUSH1 0xA0 SHL SUB DUP4 PUSH1 0x8 SHR AND EQ PUSH2 0x3291 JUMP JUMPDEST AND SWAP1 PUSH1 0x5 DUP3 LT ISZERO PUSH2 0x7E8 JUMPI PUSH2 0x23DC PUSH1 0x2 PUSH1 0xA SWAP4 EQ PUSH2 0x32CA JUMP JUMPDEST ADD SLOAD PUSH2 0x23E9 DUP2 ISZERO ISZERO PUSH2 0x3316 JUMP JUMPDEST PUSH3 0x15180 DUP2 ADD DUP1 SWAP2 GT PUSH2 0xECF JUMPI TIMESTAMP GT PUSH2 0x2433 JUMPI DUP1 SLOAD PUSH1 0xFF NOT AND PUSH1 0x3 OR SWAP1 SSTORE PUSH32 0xB145240944E8BFE8998E31F11365578B766764ED1255B8E2EFCB56E741B7BE18 PUSH1 0x0 DUP1 LOG2 PUSH1 0x1 PUSH1 0x0 SSTORE STOP JUMPDEST PUSH1 0x40 MLOAD PUSH3 0x461BCD PUSH1 0xE5 SHL DUP2 MSTORE PUSH1 0x20 PUSH1 0x4 DUP3 ADD MSTORE PUSH1 0xD PUSH1 0x24 DUP3 ADD MSTORE PUSH13 0x1DDA5B991BDDC818DB1BDCD959 PUSH1 0x9A SHL PUSH1 0x44 DUP3 ADD MSTORE PUSH1 0x64 SWAP1 REVERT JUMPDEST CALLVALUE PUSH2 0x30D JUMPI PUSH1 0x20 CALLDATASIZE PUSH1 0x3 NOT ADD SLT PUSH2 0x30D JUMPI PUSH1 0x4 CALLDATALOAD CALLER PUSH1 0x0 MSTORE PUSH1 0x10 PUSH1 0x20 MSTORE PUSH2 0x2496 PUSH1 0xFF PUSH1 0x40 PUSH1 0x0 KECCAK256 SLOAD AND PUSH2 0x2F7C JUMP JUMPDEST PUSH2 0x24A3 PUSH1 0x22 SLOAD DUP3 LT PUSH2 0x2FEA JUMP JUMPDEST DUP1 PUSH1 0x0 MSTORE PUSH1 0x1E PUSH1 0x20 MSTORE PUSH2 0x24C7 PUSH1 0xFF PUSH1 0x2 PUSH1 0x40 PUSH1 0x0 KECCAK256 PUSH2 0x1A20 PUSH1 0x3 DUP3 ADD SLOAD ISZERO ISZERO PUSH2 0x302B JUMP JUMPDEST DUP1 PUSH1 0x0 MSTORE PUSH1 0x21 PUSH1 0x20 MSTORE PUSH2 0x24E2 PUSH1 0xFF PUSH1 0x40 PUSH1 0x0 KECCAK256 SLOAD AND ISZERO PUSH2 0x31D0 JUMP JUMPDEST DUP1 PUSH1 0x0 MSTORE PUSH1 0x20 DUP1 MSTORE PUSH2 0x24FA PUSH1 0x40 PUSH1 0x0 KECCAK256 SLOAD TIMESTAMP GT PUSH2 0x3210 JUMP JUMPDEST DUP1 PUSH1 0x0 MSTORE PUSH1 0x21 PUSH1 0x20 MSTORE PUSH1 0x40 PUSH1 0x0 KECCAK256 PUSH1 0x1 PUSH1 0xFF NOT DUP3 SLOAD AND OR SWAP1 SSTORE CALLER SWAP1 PUSH32 0x6E5C3C82C1E75AF7548EBA9CD2CB4B639F5B6762FEC00CA5E0D902FBAD351EBC PUSH1 0x0 DUP1 LOG3 STOP JUMPDEST CALLVALUE PUSH2 0x30D JUMPI PUSH2 0x140 CALLDATASIZE PUSH1 0x3 NOT ADD SLT PUSH2 0x30D JUMPI PUSH2 0x2556 PUSH2 0x2EE7 JUMP JUMPDEST PUSH1 0xE4 CALLDATALOAD PUSH2 0x124 CALLDATALOAD PUSH2 0x104 CALLDATALOAD PUSH8 0xFFFFFFFFFFFFFFFF DUP3 GT PUSH2 0x30D JUMPI CALLDATASIZE PUSH1 0x23 DUP4 ADD SLT ISZERO PUSH2 0x30D JUMPI DUP2 PUSH1 0x4 ADD CALLDATALOAD PUSH8 0xFFFFFFFFFFFFFFFF DUP2 GT PUSH2 0x47A JUMPI PUSH1 0x40 MLOAD SWAP3 PUSH2 0x25A7 PUSH1 0x1F DUP4 ADD PUSH1 0x1F NOT AND PUSH1 0x20 ADD DUP6 PUSH2 0x2F2F JUMP JUMPDEST DUP2 DUP5 MSTORE CALLDATASIZE PUSH1 0x24 DUP4 DUP4 ADD ADD GT PUSH2 0x30D JUMPI DUP2 PUSH1 0x0 SWAP3 PUSH1 0x24 PUSH1 0x20 SWAP4 ADD DUP4 DUP8 ADD CALLDATACOPY DUP5 ADD ADD MSTORE PUSH2 0x25DA PUSH1 0xFF PUSH1 0xD SLOAD PUSH1 0xA0 SHR AND ISZERO PUSH2 0x2FB5 JUMP JUMPDEST PUSH2 0x25E2 PUSH2 0x362B JUMP JUMPDEST PUSH1 0xC4 CALLDATALOAD ISZERO PUSH2 0x2ABF JUMPI PUSH1 0x1 PUSH1 0x1 PUSH1 0xA0 SHL SUB DUP5 AND ISZERO PUSH2 0x2A86 JUMPI PUSH2 0x2618 PUSH1 0xA4 CALLDATALOAD PUSH2 0x2613 PUSH1 0x84 CALLDATALOAD PUSH2 0x2613 PUSH1 0x64 CALLDATALOAD PUSH1 0x44 CALLDATALOAD PUSH2 0x31C3 JUMP JUMPDEST PUSH2 0x31C3 JUMP JUMPDEST PUSH1 0x24 CALLDATALOAD SUB PUSH2 0x2A4C JUMPI PUSH1 0x84 CALLDATALOAD ISZERO ISZERO DUP1 PUSH2 0x2A41 JUMPI JUMPDEST ISZERO PUSH2 0x2A05 JUMPI CALLER PUSH1 0x0 MSTORE PUSH1 0x3 PUSH1 0x20 MSTORE PUSH1 0x40 PUSH1 0x0 KECCAK256 SLOAD DUP4 SUB PUSH2 0x29D4 JUMPI DUP1 TIMESTAMP GT PUSH2 0x299B JUMPI PUSH2 0x2730 SWAP2 PUSH2 0x2727 SWAP2 PUSH1 0x1 DUP1 PUSH1 0xA0 SHL SUB PUSH1 0xD SLOAD AND SWAP1 PUSH1 0x40 MLOAD SWAP1 PUSH1 0x20 DUP3 ADD SWAP3 CHAINID DUP5 MSTORE ADDRESS PUSH1 0x40 DUP5 ADD MSTORE CALLER PUSH1 0x60 DUP5 ADD MSTORE PUSH1 0x1 DUP1 PUSH1 0xA0 SHL SUB DUP10 AND PUSH1 0x80 DUP5 ADD MSTORE PUSH1 0xA0 DUP4 ADD MSTORE PUSH1 0x24 CALLDATALOAD PUSH1 0xC0 DUP4 ADD MSTORE PUSH1 0x44 CALLDATALOAD PUSH1 0xE0 DUP4 ADD MSTORE PUSH1 0x64 CALLDATALOAD PUSH2 0x100 DUP4 ADD MSTORE PUSH1 0x84 CALLDATALOAD PUSH2 0x120 DUP4 ADD MSTORE PUSH1 0xA4 CALLDATALOAD PUSH2 0x140 DUP4 ADD MSTORE PUSH1 0xC4 CALLDATALOAD PUSH2 0x160 DUP4 ADD MSTORE DUP7 PUSH2 0x180 DUP4 ADD MSTORE PUSH2 0x1A0 DUP3 ADD MSTORE PUSH2 0x1A0 DUP2 MSTORE PUSH2 0x26DD PUSH2 0x1C0 DUP3 PUSH2 0x2F2F JUMP JUMPDEST MLOAD SWAP1 KECCAK256 PUSH1 0x40 MLOAD PUSH1 0x20 DUP2 ADD SWAP2 PUSH32 0x19457468657265756D205369676E6564204D6573736167653A0A333200000000 DUP4 MSTORE PUSH1 0x3C DUP3 ADD MSTORE PUSH1 0x3C DUP2 MSTORE PUSH2 0x271F PUSH1 0x5C DUP3 PUSH2 0x2F2F JUMP JUMPDEST MLOAD SWAP1 KECCAK256 PUSH2 0x3A86 JUMP JUMPDEST SWAP1 SWAP3 SWAP2 SWAP3 PUSH2 0x3AC2 JUMP JUMPDEST CALLER PUSH1 0x1 PUSH1 0x1 PUSH1 0xA0 SHL SUB SWAP1 SWAP2 AND SUB PUSH2 0x2966 JUMPI PUSH1 0x1 DUP2 ADD DUP1 SWAP2 GT PUSH2 0xECF JUMPI CALLER PUSH1 0x0 MSTORE PUSH1 0x3 PUSH1 0x20 MSTORE PUSH1 0x40 PUSH1 0x0 KECCAK256 SSTORE PUSH1 0x2 SLOAD PUSH2 0x2767 DUP2 PUSH2 0x31B4 JUMP JUMPDEST PUSH1 0x2 SSTORE PUSH1 0x40 MLOAD SWAP2 PUSH2 0x180 DUP4 ADD DUP4 DUP2 LT PUSH8 0xFFFFFFFFFFFFFFFF DUP3 GT OR PUSH2 0x47A JUMPI PUSH1 0x40 MSTORE DUP2 DUP4 MSTORE PUSH1 0x20 DUP4 ADD PUSH1 0xC4 CALLDATALOAD DUP2 MSTORE PUSH1 0x40 DUP5 ADD PUSH1 0x0 DUP2 MSTORE CALLER PUSH1 0x60 DUP7 ADD MSTORE PUSH1 0x80 DUP6 ADD SWAP1 PUSH1 0x1 DUP1 PUSH1 0xA0 SHL SUB DUP5 AND DUP3 MSTORE PUSH1 0x24 CALLDATALOAD PUSH1 0xA0 DUP8 ADD MSTORE PUSH1 0x44 CALLDATALOAD PUSH1 0xC0 DUP8 ADD MSTORE PUSH1 0x64 CALLDATALOAD PUSH1 0xE0 DUP8 ADD MSTORE PUSH1 0x84 CALLDATALOAD PUSH2 0x100 DUP8 ADD MSTORE PUSH1 0xA4 CALLDATALOAD PUSH2 0x120 DUP8 ADD MSTORE TIMESTAMP PUSH2 0x140 DUP8 ADD MSTORE PUSH1 0x0 PUSH2 0x160 DUP8 ADD MSTORE DUP5 PUSH1 0x0 MSTORE PUSH1 0x1 PUSH1 0x20 MSTORE PUSH1 0x40 PUSH1 0x0 KECCAK256 SWAP3 DUP7 MLOAD DUP5 SSTORE MLOAD PUSH1 0x1 DUP5 ADD SSTORE MLOAD PUSH1 0x5 DUP2 LT ISZERO PUSH2 0x7E8 JUMPI PUSH1 0x2 DUP4 ADD DUP1 SLOAD PUSH1 0x60 DUP9 ADD MLOAD PUSH1 0x1 PUSH1 0x1 PUSH1 0xA8 SHL SUB NOT SWAP1 SWAP2 AND PUSH1 0xFF SWAP1 SWAP4 AND SWAP3 SWAP1 SWAP3 OR PUSH1 0x8 SWAP3 DUP4 SHL PUSH2 0x100 PUSH1 0x1 PUSH1 0xA8 SHL SUB AND OR SWAP1 SSTORE SWAP1 MLOAD PUSH1 0x3 DUP4 ADD DUP1 SLOAD PUSH1 0x1 PUSH1 0x1 PUSH1 0xA0 SHL SUB NOT AND PUSH1 0x1 PUSH1 0x1 PUSH1 0xA0 SHL SUB SWAP3 DUP4 AND OR SWAP1 SSTORE PUSH1 0xA0 DUP7 ADD MLOAD PUSH1 0x4 DUP5 ADD SSTORE PUSH1 0xC0 DUP7 ADD MLOAD PUSH1 0x5 DUP5 ADD SSTORE PUSH1 0xE0 DUP7 ADD MLOAD PUSH1 0x6 DUP5 ADD SSTORE PUSH2 0x100 DUP7 ADD MLOAD PUSH1 0x7 DUP5 ADD SSTORE PUSH2 0x120 DUP7 ADD MLOAD SWAP2 DUP4 ADD SWAP2 SWAP1 SWAP2 SSTORE PUSH2 0x140 DUP6 ADD MLOAD PUSH1 0x9 DUP4 ADD SSTORE PUSH2 0x160 SWAP1 SWAP5 ADD MLOAD PUSH1 0xA SWAP2 SWAP1 SWAP2 ADD SSTORE PUSH1 0xE SLOAD PUSH1 0x40 MLOAD PUSH4 0x23B872DD PUSH1 0xE0 SHL PUSH1 0x20 DUP3 DUP2 ADD SWAP2 SWAP1 SWAP2 MSTORE CALLER PUSH1 0x24 DUP1 DUP5 ADD SWAP2 SWAP1 SWAP2 MSTORE ADDRESS PUSH1 0x44 DUP5 ADD MSTORE CALLDATALOAD PUSH1 0x64 DUP1 DUP5 ADD SWAP2 SWAP1 SWAP2 MSTORE DUP3 MSTORE SWAP5 PUSH2 0x28F9 SWAP3 AND PUSH2 0x28F4 PUSH1 0x84 DUP4 PUSH2 0x2F2F JUMP JUMPDEST PUSH2 0x3A1F JUMP JUMPDEST PUSH1 0x40 MLOAD SWAP1 PUSH1 0x24 CALLDATALOAD DUP3 MSTORE PUSH1 0x44 CALLDATALOAD DUP5 DUP4 ADD MSTORE PUSH1 0x64 CALLDATALOAD PUSH1 0x40 DUP4 ADD MSTORE PUSH1 0x84 CALLDATALOAD PUSH1 0x60 DUP4 ADD MSTORE PUSH1 0xA4 CALLDATALOAD PUSH1 0x80 DUP4 ADD MSTORE PUSH1 0xC4 CALLDATALOAD PUSH1 0xA0 DUP4 ADD MSTORE PUSH1 0x1 DUP1 PUSH1 0xA0 SHL SUB AND SWAP1 DUP3 PUSH32 0x9896188F7299B6607B47EAA190D500BF89ABBFA1BB2CE6D410F88B043E371B67 PUSH1 0xC0 CALLER SWAP4 LOG4 PUSH1 0x1 PUSH1 0x0 SSTORE PUSH1 0x40 MLOAD SWAP1 DUP2 MSTORE RETURN JUMPDEST PUSH1 0x40 MLOAD PUSH3 0x461BCD PUSH1 0xE5 SHL DUP2 MSTORE PUSH1 0x20 PUSH1 0x4 DUP3 ADD MSTORE PUSH1 0xD PUSH1 0x24 DUP3 ADD MSTORE PUSH13 0x626164207369676E6174757265 PUSH1 0x98 SHL PUSH1 0x44 DUP3 ADD MSTORE PUSH1 0x64 SWAP1 REVERT JUMPDEST PUSH1 0x40 MLOAD PUSH3 0x461BCD PUSH1 0xE5 SHL DUP2 MSTORE PUSH1 0x20 PUSH1 0x4 DUP3 ADD MSTORE PUSH1 0x11 PUSH1 0x24 DUP3 ADD MSTORE PUSH17 0x1CDA59DB985D1D5C9948195E1C1A5C9959 PUSH1 0x7A SHL PUSH1 0x44 DUP3 ADD MSTORE PUSH1 0x64 SWAP1 REVERT JUMPDEST PUSH1 0x40 MLOAD PUSH3 0x461BCD PUSH1 0xE5 SHL DUP2 MSTORE PUSH1 0x20 PUSH1 0x4 DUP3 ADD MSTORE PUSH1 0x9 PUSH1 0x24 DUP3 ADD MSTORE PUSH9 0x626164206E6F6E6365 PUSH1 0xB8 SHL PUSH1 0x44 DUP3 ADD MSTORE PUSH1 0x64 SWAP1 REVERT JUMPDEST PUSH1 0x40 MLOAD PUSH3 0x461BCD PUSH1 0xE5 SHL DUP2 MSTORE PUSH1 0x20 PUSH1 0x4 DUP3 ADD MSTORE PUSH1 0x14 PUSH1 0x24 DUP3 ADD MSTORE PUSH20 0x7472616E63686573206D757374206265203E203 PUSH1 0x64 SHL PUSH1 0x44 DUP3 ADD MSTORE PUSH1 0x64 SWAP1 REVERT JUMPDEST POP PUSH1 0xA4 CALLDATALOAD ISZERO ISZERO PUSH2 0x262B JUMP JUMPDEST PUSH1 0x40 MLOAD PUSH3 0x461BCD PUSH1 0xE5 SHL DUP2 MSTORE PUSH1 0x20 PUSH1 0x4 DUP3 ADD MSTORE PUSH1 0x12 PUSH1 0x24 DUP3 ADD MSTORE PUSH18 0xC4E4CAC2D6C8DEEEDC40DAD2E6DAC2E8C6D PUSH1 0x73 SHL PUSH1 0x44 DUP3 ADD MSTORE PUSH1 0x64 SWAP1 REVERT JUMPDEST PUSH1 0x40 MLOAD PUSH3 0x461BCD PUSH1 0xE5 SHL DUP2 MSTORE PUSH1 0x20 PUSH1 0x4 DUP3 ADD MSTORE PUSH1 0x11 PUSH1 0x24 DUP3 ADD MSTORE PUSH17 0x1CDD5C1C1B1A595C881C995C5D5A5C9959 PUSH1 0x7A SHL PUSH1 0x44 DUP3 ADD MSTORE PUSH1 0x64 SWAP1 REVERT JUMPDEST PUSH1 0x40 MLOAD PUSH3 0x461BCD PUSH1 0xE5 SHL DUP2 MSTORE PUSH1 0x20 PUSH1 0x4 DUP3 ADD MSTORE PUSH1 0x17 PUSH1 0x24 DUP3 ADD MSTORE PUSH32 0x72696361726469616E2068617368207265717569726564000000000000000000 PUSH1 0x44 DUP3 ADD MSTORE PUSH1 0x64 SWAP1 REVERT JUMPDEST CALLVALUE PUSH2 0x30D JUMPI PUSH1 0x20 CALLDATASIZE PUSH1 0x3 NOT ADD SLT PUSH2 0x30D JUMPI PUSH1 0x1 PUSH1 0x1 PUSH1 0xA0 SHL SUB PUSH2 0x2B25 PUSH2 0x2EE7 JUMP JUMPDEST AND PUSH1 0x0 MSTORE PUSH1 0x10 PUSH1 0x20 MSTORE PUSH1 0x20 PUSH1 0xFF PUSH1 0x40 PUSH1 0x0 KECCAK256 SLOAD AND PUSH1 0x40 MLOAD SWAP1 ISZERO ISZERO DUP2 MSTORE RETURN JUMPDEST CALLVALUE PUSH2 0x30D JUMPI PUSH1 0x20 CALLDATASIZE PUSH1 0x3 NOT ADD SLT PUSH2 0x30D JUMPI PUSH1 0x4 CALLDATALOAD PUSH1 0x0 MSTORE PUSH1 0x7 PUSH1 0x20 MSTORE PUSH1 0x20 PUSH1 0x40 PUSH1 0x0 KECCAK256 SLOAD PUSH1 0x40 MLOAD SWAP1 DUP2 MSTORE RETURN JUMPDEST CALLVALUE PUSH2 0x30D JUMPI PUSH1 0x20 CALLDATASIZE PUSH1 0x3 NOT ADD SLT PUSH2 0x30D JUMPI PUSH1 0x4 CALLDATALOAD PUSH1 0x0 MSTORE PUSH1 0x1 PUSH1 0x20 MSTORE PUSH1 0x40 PUSH1 0x0 KECCAK256 DUP1 SLOAD PUSH1 0x1 DUP3 ADD SLOAD PUSH1 0x2 DUP4 ADD SLOAD SWAP3 PUSH1 0xFF DUP5 AND SWAP4 PUSH1 0x1 DUP1 PUSH1 0xA0 SHL SUB PUSH1 0x3 DUP4 ADD SLOAD AND PUSH1 0x4 DUP4 ADD SLOAD PUSH1 0x5 DUP5 ADD SLOAD PUSH1 0x6 DUP6 ADD SLOAD SWAP2 PUSH1 0x7 DUP7 ADD SLOAD SWAP4 PUSH1 0x8 DUP8 ADD SLOAD SWAP6 PUSH1 0xA PUSH1 0x9 DUP10 ADD SLOAD SWAP9 ADD SLOAD SWAP9 PUSH1 0x40 MLOAD SWAP11 DUP12 MSTORE PUSH1 0x20 DUP12 ADD MSTORE PUSH1 0x5 DUP12 LT ISZERO PUSH2 0x7E8 JUMPI PUSH2 0x180 SWAP11 PUSH1 0x40 DUP12 ADD MSTORE PUSH1 0x1 DUP1 PUSH1 0xA0 SHL SUB SWAP1 PUSH1 0x8 SHR AND PUSH1 0x60 DUP11 ADD MSTORE PUSH1 0x80 DUP10 ADD MSTORE PUSH1 0xA0 DUP9 ADD MSTORE PUSH1 0xC0 DUP8 ADD MSTORE PUSH1 0xE0 DUP7 ADD MSTORE PUSH2 0x100 DUP6 ADD MSTORE PUSH2 0x120 DUP5 ADD MSTORE PUSH2 0x140 DUP4 ADD MSTORE PUSH2 0x160 DUP3 ADD MSTORE RETURN JUMPDEST CALLVALUE PUSH2 0x30D JUMPI PUSH1 0x20 CALLDATASIZE PUSH1 0x3 NOT ADD SLT PUSH2 0x30D JUMPI PUSH1 0x4 CALLDATALOAD PUSH1 0x0 MSTORE PUSH1 0x19 PUSH1 0x20 MSTORE PUSH1 0xE0 PUSH1 0x40 PUSH1 0x0 KECCAK256 PUSH1 0xFF PUSH1 0x1 DUP1 PUSH1 0xA0 SHL SUB DUP3 SLOAD AND SWAP2 PUSH1 0x1 DUP2 ADD SLOAD SWAP1 DUP3 PUSH1 0x2 DUP3 ADD SLOAD AND PUSH1 0x3 DUP3 ADD SLOAD SWAP1 PUSH1 0x5 PUSH1 0x4 DUP5 ADD SLOAD SWAP4 ADD SLOAD SWAP4 PUSH1 0x40 MLOAD SWAP7 DUP8 MSTORE PUSH1 0x20 DUP8 ADD MSTORE ISZERO ISZERO PUSH1 0x40 DUP7 ADD MSTORE PUSH1 0x60 DUP6 ADD MSTORE PUSH1 0x80 DUP5 ADD MSTORE PUSH1 0x1 DUP1 PUSH1 0xA0 SHL SUB DUP2 AND PUSH1 0xA0 DUP5 ADD MSTORE PUSH1 0xA0 SHR AND ISZERO ISZERO PUSH1 0xC0 DUP3 ADD MSTORE RETURN JUMPDEST CALLVALUE PUSH2 0x30D JUMPI PUSH1 0x20 CALLDATASIZE PUSH1 0x3 NOT ADD SLT PUSH2 0x30D JUMPI PUSH1 0x4 CALLDATALOAD PUSH1 0xF SLOAD DUP2 LT ISZERO PUSH2 0x30D JUMPI PUSH2 0x2CE0 PUSH1 0x20 SWAP2 PUSH2 0x2EB6 JUMP JUMPDEST SWAP1 SLOAD PUSH1 0x40 MLOAD PUSH1 0x3 SWAP3 SWAP1 SWAP3 SHL SHR PUSH1 0x1 PUSH1 0x1 PUSH1 0xA0 SHL SUB AND DUP2 MSTORE RETURN JUMPDEST CALLVALUE PUSH2 0x30D JUMPI PUSH1 0x0 CALLDATASIZE PUSH1 0x3 NOT ADD SLT PUSH2 0x30D JUMPI PUSH1 0xE SLOAD PUSH1 0x40 MLOAD PUSH1 0x1 PUSH1 0x1 PUSH1 0xA0 SHL SUB SWAP1 SWAP2 AND DUP2 MSTORE PUSH1 0x20 SWAP1 RETURN JUMPDEST CALLVALUE PUSH2 0x30D JUMPI PUSH1 0x20 CALLDATASIZE PUSH1 0x3 NOT ADD SLT PUSH2 0x30D JUMPI PUSH1 0x4 CALLDATALOAD CALLER PUSH1 0x0 MSTORE PUSH1 0x10 PUSH1 0x20 MSTORE PUSH2 0x2D50 PUSH1 0xFF PUSH1 0x40 PUSH1 0x0 KECCAK256 SLOAD AND PUSH2 0x2F7C JUMP JUMPDEST PUSH2 0x2D62 PUSH1 0xFF PUSH1 0xD SLOAD PUSH1 0xA0 SHR AND ISZERO PUSH2 0x2FB5 JUMP JUMPDEST PUSH2 0x2D6A PUSH2 0x362B JUMP JUMPDEST PUSH2 0x2D77 PUSH1 0xA SLOAD DUP3 LT PUSH2 0x2FEA JUMP JUMPDEST DUP1 PUSH1 0x0 MSTORE PUSH1 0x4 PUSH1 0x20 MSTORE PUSH1 0x40 PUSH1 0x0 KECCAK256 PUSH2 0x2D94 PUSH1 0x4 DUP3 ADD SLOAD ISZERO ISZERO PUSH2 0x302B JUMP JUMPDEST PUSH2 0x2DA5 PUSH1 0xFF PUSH1 0x3 DUP4 ADD SLOAD AND ISZERO PUSH2 0x3077 JUMP JUMPDEST DUP2 PUSH1 0x0 MSTORE PUSH1 0x9 PUSH1 0x20 MSTORE PUSH2 0x2DC0 PUSH1 0xFF PUSH1 0x40 PUSH1 0x0 KECCAK256 SLOAD AND ISZERO PUSH2 0x30B6 JUMP JUMPDEST DUP2 PUSH1 0x0 MSTORE PUSH1 0x8 PUSH1 0x20 MSTORE PUSH2 0x2DDA PUSH1 0x40 PUSH1 0x0 KECCAK256 SLOAD TIMESTAMP GT ISZERO PUSH2 0x30F7 JUMP JUMPDEST DUP1 SLOAD PUSH1 0x0 MSTORE PUSH1 0x1 PUSH1 0x20 MSTORE PUSH1 0xFF PUSH1 0x2 PUSH1 0x40 PUSH1 0x0 KECCAK256 ADD SLOAD AND SWAP1 PUSH1 0x5 DUP3 LT ISZERO PUSH2 0x7E8 JUMPI PUSH2 0x2E08 PUSH1 0x3 PUSH1 0x2 SWAP4 EQ PUSH2 0x3136 JUMP JUMPDEST PUSH1 0x0 DUP4 DUP2 MSTORE PUSH1 0x5 PUSH1 0x20 SWAP1 DUP2 MSTORE PUSH1 0x40 DUP1 DUP4 KECCAK256 CALLER DUP5 MSTORE SWAP1 SWAP2 MSTORE SWAP1 KECCAK256 SLOAD PUSH2 0x2E2F SWAP1 PUSH1 0xFF AND ISZERO PUSH2 0x3175 JUMP JUMPDEST PUSH1 0x0 DUP4 DUP2 MSTORE PUSH1 0x5 PUSH1 0x20 SWAP1 DUP2 MSTORE PUSH1 0x40 DUP1 DUP4 KECCAK256 CALLER DUP5 MSTORE SWAP1 SWAP2 MSTORE SWAP1 KECCAK256 DUP1 SLOAD PUSH1 0xFF NOT AND PUSH1 0x1 OR SWAP1 SSTORE ADD DUP1 SLOAD PUSH2 0x2E5F SWAP1 PUSH2 0x31B4 JUMP JUMPDEST DUP1 SWAP2 SSTORE PUSH1 0x11 SLOAD SWAP1 PUSH1 0x40 MLOAD DUP2 DUP2 MSTORE DUP3 PUSH1 0x20 DUP3 ADD MSTORE DUP4 PUSH32 0x14E1B3091F09F49236E90D7A9826AA647E37C8B8600ADC8A5935EE0C179E2DE1 PUSH1 0x40 CALLER SWAP4 LOG3 LT ISZERO PUSH2 0x2EA7 JUMPI JUMPDEST PUSH1 0x1 PUSH1 0x0 SSTORE STOP JUMPDEST PUSH2 0x2EB0 SWAP1 PUSH2 0x364D JUMP JUMPDEST DUP1 PUSH2 0x2EA0 JUMP JUMPDEST PUSH1 0xF SLOAD DUP2 LT ISZERO PUSH2 0x2ED1 JUMPI PUSH1 0xF PUSH1 0x0 MSTORE PUSH1 0x20 PUSH1 0x0 KECCAK256 ADD SWAP1 PUSH1 0x0 SWAP1 JUMP JUMPDEST PUSH4 0x4E487B71 PUSH1 0xE0 SHL PUSH1 0x0 MSTORE PUSH1 0x32 PUSH1 0x4 MSTORE PUSH1 0x24 PUSH1 0x0 REVERT JUMPDEST PUSH1 0x4 CALLDATALOAD SWAP1 PUSH1 0x1 PUSH1 0x1 PUSH1 0xA0 SHL SUB DUP3 AND DUP3 SUB PUSH2 0x30D JUMPI JUMP JUMPDEST PUSH1 0x24 CALLDATALOAD SWAP1 PUSH1 0x1 PUSH1 0x1 PUSH1 0xA0 SHL SUB DUP3 AND DUP3 SUB PUSH2 0x30D JUMPI JUMP JUMPDEST PUSH1 0xC0 DUP2 ADD SWAP1 DUP2 LT PUSH8 0xFFFFFFFFFFFFFFFF DUP3 GT OR PUSH2 0x47A JUMPI PUSH1 0x40 MSTORE JUMP JUMPDEST SWAP1 PUSH1 0x1F DUP1 NOT SWAP2 ADD AND DUP2 ADD SWAP1 DUP2 LT PUSH8 0xFFFFFFFFFFFFFFFF DUP3 GT OR PUSH2 0x47A JUMPI PUSH1 0x40 MSTORE JUMP JUMPDEST CALLVALUE PUSH2 0x30D JUMPI PUSH1 0x0 CALLDATASIZE PUSH1 0x3 NOT ADD SLT PUSH2 0x30D JUMPI PUSH1 0x20 PUSH1 0x40 MLOAD PUSH3 0x93A80 DUP2 MSTORE RETURN JUMPDEST SWAP1 PUSH1 0x2 DUP3 LT ISZERO PUSH2 0x7E8 JUMPI MSTORE JUMP JUMPDEST ISZERO PUSH2 0x2F83 JUMPI JUMP JUMPDEST PUSH1 0x40 MLOAD PUSH3 0x461BCD PUSH1 0xE5 SHL DUP2 MSTORE PUSH1 0x20 PUSH1 0x4 DUP3 ADD MSTORE PUSH1 0xA PUSH1 0x24 DUP3 ADD MSTORE PUSH10 0x37B7363C9030B236B4B7 PUSH1 0xB1 SHL PUSH1 0x44 DUP3 ADD MSTORE PUSH1 0x64 SWAP1 REVERT JUMPDEST ISZERO PUSH2 0x2FBC JUMPI JUMP JUMPDEST PUSH1 0x40 MLOAD PUSH3 0x461BCD PUSH1 0xE5 SHL DUP2 MSTORE PUSH1 0x20 PUSH1 0x4 DUP3 ADD MSTORE PUSH1 0x6 PUSH1 0x24 DUP3 ADD MSTORE PUSH6 0x1C185D5CD959 PUSH1 0xD2 SHL PUSH1 0x44 DUP3 ADD MSTORE PUSH1 0x64 SWAP1 REVERT JUMPDEST ISZERO PUSH2 0x2FF1 JUMPI JUMP JUMPDEST PUSH1 0x40 MLOAD PUSH3 0x461BCD PUSH1 0xE5 SHL DUP2 MSTORE PUSH1 0x20 PUSH1 0x4 DUP3 ADD MSTORE PUSH1 0x12 PUSH1 0x24 DUP3 ADD MSTORE PUSH18 0x1C1C9BDC1BDCD85B081B9BDD08199BDD5B99 PUSH1 0x72 SHL PUSH1 0x44 DUP3 ADD MSTORE PUSH1 0x64 SWAP1 REVERT JUMPDEST ISZERO PUSH2 0x3032 JUMPI JUMP JUMPDEST PUSH1 0x40 MLOAD PUSH3 0x461BCD PUSH1 0xE5 SHL DUP2 MSTORE PUSH1 0x20 PUSH1 0x4 DUP3 ADD MSTORE PUSH1 0x18 PUSH1 0x24 DUP3 ADD MSTORE PUSH32 0x70726F706F73616C206E6F7420696E697469616C697A65640000000000000000 PUSH1 0x44 DUP3 ADD MSTORE PUSH1 0x64 SWAP1 REVERT JUMPDEST ISZERO PUSH2 0x307E JUMPI JUMP JUMPDEST PUSH1 0x40 MLOAD PUSH3 0x461BCD PUSH1 0xE5 SHL DUP2 MSTORE PUSH1 0x20 PUSH1 0x4 DUP3 ADD MSTORE PUSH1 0x10 PUSH1 0x24 DUP3 ADD MSTORE PUSH16 0x185B1C9958591E48195E1958DD5D1959 PUSH1 0x82 SHL PUSH1 0x44 DUP3 ADD MSTORE PUSH1 0x64 SWAP1 REVERT JUMPDEST ISZERO PUSH2 0x30BD JUMPI JUMP JUMPDEST PUSH1 0x40 MLOAD PUSH3 0x461BCD PUSH1 0xE5 SHL DUP2 MSTORE PUSH1 0x20 PUSH1 0x4 DUP3 ADD MSTORE PUSH1 0x12 PUSH1 0x24 DUP3 ADD MSTORE PUSH18 0x1C1C9BDC1BDCD85B0818D85B98D95B1B1959 PUSH1 0x72 SHL PUSH1 0x44 DUP3 ADD MSTORE PUSH1 0x64 SWAP1 REVERT JUMPDEST ISZERO PUSH2 0x30FE JUMPI JUMP JUMPDEST PUSH1 0x40 MLOAD PUSH3 0x461BCD PUSH1 0xE5 SHL DUP2 MSTORE PUSH1 0x20 PUSH1 0x4 DUP3 ADD MSTORE PUSH1 0x10 PUSH1 0x24 DUP3 ADD MSTORE PUSH16 0x1C1C9BDC1BDCD85B08195E1C1A5C9959 PUSH1 0x82 SHL PUSH1 0x44 DUP3 ADD MSTORE PUSH1 0x64 SWAP1 REVERT JUMPDEST ISZERO PUSH2 0x313D JUMPI JUMP JUMPDEST PUSH1 0x40 MLOAD PUSH3 0x461BCD PUSH1 0xE5 SHL DUP2 MSTORE PUSH1 0x20 PUSH1 0x4 DUP3 ADD MSTORE PUSH1 0x10 PUSH1 0x24 DUP3 ADD MSTORE PUSH16 0x3A3930B232903737BA10333937BD32B7 PUSH1 0x81 SHL PUSH1 0x44 DUP3 ADD MSTORE PUSH1 0x64 SWAP1 REVERT JUMPDEST ISZERO PUSH2 0x317C JUMPI JUMP JUMPDEST PUSH1 0x40 MLOAD PUSH3 0x461BCD PUSH1 0xE5 SHL DUP2 MSTORE PUSH1 0x20 PUSH1 0x4 DUP3 ADD MSTORE PUSH1 0x10 PUSH1 0x24 DUP3 ADD MSTORE PUSH16 0x185B1C9958591E48185C1C1C9BDD9959 PUSH1 0x82 SHL PUSH1 0x44 DUP3 ADD MSTORE PUSH1 0x64 SWAP1 REVERT JUMPDEST PUSH1 0x0 NOT DUP2 EQ PUSH2 0xECF JUMPI PUSH1 0x1 ADD SWAP1 JUMP JUMPDEST SWAP2 SWAP1 DUP3 ADD DUP1 SWAP3 GT PUSH2 0xECF JUMPI JUMP JUMPDEST ISZERO PUSH2 0x31D7 JUMPI JUMP JUMPDEST PUSH1 0x40 MLOAD PUSH3 0x461BCD PUSH1 0xE5 SHL DUP2 MSTORE PUSH1 0x20 PUSH1 0x4 DUP3 ADD MSTORE PUSH1 0x11 PUSH1 0x24 DUP3 ADD MSTORE PUSH17 0x185B1C9958591E4818D85B98D95B1B1959 PUSH1 0x7A SHL PUSH1 0x44 DUP3 ADD MSTORE PUSH1 0x64 SWAP1 REVERT JUMPDEST ISZERO PUSH2 0x3217 JUMPI JUMP JUMPDEST PUSH1 0x40 MLOAD PUSH3 0x461BCD PUSH1 0xE5 SHL DUP2 MSTORE PUSH1 0x20 PUSH1 0x4 DUP3 ADD MSTORE PUSH1 0x14 PUSH1 0x24 DUP3 ADD MSTORE PUSH20 0x1C1C9BDC1BDCD85B081B9BDD08195E1C1A5C9959 PUSH1 0x62 SHL PUSH1 0x44 DUP3 ADD MSTORE PUSH1 0x64 SWAP1 REVERT JUMPDEST ISZERO PUSH2 0x325A JUMPI JUMP JUMPDEST PUSH1 0x40 MLOAD PUSH3 0x461BCD PUSH1 0xE5 SHL DUP2 MSTORE PUSH1 0x20 PUSH1 0x4 DUP3 ADD MSTORE PUSH1 0xF PUSH1 0x24 DUP3 ADD MSTORE PUSH15 0x1D1C985919481B9BDD08199BDD5B99 PUSH1 0x8A SHL PUSH1 0x44 DUP3 ADD MSTORE PUSH1 0x64 SWAP1 REVERT JUMPDEST ISZERO PUSH2 0x3298 JUMPI JUMP JUMPDEST PUSH1 0x40 MLOAD PUSH3 0x461BCD PUSH1 0xE5 SHL DUP2 MSTORE PUSH1 0x20 PUSH1 0x4 DUP3 ADD MSTORE PUSH1 0xA PUSH1 0x24 DUP3 ADD MSTORE PUSH10 0x37B7363C90313ABCB2B9 PUSH1 0xB1 SHL PUSH1 0x44 DUP3 ADD MSTORE PUSH1 0x64 SWAP1 REVERT JUMPDEST ISZERO PUSH2 0x32D1 JUMPI JUMP JUMPDEST PUSH1 0x40 MLOAD PUSH3 0x461BCD PUSH1 0xE5 SHL DUP2 MSTORE PUSH1 0x20 PUSH1 0x4 DUP3 ADD MSTORE PUSH1 0x19 PUSH1 0x24 DUP3 ADD MSTORE PUSH32 0x6D757374206265204152524956414C5F434F4E4649524D454400000000000000 PUSH1 0x44 DUP3 ADD MSTORE PUSH1 0x64 SWAP1 REVERT JUMPDEST ISZERO PUSH2 0x331D JUMPI JUMP JUMPDEST PUSH1 0x40 MLOAD PUSH3 0x461BCD PUSH1 0xE5 SHL DUP2 MSTORE PUSH1 0x20 PUSH1 0x4 DUP3 ADD MSTORE PUSH1 0xF PUSH1 0x24 DUP3 ADD MSTORE PUSH15 0x185C9C9A5D985B081B9BDD081CD95D PUSH1 0x8A SHL PUSH1 0x44 DUP3 ADD MSTORE PUSH1 0x64 SWAP1 REVERT JUMPDEST ISZERO PUSH2 0x335B JUMPI JUMP JUMPDEST PUSH1 0x40 MLOAD PUSH3 0x461BCD PUSH1 0xE5 SHL DUP2 MSTORE PUSH1 0x20 PUSH1 0x4 DUP3 ADD MSTORE PUSH1 0xA PUSH1 0x24 DUP3 ADD MSTORE PUSH10 0x1B9BDD081C185D5CD959 PUSH1 0xB2 SHL PUSH1 0x44 DUP3 ADD MSTORE PUSH1 0x64 SWAP1 REVERT JUMPDEST ISZERO PUSH2 0x3394 JUMPI JUMP JUMPDEST PUSH1 0x40 MLOAD PUSH3 0x461BCD PUSH1 0xE5 SHL DUP2 MSTORE PUSH1 0x20 PUSH1 0x4 DUP3 ADD MSTORE PUSH1 0x12 PUSH1 0x24 DUP3 ADD MSTORE PUSH18 0x1B9BC81858DD1A5D99481C1C9BDC1BDCD85B PUSH1 0x72 SHL PUSH1 0x44 DUP3 ADD MSTORE PUSH1 0x64 SWAP1 REVERT JUMPDEST ISZERO PUSH2 0x33D5 JUMPI JUMP JUMPDEST PUSH1 0x40 MLOAD PUSH3 0x461BCD PUSH1 0xE5 SHL DUP2 MSTORE PUSH1 0x20 PUSH1 0x4 DUP3 ADD MSTORE PUSH1 0x15 PUSH1 0x24 DUP3 ADD MSTORE PUSH21 0x1CDD185D1D5CC81B5D5CDD081899481313D0D2D151 PUSH1 0x5A SHL PUSH1 0x44 DUP3 ADD MSTORE PUSH1 0x64 SWAP1 REVERT JUMPDEST ISZERO PUSH2 0x3419 JUMPI JUMP JUMPDEST PUSH1 0x40 MLOAD PUSH3 0x461BCD PUSH1 0xE5 SHL DUP2 MSTORE PUSH1 0x20 PUSH1 0x4 DUP3 ADD MSTORE PUSH1 0xB PUSH1 0x24 DUP3 ADD MSTORE PUSH11 0x6F6E6C79206F7261636C65 PUSH1 0xA8 SHL PUSH1 0x44 DUP3 ADD MSTORE PUSH1 0x64 SWAP1 REVERT JUMPDEST ISZERO PUSH2 0x3453 JUMPI JUMP JUMPDEST PUSH1 0x40 MLOAD PUSH3 0x461BCD PUSH1 0xE5 SHL DUP2 MSTORE PUSH1 0x20 PUSH1 0x4 DUP3 ADD MSTORE PUSH1 0xF PUSH1 0x24 DUP3 ADD MSTORE PUSH15 0x1BDC9858DB1948191A5CD8589B1959 PUSH1 0x8A SHL PUSH1 0x44 DUP3 ADD MSTORE PUSH1 0x64 SWAP1 REVERT JUMPDEST ISZERO PUSH2 0x3491 JUMPI JUMP JUMPDEST PUSH1 0x40 MLOAD PUSH3 0x461BCD PUSH1 0xE5 SHL DUP2 MSTORE PUSH1 0x20 PUSH1 0x4 DUP3 ADD MSTORE PUSH1 0xD PUSH1 0x24 DUP3 ADD MSTORE PUSH13 0x34B73B30B634B21030B236B4B7 PUSH1 0x99 SHL PUSH1 0x44 DUP3 ADD MSTORE PUSH1 0x64 SWAP1 REVERT JUMPDEST ISZERO PUSH2 0x34CD JUMPI JUMP JUMPDEST PUSH1 0x40 MLOAD PUSH3 0x461BCD PUSH1 0xE5 SHL DUP2 MSTORE PUSH1 0x20 PUSH1 0x4 DUP3 ADD MSTORE PUSH1 0xD PUSH1 0x24 DUP3 ADD MSTORE PUSH13 0x30B63932B0B23C9030B236B4B7 PUSH1 0x99 SHL PUSH1 0x44 DUP3 ADD MSTORE PUSH1 0x64 SWAP1 REVERT JUMPDEST ISZERO PUSH2 0x3509 JUMPI JUMP JUMPDEST PUSH1 0x40 MLOAD PUSH3 0x461BCD PUSH1 0xE5 SHL DUP2 MSTORE PUSH1 0x20 PUSH1 0x4 DUP3 ADD MSTORE PUSH1 0x13 PUSH1 0x24 DUP3 ADD MSTORE PUSH19 0x696E73756666696369656E742061646D696E73 PUSH1 0x68 SHL PUSH1 0x44 DUP3 ADD MSTORE PUSH1 0x64 SWAP1 REVERT JUMPDEST ISZERO PUSH2 0x354B JUMPI JUMP JUMPDEST PUSH1 0x40 MLOAD PUSH3 0x461BCD PUSH1 0xE5 SHL DUP2 MSTORE PUSH1 0x20 PUSH1 0x4 DUP3 ADD MSTORE PUSH1 0x19 PUSH1 0x24 DUP3 ADD MSTORE PUSH32 0x737461747573206D75737420626520494E5F5452414E53495400000000000000 PUSH1 0x44 DUP3 ADD MSTORE PUSH1 0x64 SWAP1 REVERT JUMPDEST PUSH1 0x11 SLOAD PUSH1 0x2 DUP2 LT ISZERO PUSH2 0x35A2 JUMPI POP PUSH1 0x2 SWAP1 JUMP JUMPDEST SWAP1 JUMP JUMPDEST ISZERO PUSH2 0x35AC JUMPI JUMP JUMPDEST PUSH1 0x40 MLOAD PUSH3 0x461BCD PUSH1 0xE5 SHL DUP2 MSTORE PUSH1 0x20 PUSH1 0x4 DUP3 ADD MSTORE PUSH1 0x14 PUSH1 0x24 DUP3 ADD MSTORE PUSH20 0x6E6F7420656E6F75676820617070726F76616C73 PUSH1 0x60 SHL PUSH1 0x44 DUP3 ADD MSTORE PUSH1 0x64 SWAP1 REVERT JUMPDEST ISZERO PUSH2 0x35EF JUMPI JUMP JUMPDEST PUSH1 0x40 MLOAD PUSH3 0x461BCD PUSH1 0xE5 SHL DUP2 MSTORE PUSH1 0x20 PUSH1 0x4 DUP3 ADD MSTORE PUSH1 0x14 PUSH1 0x24 DUP3 ADD MSTORE PUSH20 0x1D1A5B595B1BD8DAC81B9BDD08195B185C1CD959 PUSH1 0x62 SHL PUSH1 0x44 DUP3 ADD MSTORE PUSH1 0x64 SWAP1 REVERT JUMPDEST PUSH1 0x2 PUSH1 0x0 SLOAD EQ PUSH2 0x363C JUMPI PUSH1 0x2 PUSH1 0x0 SSTORE JUMP JUMPDEST PUSH4 0x3EE5AEB5 PUSH1 0xE0 SHL PUSH1 0x0 MSTORE PUSH1 0x4 PUSH1 0x0 REVERT JUMPDEST DUP1 PUSH1 0x0 MSTORE PUSH1 0x4 PUSH1 0x20 MSTORE PUSH1 0x40 PUSH1 0x0 KECCAK256 SWAP1 PUSH1 0x3 DUP3 ADD SWAP2 DUP3 SLOAD SWAP3 PUSH2 0x3671 PUSH1 0xFF DUP6 AND ISZERO PUSH2 0x3077 JUMP JUMPDEST DUP3 PUSH1 0x0 MSTORE PUSH1 0x9 PUSH1 0x20 MSTORE PUSH2 0x368C PUSH1 0xFF PUSH1 0x40 PUSH1 0x0 KECCAK256 SLOAD AND ISZERO PUSH2 0x30B6 JUMP JUMPDEST DUP3 PUSH1 0x0 MSTORE PUSH1 0x8 PUSH1 0x20 MSTORE PUSH2 0x36A6 PUSH1 0x40 PUSH1 0x0 KECCAK256 SLOAD TIMESTAMP GT ISZERO PUSH2 0x30F7 JUMP JUMPDEST PUSH2 0x36B8 PUSH1 0x2 DUP4 ADD SLOAD PUSH1 0x11 SLOAD GT ISZERO PUSH2 0x35A5 JUMP JUMPDEST DUP2 SLOAD PUSH1 0x0 MSTORE PUSH1 0x1 PUSH1 0x20 MSTORE PUSH1 0x40 PUSH1 0x0 KECCAK256 SWAP1 PUSH1 0x2 DUP3 ADD SWAP5 PUSH1 0xFF DUP7 SLOAD AND PUSH1 0x5 DUP2 LT ISZERO PUSH2 0x7E8 JUMPI PUSH1 0x3 SUB PUSH2 0x38B0 JUMPI PUSH1 0x1 SWAP1 PUSH1 0xFF NOT AND OR SWAP1 SSTORE PUSH1 0x4 PUSH1 0xFF NOT DUP6 SLOAD AND OR DUP5 SSTORE DUP2 SLOAD PUSH1 0x0 MSTORE PUSH1 0x6 PUSH1 0x20 MSTORE PUSH1 0x40 PUSH1 0x0 KECCAK256 PUSH1 0xFF NOT DUP2 SLOAD AND SWAP1 SSTORE DUP2 SLOAD PUSH1 0x0 MSTORE PUSH1 0x7 PUSH1 0x20 MSTORE PUSH1 0x0 PUSH1 0x40 DUP2 KECCAK256 SSTORE DUP2 SLOAD PUSH1 0x0 MSTORE PUSH1 0xB PUSH1 0x20 MSTORE PUSH1 0x0 PUSH1 0x40 DUP2 KECCAK256 SSTORE PUSH1 0x8 DUP2 ADD SLOAD SWAP4 PUSH1 0x1 DUP4 ADD SWAP2 PUSH1 0xFF DUP4 SLOAD AND PUSH1 0x2 DUP2 LT ISZERO PUSH2 0x7E8 JUMPI DUP1 PUSH2 0x37F3 JUMPI POP POP SWAP2 PUSH1 0xFF SWAP5 DUP5 PUSH1 0x20 SWAP4 PUSH32 0xAFDF3220F58FE501F1C7CFF54DF532523BA92E302D4B17D7BB8C30B9E4E906B3 PUSH1 0x40 PUSH32 0x367EF6DA4BD64313A89876ECB2E42B4BE35F68F378625BE0D78DCD15EBA27DD0 SWAP8 PUSH1 0x1 DUP1 PUSH1 0xA0 SHL SUB SWAP1 SLOAD PUSH1 0x8 SHR AND SWAP6 PUSH2 0x37C0 DUP7 DUP9 PUSH1 0x1 DUP1 PUSH1 0xA0 SHL SUB PUSH1 0xE SLOAD AND PUSH2 0x3956 JUMP JUMPDEST SLOAD SWAP10 DUP11 SWAP4 SLOAD AND SWAP6 DUP2 MLOAD SWAP6 DUP7 MSTORE PUSH2 0x37D8 DUP9 DUP8 ADD DUP9 PUSH2 0x2F6F JUMP JUMPDEST PUSH1 0x1 PUSH1 0x1 PUSH1 0xA0 SHL SUB AND SWAP5 LOG4 PUSH2 0x37F0 PUSH1 0x40 MLOAD DUP1 SWAP3 PUSH2 0x2F6F JUMP JUMPDEST LOG3 JUMP JUMPDEST SWAP1 SWAP4 SWAP2 POP PUSH1 0x1 SUB PUSH2 0x3872 JUMPI PUSH1 0xFF SWAP5 DUP5 PUSH1 0x20 SWAP4 PUSH32 0xAFDF3220F58FE501F1C7CFF54DF532523BA92E302D4B17D7BB8C30B9E4E906B3 PUSH1 0x40 PUSH32 0x367EF6DA4BD64313A89876ECB2E42B4BE35F68F378625BE0D78DCD15EBA27DD0 SWAP8 PUSH1 0x3 PUSH1 0x1 DUP1 PUSH1 0xA0 SHL SUB SWAP2 ADD SLOAD AND SWAP6 PUSH2 0x386D DUP7 DUP9 PUSH1 0x1 DUP1 PUSH1 0xA0 SHL SUB PUSH1 0xE SLOAD AND PUSH2 0x3956 JUMP JUMPDEST PUSH2 0x37C0 JUMP JUMPDEST PUSH1 0x40 MLOAD PUSH3 0x461BCD PUSH1 0xE5 SHL DUP2 MSTORE PUSH1 0x20 PUSH1 0x4 DUP3 ADD MSTORE PUSH1 0x16 PUSH1 0x24 DUP3 ADD MSTORE PUSH22 0x696E76616C6964206469737075746520737461747573 PUSH1 0x50 SHL PUSH1 0x44 DUP3 ADD MSTORE PUSH1 0x64 SWAP1 REVERT JUMPDEST PUSH1 0x40 MLOAD PUSH3 0x461BCD PUSH1 0xE5 SHL DUP2 MSTORE PUSH1 0x20 PUSH1 0x4 DUP3 ADD MSTORE PUSH1 0x14 PUSH1 0x24 DUP3 ADD MSTORE PUSH20 0x3A3930B2329036BAB9BA10313290232927AD22A7 PUSH1 0x61 SHL PUSH1 0x44 DUP3 ADD MSTORE PUSH1 0x64 SWAP1 REVERT JUMPDEST PUSH1 0x40 MLOAD SWAP1 PUSH1 0xF SLOAD DUP1 DUP4 MSTORE DUP3 PUSH1 0x20 DUP2 ADD PUSH1 0xF PUSH1 0x0 MSTORE PUSH1 0x20 PUSH1 0x0 KECCAK256 SWAP3 PUSH1 0x0 JUMPDEST DUP2 DUP2 LT PUSH2 0x3920 JUMPI POP POP PUSH2 0x391E SWAP3 POP SUB DUP4 PUSH2 0x2F2F JUMP JUMPDEST JUMP JUMPDEST DUP5 SLOAD PUSH1 0x1 PUSH1 0x1 PUSH1 0xA0 SHL SUB AND DUP4 MSTORE PUSH1 0x1 SWAP5 DUP6 ADD SWAP5 DUP8 SWAP5 POP PUSH1 0x20 SWAP1 SWAP4 ADD SWAP3 ADD PUSH2 0x3909 JUMP JUMPDEST DUP1 MLOAD DUP3 LT ISZERO PUSH2 0x2ED1 JUMPI PUSH1 0x20 SWAP2 PUSH1 0x5 SHL ADD ADD SWAP1 JUMP JUMPDEST PUSH1 0x40 MLOAD PUSH4 0xA9059CBB PUSH1 0xE0 SHL PUSH1 0x20 DUP3 ADD MSTORE PUSH1 0x1 PUSH1 0x1 PUSH1 0xA0 SHL SUB SWAP1 SWAP3 AND PUSH1 0x24 DUP4 ADD MSTORE PUSH1 0x44 DUP1 DUP4 ADD SWAP4 SWAP1 SWAP4 MSTORE SWAP2 DUP2 MSTORE PUSH2 0x391E SWAP2 PUSH2 0x28F4 PUSH1 0x64 DUP4 PUSH2 0x2F2F JUMP JUMPDEST PUSH2 0x3999 PUSH2 0x38EC JUMP JUMPDEST PUSH1 0x0 JUMPDEST DUP2 MLOAD DUP2 LT ISZERO PUSH2 0x39D7 JUMPI PUSH1 0x1 SWAP1 PUSH1 0x1 PUSH1 0x1 PUSH1 0xA0 SHL SUB PUSH2 0x39BA DUP3 DUP6 PUSH2 0x3942 JUMP JUMPDEST MLOAD AND PUSH1 0x0 MSTORE PUSH1 0x16 PUSH1 0x20 MSTORE PUSH1 0x40 PUSH1 0x0 KECCAK256 PUSH1 0xFF NOT DUP2 SLOAD AND SWAP1 SSTORE ADD PUSH2 0x399C JUMP JUMPDEST POP POP PUSH1 0xFF NOT PUSH1 0x17 SLOAD AND PUSH1 0x17 SSTORE PUSH1 0x0 PUSH1 0x12 SSTORE PUSH1 0x0 PUSH1 0x13 SSTORE PUSH1 0x0 PUSH1 0x14 SSTORE PUSH1 0x0 PUSH1 0x15 SSTORE CALLER PUSH32 0xC79764E56DCFDDC1A2135F80CF347DD741F7C7F914A134142B5D336E156D3BD0 PUSH1 0x0 DUP1 LOG2 JUMP JUMPDEST SWAP1 PUSH1 0x0 PUSH1 0x20 SWAP2 DUP3 DUP2 MLOAD SWAP2 ADD DUP3 DUP6 GAS CALL ISZERO PUSH2 0x3A7A JUMPI PUSH1 0x0 MLOAD RETURNDATASIZE PUSH2 0x3A71 JUMPI POP PUSH1 0x1 PUSH1 0x1 PUSH1 0xA0 SHL SUB DUP2 AND EXTCODESIZE ISZERO JUMPDEST PUSH2 0x3A50 JUMPI POP JUMP JUMPDEST PUSH4 0x5274AFE7 PUSH1 0xE0 SHL PUSH1 0x0 SWAP1 DUP2 MSTORE PUSH1 0x1 PUSH1 0x1 PUSH1 0xA0 SHL SUB SWAP2 SWAP1 SWAP2 AND PUSH1 0x4 MSTORE PUSH1 0x24 SWAP1 REVERT JUMPDEST PUSH1 0x1 EQ ISZERO PUSH2 0x3A49 JUMP JUMPDEST PUSH1 0x40 MLOAD RETURNDATASIZE PUSH1 0x0 DUP3 RETURNDATACOPY RETURNDATASIZE SWAP1 REVERT JUMPDEST DUP2 MLOAD SWAP2 SWAP1 PUSH1 0x41 DUP4 SUB PUSH2 0x3AB7 JUMPI PUSH2 0x3AB0 SWAP3 POP PUSH1 0x20 DUP3 ADD MLOAD SWAP1 PUSH1 0x60 PUSH1 0x40 DUP5 ADD MLOAD SWAP4 ADD MLOAD PUSH1 0x0 BYTE SWAP1 PUSH2 0x3B34 JUMP JUMPDEST SWAP2 SWAP3 SWAP1 SWAP2 SWAP1 JUMP JUMPDEST POP POP PUSH1 0x0 SWAP2 PUSH1 0x2 SWAP2 SWAP1 JUMP JUMPDEST SWAP2 SWAP1 SWAP2 PUSH1 0x4 DUP2 LT ISZERO PUSH2 0x7E8 JUMPI DUP1 PUSH2 0x3AD8 JUMPI POP SWAP1 POP JUMP JUMPDEST PUSH1 0x0 PUSH1 0x1 DUP3 SUB PUSH2 0x3AF3 JUMPI PUSH4 0xF645EEDF PUSH1 0xE0 SHL PUSH1 0x0 MSTORE PUSH1 0x4 PUSH1 0x0 REVERT JUMPDEST POP PUSH1 0x2 DUP2 SUB PUSH2 0x3B11 JUMPI DUP3 PUSH4 0xFCE698F7 PUSH1 0xE0 SHL PUSH1 0x0 MSTORE PUSH1 0x4 MSTORE PUSH1 0x24 PUSH1 0x0 REVERT JUMPDEST SWAP1 SWAP2 PUSH1 0x3 PUSH1 0x0 SWAP3 EQ PUSH2 0x3B21 JUMPI POP POP JUMP JUMPDEST PUSH4 0x35E2F383 PUSH1 0xE2 SHL DUP3 MSTORE PUSH1 0x4 MSTORE PUSH1 0x24 SWAP2 POP REVERT JUMPDEST SWAP2 SWAP1 PUSH32 0x7FFFFFFFFFFFFFFFFFFFFFFFFFFFFFFF5D576E7357A4501DDFE92F46681B20A0 DUP5 GT PUSH2 0x3BB1 JUMPI SWAP2 PUSH1 0x20 SWAP4 PUSH1 0x80 SWAP3 PUSH1 0xFF PUSH1 0x0 SWAP6 PUSH1 0x40 MLOAD SWAP5 DUP6 MSTORE AND DUP7 DUP5 ADD MSTORE PUSH1 0x40 DUP4 ADD MSTORE PUSH1 0x60 DUP3 ADD MSTORE DUP3 DUP1 MSTORE PUSH1 0x1 GAS STATICCALL ISZERO PUSH2 0x3A7A JUMPI PUSH1 0x0 MLOAD PUSH1 0x1 PUSH1 0x1 PUSH1 0xA0 SHL SUB DUP2 AND ISZERO PUSH2 0x3BA5 JUMPI SWAP1 PUSH1 0x0 SWAP1 PUSH1 0x0 SWAP1 JUMP JUMPDEST POP PUSH1 0x0 SWAP1 PUSH1 0x1 SWAP1 PUSH1 0x0 SWAP1 JUMP JUMPDEST POP POP POP PUSH1 0x0 SWAP2 PUSH1 0x3 SWAP2 SWAP1 JUMP INVALID LOG2 PUSH5 0x6970667358 0x22 SLT KECCAK256 SWAP9 0x28 SWAP12 PUSH9 0xA91C6C6C5B56781E11 0x25 PUSH25 0xA4E0A8A1ACEF70C680ECAB47AA5D60059664736F6C63430008 SHR STOP CALLER "
        },
        "methodIdentifiers": {
          "DISPUTE_PROPOSAL_TTL()": "7526b0ea",
          "DISPUTE_WINDOW()": "f585dc57",
          "GOVERNANCE_PROPOSAL_TTL()": "68d69b61",
          "IN_TRANSIT_TIMEOUT()": "c0e8f6a7",
          "LOCK_TIMEOUT()": "a375d807",
          "adminAddCounter()": "5c04d8ca",
          "adminAddHasApproved(uint256,address)": "c5fa4a98",
          "adminAddProposalCancelled(uint256)": "5ab8621e",
          "adminAddProposalExpiresAt(uint256)": "710bb979",
          "adminAddProposals(uint256)": "a48448fe",
          "admins(uint256)": "14bfd6d0",
          "approveAddAdmin(uint256)": "daa07856",
          "approveDisputeSolution(uint256)": "0d6043c6",
          "approveOracleUpdate(uint256)": "b9bcaf21",
          "approveUnpause()": "4be93571",
          "cancelExpiredAddAdminProposal(uint256)": "2715048c",
          "cancelExpiredDisputeProposal(uint256)": "77d8f09d",
          "cancelExpiredOracleUpdateProposal(uint256)": "76d622ce",
          "cancelLockedTradeAfterTimeout(uint256)": "620dc23a",
          "cancelUnpauseProposal()": "81b2ce31",
          "confirmArrival(uint256)": "ae7784d7",
          "createTrade(address,uint256,uint256,uint256,uint256,uint256,bytes32,uint256,uint256,bytes)": "2507cde1",
          "disableOracleEmergency()": "8354415d",
          "disputeCounter()": "7d36f4d3",
          "disputeHasApproved(uint256,address)": "a0977604",
          "disputeProposalCancelled(uint256)": "96f84c09",
          "disputeProposalExpiresAt(uint256)": "8d2304ee",
          "disputeProposals(uint256)": "a94c8f3d",
          "executeAddAdmin(uint256)": "ec9d1517",
          "executeOracleUpdate(uint256)": "ede25b9d",
          "finalizeAfterDisputeWindow(uint256)": "6de2a4f0",
          "getBuyerNonce(address)": "d371cf72",
          "getNextTradeId()": "ea4aa016",
          "governanceApprovals()": "c194bb4e",
          "governanceTimelock()": "9a1fdd79",
          "hasActiveUnpauseProposal()": "cc792e0d",
          "inTransitSince(uint256)": "76ebb7e0",
          "isAdmin(address)": "24d7806c",
          "nonces(address)": "7ecebe00",
          "openDispute(uint256)": "27d00fb0",
          "oracleActive()": "86f23a35",
          "oracleAddress()": "a89ae4ba",
          "oracleUpdateCounter()": "e57a7e35",
          "oracleUpdateHasApproved(uint256,address)": "2a3ecca1",
          "oracleUpdateProposalCancelled(uint256)": "ee5798ae",
          "oracleUpdateProposalExpiresAt(uint256)": "fcb0aa02",
          "oracleUpdateProposals(uint256)": "18c27404",
          "pause()": "8456cb59",
          "paused()": "5c975abb",
          "proposeAddAdmin(address)": "749511b1",
          "proposeDisputeSolution(uint256,uint8)": "f565776d",
          "proposeOracleUpdate(address)": "d6d81fa3",
          "proposeUnpause()": "fae8a3d6",
          "refundInTransitAfterTimeout(uint256)": "9b5e3061",
          "releaseFundsStage1(uint256)": "6726b9db",
          "requiredApprovals()": "99c1aadc",
          "tradeActiveDisputeProposalId(uint256)": "20e32a53",
          "tradeCounter()": "660d15b5",
          "tradeHasActiveDisputeProposal(uint256)": "ff0c4ee5",
          "trades(uint256)": "1e6c598e",
          "treasuryAddress()": "c5f956af",
          "unpauseHasApproved(address)": "2a4591ba",
          "unpauseProposal()": "dc88100e",
          "usdcToken()": "11eac855"
        }
      }
    }
  }
}